{
  "contractName": "AugmintToken",
  "abi": [
    {
      "constant": true,
      "inputs": [],
      "name": "name",
      "outputs": [
        {
          "name": "",
          "type": "string"
        }
      ],
      "payable": false,
      "stateMutability": "view",
      "type": "function"
    },
    {
      "constant": true,
      "inputs": [],
      "name": "totalSupply",
      "outputs": [
        {
          "name": "",
          "type": "uint256"
        }
      ],
      "payable": false,
      "stateMutability": "view",
      "type": "function"
    },
    {
      "constant": true,
      "inputs": [
        {
          "name": "",
          "type": "address"
        }
      ],
      "name": "balances",
      "outputs": [
        {
          "name": "",
          "type": "uint256"
        }
      ],
      "payable": false,
      "stateMutability": "view",
      "type": "function"
    },
    {
      "constant": true,
      "inputs": [],
      "name": "decimals",
      "outputs": [
        {
          "name": "",
          "type": "uint8"
        }
      ],
      "payable": false,
      "stateMutability": "view",
      "type": "function"
    },
    {
      "constant": true,
      "inputs": [],
      "name": "peggedSymbol",
      "outputs": [
        {
          "name": "",
          "type": "bytes32"
        }
      ],
      "payable": false,
      "stateMutability": "view",
      "type": "function"
    },
    {
      "constant": true,
      "inputs": [
        {
          "name": "",
          "type": "address"
        },
        {
          "name": "",
          "type": "bytes32"
        }
      ],
      "name": "permissions",
      "outputs": [
        {
          "name": "",
          "type": "bool"
        }
      ],
      "payable": false,
      "stateMutability": "view",
      "type": "function"
    },
    {
      "constant": true,
      "inputs": [
        {
          "name": "",
          "type": "address"
        },
        {
          "name": "",
          "type": "address"
        }
      ],
      "name": "allowed",
      "outputs": [
        {
          "name": "",
          "type": "uint256"
        }
      ],
      "payable": false,
      "stateMutability": "view",
      "type": "function"
    },
    {
      "constant": false,
      "inputs": [
        {
          "name": "agent",
          "type": "address"
        },
        {
          "name": "requiredPermission",
          "type": "bytes32"
        }
      ],
      "name": "revokePermission",
      "outputs": [],
      "payable": false,
      "stateMutability": "nonpayable",
      "type": "function"
    },
    {
      "constant": true,
      "inputs": [],
      "name": "feeAccount",
      "outputs": [
        {
          "name": "",
          "type": "address"
        }
      ],
      "payable": false,
      "stateMutability": "view",
      "type": "function"
    },
    {
      "constant": false,
      "inputs": [
        {
          "name": "agent",
          "type": "address"
        },
        {
          "name": "requiredPermissions",
          "type": "bytes32[]"
        }
      ],
      "name": "revokeMultiplePermissions",
      "outputs": [],
      "payable": false,
      "stateMutability": "nonpayable",
      "type": "function"
    },
    {
      "constant": true,
      "inputs": [],
      "name": "symbol",
      "outputs": [
        {
          "name": "",
          "type": "string"
        }
      ],
      "payable": false,
      "stateMutability": "view",
      "type": "function"
    },
    {
      "constant": false,
      "inputs": [
        {
          "name": "agent",
          "type": "address"
        },
        {
          "name": "requiredPermissions",
          "type": "bytes32[]"
        }
      ],
      "name": "grantMultiplePermissions",
      "outputs": [],
      "payable": false,
      "stateMutability": "nonpayable",
      "type": "function"
    },
    {
      "constant": true,
      "inputs": [
        {
          "name": "",
          "type": "bytes32"
        }
      ],
      "name": "delegatedTxHashesUsed",
      "outputs": [
        {
          "name": "",
          "type": "bool"
        }
      ],
      "payable": false,
      "stateMutability": "view",
      "type": "function"
    },
    {
      "constant": false,
      "inputs": [
        {
          "name": "agent",
          "type": "address"
        },
        {
          "name": "requiredPermission",
          "type": "bytes32"
        }
      ],
      "name": "grantPermission",
      "outputs": [],
      "payable": false,
      "stateMutability": "nonpayable",
      "type": "function"
    },
    {
      "inputs": [
        {
          "name": "_name",
          "type": "string"
        },
        {
          "name": "_symbol",
          "type": "string"
        },
        {
          "name": "_peggedSymbol",
          "type": "bytes32"
        },
        {
          "name": "_decimals",
          "type": "uint8"
        },
        {
          "name": "_feeAccount",
          "type": "address"
        }
      ],
      "payable": false,
      "stateMutability": "nonpayable",
      "type": "constructor"
    },
    {
      "anonymous": false,
      "inputs": [
        {
          "indexed": false,
          "name": "newFeeAccount",
          "type": "address"
        }
      ],
      "name": "FeeAccountChanged",
      "type": "event"
    },
    {
      "anonymous": false,
      "inputs": [
        {
          "indexed": false,
          "name": "transferFeePt",
          "type": "uint256"
        },
        {
          "indexed": false,
          "name": "transferFeeMin",
          "type": "uint256"
        },
        {
          "indexed": false,
          "name": "transferFeeMax",
          "type": "uint256"
        }
      ],
      "name": "TransferFeesChanged",
      "type": "event"
    },
    {
      "anonymous": false,
      "inputs": [
        {
          "indexed": true,
          "name": "from",
          "type": "address"
        },
        {
          "indexed": true,
          "name": "to",
          "type": "address"
        },
        {
          "indexed": false,
          "name": "amount",
          "type": "uint256"
        }
      ],
      "name": "Transfer",
      "type": "event"
    },
    {
      "anonymous": false,
      "inputs": [
        {
          "indexed": true,
          "name": "from",
          "type": "address"
        },
        {
          "indexed": true,
          "name": "to",
          "type": "address"
        },
        {
          "indexed": false,
          "name": "amount",
          "type": "uint256"
        },
        {
          "indexed": false,
          "name": "narrative",
          "type": "string"
        },
        {
          "indexed": false,
          "name": "fee",
          "type": "uint256"
        }
      ],
      "name": "AugmintTransfer",
      "type": "event"
    },
    {
      "anonymous": false,
      "inputs": [
        {
          "indexed": false,
          "name": "amount",
          "type": "uint256"
        }
      ],
      "name": "TokenIssued",
      "type": "event"
    },
    {
      "anonymous": false,
      "inputs": [
        {
          "indexed": false,
          "name": "amount",
          "type": "uint256"
        }
      ],
      "name": "TokenBurned",
      "type": "event"
    },
    {
      "anonymous": false,
      "inputs": [
        {
          "indexed": true,
          "name": "_owner",
          "type": "address"
        },
        {
          "indexed": true,
          "name": "_spender",
          "type": "address"
        },
        {
          "indexed": false,
          "name": "_value",
          "type": "uint256"
        }
      ],
      "name": "Approval",
      "type": "event"
    },
    {
      "anonymous": false,
      "inputs": [
        {
          "indexed": true,
          "name": "agent",
          "type": "address"
        },
        {
          "indexed": false,
          "name": "grantedPermission",
          "type": "bytes32"
        }
      ],
      "name": "PermissionGranted",
      "type": "event"
    },
    {
      "anonymous": false,
      "inputs": [
        {
          "indexed": true,
          "name": "agent",
          "type": "address"
        },
        {
          "indexed": false,
          "name": "revokedPermission",
          "type": "bytes32"
        }
      ],
      "name": "PermissionRevoked",
      "type": "event"
    },
    {
      "constant": false,
      "inputs": [
        {
          "name": "to",
          "type": "address"
        },
        {
          "name": "amount",
          "type": "uint256"
        }
      ],
      "name": "transfer",
      "outputs": [
        {
          "name": "",
          "type": "bool"
        }
      ],
      "payable": false,
      "stateMutability": "nonpayable",
      "type": "function"
    },
    {
      "constant": false,
      "inputs": [
        {
          "name": "from",
          "type": "address"
        },
        {
          "name": "to",
          "type": "address"
        },
        {
          "name": "amount",
          "type": "uint256"
        },
        {
          "name": "narrative",
          "type": "string"
        },
        {
          "name": "maxExecutorFeeInToken",
          "type": "uint256"
        },
        {
          "name": "nonce",
          "type": "bytes32"
        },
        {
          "name": "signature",
          "type": "bytes"
        },
        {
          "name": "requestedExecutorFeeInToken",
          "type": "uint256"
        }
      ],
      "name": "delegatedTransfer",
      "outputs": [],
      "payable": false,
      "stateMutability": "nonpayable",
      "type": "function"
    },
    {
      "constant": false,
      "inputs": [
        {
          "name": "_spender",
          "type": "address"
        },
        {
          "name": "amount",
          "type": "uint256"
        }
      ],
      "name": "approve",
      "outputs": [
        {
          "name": "",
          "type": "bool"
        }
      ],
      "payable": false,
      "stateMutability": "nonpayable",
      "type": "function"
    },
    {
      "constant": false,
      "inputs": [
        {
          "name": "_spender",
          "type": "address"
        },
        {
          "name": "_addedValue",
          "type": "uint256"
        }
      ],
      "name": "increaseApproval",
      "outputs": [
        {
          "name": "",
          "type": "bool"
        }
      ],
      "payable": false,
      "stateMutability": "nonpayable",
      "type": "function"
    },
    {
      "constant": false,
      "inputs": [
        {
          "name": "_spender",
          "type": "address"
        },
        {
          "name": "_subtractedValue",
          "type": "uint256"
        }
      ],
      "name": "decreaseApproval",
      "outputs": [
        {
          "name": "",
          "type": "bool"
        }
      ],
      "payable": false,
      "stateMutability": "nonpayable",
      "type": "function"
    },
    {
      "constant": false,
      "inputs": [
        {
          "name": "from",
          "type": "address"
        },
        {
          "name": "to",
          "type": "address"
        },
        {
          "name": "amount",
          "type": "uint256"
        }
      ],
      "name": "transferFrom",
      "outputs": [
        {
          "name": "",
          "type": "bool"
        }
      ],
      "payable": false,
      "stateMutability": "nonpayable",
      "type": "function"
    },
    {
      "constant": false,
      "inputs": [
        {
          "name": "to",
          "type": "address"
        },
        {
          "name": "amount",
          "type": "uint256"
        }
      ],
      "name": "issueTo",
      "outputs": [],
      "payable": false,
      "stateMutability": "nonpayable",
      "type": "function"
    },
    {
      "constant": false,
      "inputs": [
        {
          "name": "amount",
          "type": "uint256"
        }
      ],
      "name": "burn",
      "outputs": [],
      "payable": false,
      "stateMutability": "nonpayable",
      "type": "function"
    },
    {
      "constant": false,
      "inputs": [
        {
          "name": "newFeeAccount",
          "type": "address"
        }
      ],
      "name": "setFeeAccount",
      "outputs": [],
      "payable": false,
      "stateMutability": "nonpayable",
      "type": "function"
    },
    {
      "constant": false,
      "inputs": [
        {
          "name": "target",
          "type": "address"
        },
        {
          "name": "amount",
          "type": "uint256"
        },
        {
          "name": "data",
          "type": "uint256"
        }
      ],
      "name": "transferAndNotify",
      "outputs": [],
      "payable": false,
      "stateMutability": "nonpayable",
      "type": "function"
    },
    {
      "constant": false,
      "inputs": [
        {
          "name": "from",
          "type": "address"
        },
        {
          "name": "target",
          "type": "address"
        },
        {
          "name": "amount",
          "type": "uint256"
        },
        {
          "name": "data",
          "type": "uint256"
        },
        {
          "name": "maxExecutorFeeInToken",
          "type": "uint256"
        },
        {
          "name": "nonce",
          "type": "bytes32"
        },
        {
          "name": "signature",
          "type": "bytes"
        },
        {
          "name": "requestedExecutorFeeInToken",
          "type": "uint256"
        }
      ],
      "name": "delegatedTransferAndNotify",
      "outputs": [],
      "payable": false,
      "stateMutability": "nonpayable",
      "type": "function"
    },
    {
      "constant": false,
      "inputs": [
        {
          "name": "to",
          "type": "address"
        },
        {
          "name": "amount",
          "type": "uint256"
        },
        {
          "name": "narrative",
          "type": "string"
        }
      ],
      "name": "transferWithNarrative",
      "outputs": [],
      "payable": false,
      "stateMutability": "nonpayable",
      "type": "function"
    },
    {
      "constant": false,
      "inputs": [
        {
          "name": "from",
          "type": "address"
        },
        {
          "name": "to",
          "type": "address"
        },
        {
          "name": "amount",
          "type": "uint256"
        },
        {
          "name": "narrative",
          "type": "string"
        }
      ],
      "name": "transferFromWithNarrative",
      "outputs": [],
      "payable": false,
      "stateMutability": "nonpayable",
      "type": "function"
    },
    {
      "constant": true,
      "inputs": [
        {
          "name": "_owner",
          "type": "address"
        }
      ],
      "name": "balanceOf",
      "outputs": [
        {
          "name": "balance",
          "type": "uint256"
        }
      ],
      "payable": false,
      "stateMutability": "view",
      "type": "function"
    },
    {
      "constant": true,
      "inputs": [
        {
          "name": "_owner",
          "type": "address"
        },
        {
          "name": "_spender",
          "type": "address"
        }
      ],
      "name": "allowance",
      "outputs": [
        {
          "name": "remaining",
          "type": "uint256"
        }
      ],
      "payable": false,
      "stateMutability": "view",
      "type": "function"
    }
  ],
  "bytecode": "0x60806040523480156200001157600080fd5b5060405162003b0538038062003b05833981018060405281019080805182019291906020018051820192919060200180519060200190929190805190602001909291908051906020019092919050505060016000803373ffffffffffffffffffffffffffffffffffffffff1673ffffffffffffffffffffffffffffffffffffffff16815260200190815260200160002060007f4d6f6e6574617279426f6172640000000000000000000000000000000000000060001916815260200190815260200160002060006101000a81548160ff0219169083151502179055503373ffffffffffffffffffffffffffffffffffffffff167fc65937e3dbcb9fb30f646815dd67a3dbd09ba17718cbcb54efbe3635f8e0a6fe60405180807f4d6f6e6574617279426f61726400000000000000000000000000000000000000815250602001905060405180910390a2600073ffffffffffffffffffffffffffffffffffffffff168173ffffffffffffffffffffffffffffffffffffffff161415151562000201576040517f08c379a00000000000000000000000000000000000000000000000000000000081526004018080602001828103825260168152602001807f6665654163636f756e74206d757374206265207365740000000000000000000081525060200191505060405180910390fd5b600085511115156200027b576040517f08c379a00000000000000000000000000000000000000000000000000000000081526004018080602001828103825260108152602001807f6e616d65206d757374206265207365740000000000000000000000000000000081525060200191505060405180910390fd5b60008451111515620002f5576040517f08c379a00000000000000000000000000000000000000000000000000000000081526004018080602001828103825260128152602001807f73796d626f6c206d75737420626520736574000000000000000000000000000081525060200191505060405180910390fd5b84600190805190602001906200030d92919062000399565b5083600290805190602001906200032692919062000399565b50826003816000191690555081600460006101000a81548160ff021916908360ff16021790555080600860006101000a81548173ffffffffffffffffffffffffffffffffffffffff021916908373ffffffffffffffffffffffffffffffffffffffff160217905550505050505062000448565b828054600181600116156101000203166002900490600052602060002090601f016020900481019282601f10620003dc57805160ff19168380011785556200040d565b828001600101855582156200040d579182015b828111156200040c578251825591602001919060010190620003ef565b5b5090506200041c919062000420565b5090565b6200044591905b808211156200044157600081600090555060010162000427565b5090565b90565b6136ad80620004586000396000f300608060405260043610610175576000357c0100000000000000000000000000000000000000000000000000000000900463ffffffff16806306fdde031461017a578063095ea7b31461020a5780630aa5aa2d1461026f5780631207f0c1146102c657806318160ddd1461031357806323b872dd1461033e57806327e235e3146103c3578063313ce5671461041a57806333a263e61461044b57806342966c681461047e5780634b023cf8146104ab5780635b225526146104ee5780635c658165146105575780635fe07013146105ce57806365e17c9d1461061f578063661884631461067657806370a08231146106db57806376587921146107325780637ea46993146107b757806395d89b411461083d5780639ac3317b146108cd578063a9059cbb14610953578063b7c5b181146109b8578063c6cd712d14610a77578063d73dd62314610b28578063dd62ed3e14610b8d578063f109517c14610c04578063f38a826214610c4d578063ffdcf09514610c9e575b600080fd5b34801561018657600080fd5b5061018f610d03565b6040518080602001828103825283818151815260200191508051906020019080838360005b838110156101cf5780820151818401526020810190506101b4565b50505050905090810190601f1680156101fc5780820380516001836020036101000a031916815260200191505b509250505060405180910390f35b34801561021657600080fd5b50610255600480360381019080803573ffffffffffffffffffffffffffffffffffffffff16906020019092919080359060200190929190505050610da1565b604051808215151515815260200191505060405180910390f35b34801561027b57600080fd5b506102c4600480360381019080803573ffffffffffffffffffffffffffffffffffffffff1690602001909291908035906020019092919080359060200190929190505050610f21565b005b3480156102d257600080fd5b50610311600480360381019080803573ffffffffffffffffffffffffffffffffffffffff16906020019092919080359060200190929190505050611005565b005b34801561031f57600080fd5b50610328611271565b6040518082815260200191505060405180910390f35b34801561034a57600080fd5b506103a9600480360381019080803573ffffffffffffffffffffffffffffffffffffffff169060200190929190803573ffffffffffffffffffffffffffffffffffffffff16906020019092919080359060200190929190505050611277565b604051808215151515815260200191505060405180910390f35b3480156103cf57600080fd5b50610404600480360381019080803573ffffffffffffffffffffffffffffffffffffffff1690602001909291905050506112a0565b6040518082815260200191505060405180910390f35b34801561042657600080fd5b5061042f6112b8565b604051808260ff1660ff16815260200191505060405180910390f35b34801561045757600080fd5b506104606112cb565b60405180826000191660001916815260200191505060405180910390f35b34801561048a57600080fd5b506104a9600480360381019080803590602001909291905050506112d1565b005b3480156104b757600080fd5b506104ec600480360381019080803573ffffffffffffffffffffffffffffffffffffffff1690602001909291905050506114f8565b005b3480156104fa57600080fd5b5061053d600480360381019080803573ffffffffffffffffffffffffffffffffffffffff169060200190929190803560001916906020019092919050505061169a565b604051808215151515815260200191505060405180910390f35b34801561056357600080fd5b506105b8600480360381019080803573ffffffffffffffffffffffffffffffffffffffff169060200190929190803573ffffffffffffffffffffffffffffffffffffffff1690602001909291905050506116c9565b6040518082815260200191505060405180910390f35b3480156105da57600080fd5b5061061d600480360381019080803573ffffffffffffffffffffffffffffffffffffffff16906020019092919080356000191690602001909291905050506116ee565b005b34801561062b57600080fd5b506106346118d3565b604051808273ffffffffffffffffffffffffffffffffffffffff1673ffffffffffffffffffffffffffffffffffffffff16815260200191505060405180910390f35b34801561068257600080fd5b506106c1600480360381019080803573ffffffffffffffffffffffffffffffffffffffff169060200190929190803590602001909291905050506118f9565b604051808215151515815260200191505060405180910390f35b3480156106e757600080fd5b5061071c600480360381019080803573ffffffffffffffffffffffffffffffffffffffff169060200190929190505050611b8a565b6040518082815260200191505060405180910390f35b34801561073e57600080fd5b506107b5600480360381019080803573ffffffffffffffffffffffffffffffffffffffff169060200190929190803573ffffffffffffffffffffffffffffffffffffffff16906020019092919080359060200190929190803590602001908201803590602001919091929391929390505050611bd3565b005b3480156107c357600080fd5b5061083b600480360381019080803573ffffffffffffffffffffffffffffffffffffffff16906020019092919080359060200190820180359060200190808060200260200160405190810160405280939291908181526020018383602002808284378201915050505050509192919290505050611c18565b005b34801561084957600080fd5b50610852611c60565b6040518080602001828103825283818151815260200191508051906020019080838360005b83811015610892578082015181840152602081019050610877565b50505050905090810190601f1680156108bf5780820380516001836020036101000a031916815260200191505b509250505060405180910390f35b3480156108d957600080fd5b50610951600480360381019080803573ffffffffffffffffffffffffffffffffffffffff16906020019092919080359060200190820180359060200190808060200260200160405190810160405280939291908181526020018383602002808284378201915050505050509192919290505050611cfe565b005b34801561095f57600080fd5b5061099e600480360381019080803573ffffffffffffffffffffffffffffffffffffffff16906020019092919080359060200190929190505050611e61565b604051808215151515815260200191505060405180910390f35b3480156109c457600080fd5b50610a75600480360381019080803573ffffffffffffffffffffffffffffffffffffffff169060200190929190803573ffffffffffffffffffffffffffffffffffffffff1690602001909291908035906020019092919080359060200190820180359060200191909192939192939080359060200190929190803560001916906020019092919080359060200190820180359060200191909192939192939080359060200190929190505050611e89565b005b348015610a8357600080fd5b50610b26600480360381019080803573ffffffffffffffffffffffffffffffffffffffff169060200190929190803573ffffffffffffffffffffffffffffffffffffffff16906020019092919080359060200190929190803590602001909291908035906020019092919080356000191690602001909291908035906020019082018035906020019190919293919293908035906020019092919050505061201d565b005b348015610b3457600080fd5b50610b73600480360381019080803573ffffffffffffffffffffffffffffffffffffffff1690602001909291908035906020019092919050505061224a565b604051808215151515815260200191505060405180910390f35b348015610b9957600080fd5b50610bee600480360381019080803573ffffffffffffffffffffffffffffffffffffffff169060200190929190803573ffffffffffffffffffffffffffffffffffffffff16906020019092919050505061225f565b6040518082815260200191505060405180910390f35b348015610c1057600080fd5b50610c3360048036038101908080356000191690602001909291905050506122e6565b604051808215151515815260200191505060405180910390f35b348015610c5957600080fd5b50610c9c600480360381019080803573ffffffffffffffffffffffffffffffffffffffff1690602001909291908035600019169060200190929190505050612306565b005b348015610caa57600080fd5b50610d01600480360381019080803573ffffffffffffffffffffffffffffffffffffffff169060200190929190803590602001909291908035906020019082018035906020019190919293919293905050506124eb565b005b60018054600181600116156101000203166002900480601f016020809104026020016040519081016040528092919081815260200182805460018160011615610100020316600290048015610d995780601f10610d6e57610100808354040283529160200191610d99565b820191906000526020600020905b815481529060010190602001808311610d7c57829003601f168201915b505050505081565b6000808373ffffffffffffffffffffffffffffffffffffffff1614151515610e31576040517f08c379a00000000000000000000000000000000000000000000000000000000081526004018080602001828103825260138152602001807f7370656e646572206d757374206265207365740000000000000000000000000081525060200191505060405180910390fd5b81600760003373ffffffffffffffffffffffffffffffffffffffff1673ffffffffffffffffffffffffffffffffffffffff16815260200190815260200160002060008573ffffffffffffffffffffffffffffffffffffffff1673ffffffffffffffffffffffffffffffffffffffff168152602001908152602001600020819055508273ffffffffffffffffffffffffffffffffffffffff163373ffffffffffffffffffffffffffffffffffffffff167f8c5be1e5ebec7d5bd14f71427d1e84f3dd0314c0f7b2291e5b200ac8c7c3b925846040518082815260200191505060405180910390a36001905092915050565b610f3d338484602060405190810160405280600081525061252f565b8273ffffffffffffffffffffffffffffffffffffffff166364e7e4a43384846040518463ffffffff167c0100000000000000000000000000000000000000000000000000000000028152600401808473ffffffffffffffffffffffffffffffffffffffff1673ffffffffffffffffffffffffffffffffffffffff1681526020018381526020018281526020019350505050600060405180830381600087803b158015610fe857600080fd5b505af1158015610ffc573d6000803e3d6000fd5b50505050505050565b7f4d6f6e657461727953757065727669736f72436f6e74726163740000000000006000803373ffffffffffffffffffffffffffffffffffffffff1673ffffffffffffffffffffffffffffffffffffffff1681526020019081526020016000206000826000191660001916815260200190815260200160002060009054906101000a900460ff1615156110ff576040517f08c379a000000000000000000000000000000000000000000000000000000000815260040180806020018281038252601f8152602001807f6d73672e73656e646572206d7573742068617665207065726d697373696f6e0081525060200191505060405180910390fd5b61115182600660008673ffffffffffffffffffffffffffffffffffffffff1673ffffffffffffffffffffffffffffffffffffffff1681526020019081526020016000205461267b90919063ffffffff16565b600660008573ffffffffffffffffffffffffffffffffffffffff1673ffffffffffffffffffffffffffffffffffffffff168152602001908152602001600020819055506111a98260055461267b90919063ffffffff16565b6005819055508273ffffffffffffffffffffffffffffffffffffffff1660007fddf252ad1be2c89b69c2b068fc378daa952ba7f163c4a11628f55a4df523b3ef846040518082815260200191505060405180910390a38273ffffffffffffffffffffffffffffffffffffffff1660007f3c37a37469220e9bdcb1e8083efdcac8373f1448f59b5c4b23ebe3a0723642b28460006040518083815260200180602001838152602001828103825260008152602001602001935050505060405180910390a3505050565b60055481565b60006112958484846020604051908101604052806000815250612705565b600190509392505050565b60066020528060005260406000206000915090505481565b600460009054906101000a900460ff1681565b60035481565b80600660003373ffffffffffffffffffffffffffffffffffffffff1673ffffffffffffffffffffffffffffffffffffffff1681526020019081526020016000205410151515611388576040517f08c379a00000000000000000000000000000000000000000000000000000000081526004018080602001828103825260198152602001807f62616c616e6365206d757374206265203e3d20616d6f756e740000000000000081525060200191505060405180910390fd5b6113da81600660003373ffffffffffffffffffffffffffffffffffffffff1673ffffffffffffffffffffffffffffffffffffffff16815260200190815260200160002054612aeb90919063ffffffff16565b600660003373ffffffffffffffffffffffffffffffffffffffff1673ffffffffffffffffffffffffffffffffffffffff1681526020019081526020016000208190555061143281600554612aeb90919063ffffffff16565b60058190555060003373ffffffffffffffffffffffffffffffffffffffff167fddf252ad1be2c89b69c2b068fc378daa952ba7f163c4a11628f55a4df523b3ef836040518082815260200191505060405180910390a360003373ffffffffffffffffffffffffffffffffffffffff167f3c37a37469220e9bdcb1e8083efdcac8373f1448f59b5c4b23ebe3a0723642b28360006040518083815260200180602001838152602001828103825260008152602001602001935050505060405180910390a350565b7f4d6f6e6574617279426f617264000000000000000000000000000000000000006000803373ffffffffffffffffffffffffffffffffffffffff1673ffffffffffffffffffffffffffffffffffffffff1681526020019081526020016000206000826000191660001916815260200190815260200160002060009054906101000a900460ff1615156115f2576040517f08c379a000000000000000000000000000000000000000000000000000000000815260040180806020018281038252601f8152602001807f6d73672e73656e646572206d7573742068617665207065726d697373696f6e0081525060200191505060405180910390fd5b81600860006101000a81548173ffffffffffffffffffffffffffffffffffffffff021916908373ffffffffffffffffffffffffffffffffffffffff1602179055507fd8e0fa374632fb086d7fd67c39a519ef8edb881e57f4bcfb73792193b07178fc82604051808273ffffffffffffffffffffffffffffffffffffffff1673ffffffffffffffffffffffffffffffffffffffff16815260200191505060405180910390a15050565b60006020528160005260406000206020528060005260406000206000915091509054906101000a900460ff1681565b6007602052816000526040600020602052806000526040600020600091509150505481565b6000803373ffffffffffffffffffffffffffffffffffffffff1673ffffffffffffffffffffffffffffffffffffffff16815260200190815260200160002060007f4d6f6e6574617279426f6172640000000000000000000000000000000000000060001916815260200190815260200160002060009054906101000a900460ff161515611809576040517f08c379a000000000000000000000000000000000000000000000000000000000815260040180806020018281038252602d8152602001807f6d73672e73656e646572206d7573742068617665204d6f6e6574617279426f6181526020017f7264207065726d697373696f6e0000000000000000000000000000000000000081525060400191505060405180910390fd5b60008060008473ffffffffffffffffffffffffffffffffffffffff1673ffffffffffffffffffffffffffffffffffffffff1681526020019081526020016000206000836000191660001916815260200190815260200160002060006101000a81548160ff0219169083151502179055508173ffffffffffffffffffffffffffffffffffffffff167f789770131846de4d1f28418f0f957cdf4fcabe5eccf70067083e20ecece69a348260405180826000191660001916815260200191505060405180910390a25050565b600860009054906101000a900473ffffffffffffffffffffffffffffffffffffffff1681565b600080600760003373ffffffffffffffffffffffffffffffffffffffff1673ffffffffffffffffffffffffffffffffffffffff16815260200190815260200160002060008573ffffffffffffffffffffffffffffffffffffffff1673ffffffffffffffffffffffffffffffffffffffff16815260200190815260200160002054905080831115611a0a576000600760003373ffffffffffffffffffffffffffffffffffffffff1673ffffffffffffffffffffffffffffffffffffffff16815260200190815260200160002060008673ffffffffffffffffffffffffffffffffffffffff1673ffffffffffffffffffffffffffffffffffffffff16815260200190815260200160002081905550611a9e565b611a1d8382612aeb90919063ffffffff16565b600760003373ffffffffffffffffffffffffffffffffffffffff1673ffffffffffffffffffffffffffffffffffffffff16815260200190815260200160002060008673ffffffffffffffffffffffffffffffffffffffff1673ffffffffffffffffffffffffffffffffffffffff168152602001908152602001600020819055505b8373ffffffffffffffffffffffffffffffffffffffff163373ffffffffffffffffffffffffffffffffffffffff167f8c5be1e5ebec7d5bd14f71427d1e84f3dd0314c0f7b2291e5b200ac8c7c3b925600760003373ffffffffffffffffffffffffffffffffffffffff1673ffffffffffffffffffffffffffffffffffffffff16815260200190815260200160002060008873ffffffffffffffffffffffffffffffffffffffff1673ffffffffffffffffffffffffffffffffffffffff168152602001908152602001600020546040518082815260200191505060405180910390a3600191505092915050565b6000600660008373ffffffffffffffffffffffffffffffffffffffff1673ffffffffffffffffffffffffffffffffffffffff168152602001908152602001600020549050919050565b611c1185858585858080601f016020809104026020016040519081016040528093929190818152602001838380828437820191505050505050612705565b5050505050565b60008082519150600090505b81811015611c5a57611c4d848483815181101515611c3e57fe5b906020019060200201516116ee565b8080600101915050611c24565b50505050565b60028054600181600116156101000203166002900480601f016020809104026020016040519081016040528092919081815260200182805460018160011615610100020316600290048015611cf65780601f10611ccb57610100808354040283529160200191611cf6565b820191906000526020600020905b815481529060010190602001808311611cd957829003601f168201915b505050505081565b6000806000803373ffffffffffffffffffffffffffffffffffffffff1673ffffffffffffffffffffffffffffffffffffffff16815260200190815260200160002060007f4d6f6e6574617279426f6172640000000000000000000000000000000000000060001916815260200190815260200160002060009054906101000a900460ff161515611e1c576040517f08c379a000000000000000000000000000000000000000000000000000000000815260040180806020018281038252602d8152602001807f6d73672e73656e646572206d7573742068617665204d6f6e6574617279426f6181526020017f7264207065726d697373696f6e0000000000000000000000000000000000000081525060400191505060405180910390fd5b82519150600090505b81811015611e5b57611e4e848483815181101515611e3f57fe5b90602001906020020151612306565b8080600101915050611e25565b50505050565b6000611e7f338484602060405190810160405280600081525061252f565b6001905092915050565b6000308b8b8b8b8b8b8b604051808973ffffffffffffffffffffffffffffffffffffffff1673ffffffffffffffffffffffffffffffffffffffff166c010000000000000000000000000281526014018873ffffffffffffffffffffffffffffffffffffffff1673ffffffffffffffffffffffffffffffffffffffff166c010000000000000000000000000281526014018773ffffffffffffffffffffffffffffffffffffffff1673ffffffffffffffffffffffffffffffffffffffff166c01000000000000000000000000028152601401868152602001858580828437820191505083815260200182600019166000191681526020019850505050505050505060405180910390209050611fd28185858080601f0160208091040260200160405190810160405280939291908181526020018383808284378201915050505050508d8986612b70565b6120108b8b8b8b8b8080601f01602080910402602001604051908101604052809392919081815260200183838082843782019150505050505061252f565b5050505050505050505050565b6000308a8a8a8a8a8a604051808873ffffffffffffffffffffffffffffffffffffffff1673ffffffffffffffffffffffffffffffffffffffff166c010000000000000000000000000281526014018773ffffffffffffffffffffffffffffffffffffffff1673ffffffffffffffffffffffffffffffffffffffff166c010000000000000000000000000281526014018673ffffffffffffffffffffffffffffffffffffffff1673ffffffffffffffffffffffffffffffffffffffff166c0100000000000000000000000002815260140185815260200184815260200183815260200182600019166000191681526020019750505050505050506040518091039020905061215f8185858080601f0160208091040260200160405190810160405280939291908181526020018383808284378201915050505050508c8986612b70565b61217b8a8a8a602060405190810160405280600081525061252f565b8873ffffffffffffffffffffffffffffffffffffffff166364e7e4a48b8a8a6040518463ffffffff167c0100000000000000000000000000000000000000000000000000000000028152600401808473ffffffffffffffffffffffffffffffffffffffff1673ffffffffffffffffffffffffffffffffffffffff1681526020018381526020018281526020019350505050600060405180830381600087803b15801561222657600080fd5b505af115801561223a573d6000803e3d6000fd5b5050505050505050505050505050565b6000612257338484612de4565b905092915050565b6000600760008473ffffffffffffffffffffffffffffffffffffffff1673ffffffffffffffffffffffffffffffffffffffff16815260200190815260200160002060008373ffffffffffffffffffffffffffffffffffffffff1673ffffffffffffffffffffffffffffffffffffffff16815260200190815260200160002054905092915050565b60096020528060005260406000206000915054906101000a900460ff1681565b6000803373ffffffffffffffffffffffffffffffffffffffff1673ffffffffffffffffffffffffffffffffffffffff16815260200190815260200160002060007f4d6f6e6574617279426f6172640000000000000000000000000000000000000060001916815260200190815260200160002060009054906101000a900460ff161515612421576040517f08c379a000000000000000000000000000000000000000000000000000000000815260040180806020018281038252602d8152602001807f6d73672e73656e646572206d7573742068617665204d6f6e6574617279426f6181526020017f7264207065726d697373696f6e0000000000000000000000000000000000000081525060400191505060405180910390fd5b60016000808473ffffffffffffffffffffffffffffffffffffffff1673ffffffffffffffffffffffffffffffffffffffff1681526020019081526020016000206000836000191660001916815260200190815260200160002060006101000a81548160ff0219169083151502179055508173ffffffffffffffffffffffffffffffffffffffff167fc65937e3dbcb9fb30f646815dd67a3dbd09ba17718cbcb54efbe3635f8e0a6fe8260405180826000191660001916815260200191505060405180910390a25050565b61252933858585858080601f01602080910402602001604051908101604052809392919081815260200183838082843782019150505050505061252f565b50505050565b6000600860009054906101000a900473ffffffffffffffffffffffffffffffffffffffff1673ffffffffffffffffffffffffffffffffffffffff16634d3d14f28686866040518463ffffffff167c0100000000000000000000000000000000000000000000000000000000028152600401808473ffffffffffffffffffffffffffffffffffffffff1673ffffffffffffffffffffffffffffffffffffffff1681526020018373ffffffffffffffffffffffffffffffffffffffff1673ffffffffffffffffffffffffffffffffffffffff1681526020018281526020019350505050602060405180830381600087803b15801561262a57600080fd5b505af115801561263e573d6000803e3d6000fd5b505050506040513d602081101561265457600080fd5b810190808051906020019092919050505090506126748585858585612fdd565b5050505050565b60008082840190508381101515156126fb576040517f08c379a000000000000000000000000000000000000000000000000000000000815260040180806020018281038252600c8152602001807f616464206f766572666c6f77000000000000000000000000000000000000000081525060200191505060405180910390fd5b8091505092915050565b81600660008673ffffffffffffffffffffffffffffffffffffffff1673ffffffffffffffffffffffffffffffffffffffff16815260200190815260200160002054101515156127bc576040517f08c379a00000000000000000000000000000000000000000000000000000000081526004018080602001828103825260168152602001807f62616c616e6365206d757374203e3d20616d6f756e740000000000000000000081525060200191505060405180910390fd5b81600760008673ffffffffffffffffffffffffffffffffffffffff1673ffffffffffffffffffffffffffffffffffffffff16815260200190815260200160002060003373ffffffffffffffffffffffffffffffffffffffff1673ffffffffffffffffffffffffffffffffffffffff16815260200190815260200160002054101515156128b0576040517f08c379a000000000000000000000000000000000000000000000000000000000815260040180806020018281038252601b8152602001807f616c6c6f77616e6365206d757374206265203e3d20616d6f756e74000000000081525060200191505060405180910390fd5b6000600760008673ffffffffffffffffffffffffffffffffffffffff1673ffffffffffffffffffffffffffffffffffffffff16815260200190815260200160002060003373ffffffffffffffffffffffffffffffffffffffff1673ffffffffffffffffffffffffffffffffffffffff168152602001908152602001600020541115156129ca576040517f08c379a00000000000000000000000000000000000000000000000000000000081526004018080602001828103825260298152602001807f616c6c6f77616e6365206d757374206265203e3d2030206576656e207769746881526020017f203020616d6f756e74000000000000000000000000000000000000000000000081525060400191505060405180910390fd5b6129d68484848461252f565b612a6582600760008773ffffffffffffffffffffffffffffffffffffffff1673ffffffffffffffffffffffffffffffffffffffff16815260200190815260200160002060003373ffffffffffffffffffffffffffffffffffffffff1673ffffffffffffffffffffffffffffffffffffffff16815260200190815260200160002054612aeb90919063ffffffff16565b600760008673ffffffffffffffffffffffffffffffffffffffff1673ffffffffffffffffffffffffffffffffffffffff16815260200190815260200160002060003373ffffffffffffffffffffffffffffffffffffffff1673ffffffffffffffffffffffffffffffffffffffff1681526020019081526020016000208190555050505050565b6000828211151515612b65576040517f08c379a000000000000000000000000000000000000000000000000000000000815260040180806020018281038252600d8152602001807f73756220756e646572666c6f770000000000000000000000000000000000000081525060200191505060405180910390fd5b818303905092915050565b6000828211151515612c10576040517f08c379a000000000000000000000000000000000000000000000000000000000815260040180806020018281038252602e8152602001807f7265717565737465644578656375746f72466565206d757374206265203c3d2081526020017f6d61784578656375746f7246656500000000000000000000000000000000000081525060400191505060405180910390fd5b60096000876000191660001916815260200190815260200160002060009054906101000a900460ff16151515612cae576040517f08c379a00000000000000000000000000000000000000000000000000000000081526004018080602001828103825260138152602001807f74784861736820616c726561647920757365640000000000000000000000000081525060200191505060405180910390fd5b600160096000886000191660001916815260200190815260200160002060006101000a81548160ff021916908315150217905550612cf4612cee8761353a565b86613589565b90508373ffffffffffffffffffffffffffffffffffffffff168173ffffffffffffffffffffffffffffffffffffffff16141515612d99576040517f08c379a00000000000000000000000000000000000000000000000000000000081526004018080602001828103825260118152602001807f696e76616c6964207369676e617475726500000000000000000000000000000081525060200191505060405180910390fd5b612ddc8433846040805190810160405280601681526020017f44656c656761746564207472616e7366657220666565000000000000000000008152506000612fdd565b505050505050565b6000612e7582600760008773ffffffffffffffffffffffffffffffffffffffff1673ffffffffffffffffffffffffffffffffffffffff16815260200190815260200160002060008673ffffffffffffffffffffffffffffffffffffffff1673ffffffffffffffffffffffffffffffffffffffff1681526020019081526020016000205461267b90919063ffffffff16565b600760008673ffffffffffffffffffffffffffffffffffffffff1673ffffffffffffffffffffffffffffffffffffffff16815260200190815260200160002060008573ffffffffffffffffffffffffffffffffffffffff1673ffffffffffffffffffffffffffffffffffffffff168152602001908152602001600020819055508273ffffffffffffffffffffffffffffffffffffffff168473ffffffffffffffffffffffffffffffffffffffff167f8c5be1e5ebec7d5bd14f71427d1e84f3dd0314c0f7b2291e5b200ac8c7c3b925600760008873ffffffffffffffffffffffffffffffffffffffff1673ffffffffffffffffffffffffffffffffffffffff16815260200190815260200160002060008773ffffffffffffffffffffffffffffffffffffffff1673ffffffffffffffffffffffffffffffffffffffff168152602001908152602001600020546040518082815260200191505060405180910390a39392505050565b6000808573ffffffffffffffffffffffffffffffffffffffff161415151561306d576040517f08c379a000000000000000000000000000000000000000000000000000000000815260040180806020018281038252600e8152602001807f746f206d7573742062652073657400000000000000000000000000000000000081525060200191505060405180910390fd5b613080828561267b90919063ffffffff16565b905080600660008873ffffffffffffffffffffffffffffffffffffffff1673ffffffffffffffffffffffffffffffffffffffff168152602001908152602001600020541015151561315f576040517f08c379a00000000000000000000000000000000000000000000000000000000081526004018080602001828103825260288152602001807f62616c616e6365206d757374206265203e3d20616d6f756e74202b207472616e81526020017f736665722066656500000000000000000000000000000000000000000000000081525060400191505060405180910390fd5b60008211156132c9576131dc8260066000600860009054906101000a900473ffffffffffffffffffffffffffffffffffffffff1673ffffffffffffffffffffffffffffffffffffffff1673ffffffffffffffffffffffffffffffffffffffff1681526020019081526020016000205461267b90919063ffffffff16565b60066000600860009054906101000a900473ffffffffffffffffffffffffffffffffffffffff1673ffffffffffffffffffffffffffffffffffffffff1673ffffffffffffffffffffffffffffffffffffffff16815260200190815260200160002081905550600860009054906101000a900473ffffffffffffffffffffffffffffffffffffffff1673ffffffffffffffffffffffffffffffffffffffff168673ffffffffffffffffffffffffffffffffffffffff167fddf252ad1be2c89b69c2b068fc378daa952ba7f163c4a11628f55a4df523b3ef846040518082815260200191505060405180910390a35b61331b81600660008973ffffffffffffffffffffffffffffffffffffffff1673ffffffffffffffffffffffffffffffffffffffff16815260200190815260200160002054612aeb90919063ffffffff16565b600660008873ffffffffffffffffffffffffffffffffffffffff1673ffffffffffffffffffffffffffffffffffffffff168152602001908152602001600020819055506133b084600660008873ffffffffffffffffffffffffffffffffffffffff1673ffffffffffffffffffffffffffffffffffffffff1681526020019081526020016000205461267b90919063ffffffff16565b600660008773ffffffffffffffffffffffffffffffffffffffff1673ffffffffffffffffffffffffffffffffffffffff168152602001908152602001600020819055508473ffffffffffffffffffffffffffffffffffffffff168673ffffffffffffffffffffffffffffffffffffffff167fddf252ad1be2c89b69c2b068fc378daa952ba7f163c4a11628f55a4df523b3ef866040518082815260200191505060405180910390a38473ffffffffffffffffffffffffffffffffffffffff168673ffffffffffffffffffffffffffffffffffffffff167f3c37a37469220e9bdcb1e8083efdcac8373f1448f59b5c4b23ebe3a0723642b28686866040518084815260200180602001838152602001828103825284818151815260200191508051906020019080838360005b838110156134f65780820151818401526020810190506134db565b50505050905090810190601f1680156135235780820380516001836020036101000a031916815260200191505b5094505050505060405180910390a3505050505050565b60008160405180807f19457468657265756d205369676e6564204d6573736167653a0a333200000000815250601c01826000191660001916815260200191505060405180910390209050919050565b600080600080604185511415156135a35760009350613678565b6020850151925060408501519150606085015160001a9050601b8160ff1610156135ce57601b810190505b601b8160ff16141580156135e65750601c8160ff1614155b156135f45760009350613678565b600186828585604051600081526020016040526040518085600019166000191681526020018460ff1660ff1681526020018360001916600019168152602001826000191660001916815260200194505050505060206040516020810390808403906000865af115801561366b573d6000803e3d6000fd5b5050506020604051035193505b505050929150505600a165627a7a72305820e23fa9e7af7587cce6ab243db3d34d310472008a8d6d0c33f44901023ea843d20029",
  "source": "/* Generic Augmint Token implementation (ERC20 token)\n    This contract manages:\n        * Balances of Augmint holders and transactions between them\n        * Issues/burns tokens\n\n    TODO:\n        - reconsider delegatedTransfer and how to structure it\n        - shall we allow change of txDelegator?\n        - consider generic bytes arg instead of uint for transferAndNotify\n        - consider separate transfer fee params and calculation to separate contract (to feeAccount?)\n*/\npragma solidity ^0.4.23;\nimport \"../interfaces/AugmintTokenInterface.sol\";\nimport \"./ECRecovery.sol\";\nimport \"../interfaces/TransferFeeInterface.sol\";\n\n\ncontract AugmintToken is AugmintTokenInterface {\n\n    event FeeAccountChanged(TransferFeeInterface newFeeAccount);\n\n    constructor(string _name, string _symbol, bytes32 _peggedSymbol, uint8 _decimals, TransferFeeInterface _feeAccount)\n    public {\n        require(_feeAccount != address(0), \"feeAccount must be set\");\n        require(bytes(_name).length > 0, \"name must be set\");\n        require(bytes(_symbol).length > 0, \"symbol must be set\");\n\n        name = _name;\n        symbol = _symbol;\n        peggedSymbol = _peggedSymbol;\n        decimals = _decimals;\n\n        feeAccount = _feeAccount;\n\n    }\n    function transfer(address to, uint256 amount) external returns (bool) {\n        _transfer(msg.sender, to, amount, \"\");\n        return true;\n    }\n\n    /* Transfers based on an offline signed transfer instruction. */\n    function delegatedTransfer(address from, address to, uint amount, string narrative,\n                                     uint maxExecutorFeeInToken, /* client provided max fee for executing the tx */\n                                     bytes32 nonce, /* random nonce generated by client */\n                                     /* ^^^^ end of signed data ^^^^ */\n                                     bytes signature,\n                                     uint requestedExecutorFeeInToken /* the executor can decide to request lower fee */\n                                     )\n    external {\n        bytes32 txHash = keccak256(this, from, to, amount, narrative, maxExecutorFeeInToken, nonce);\n\n        _checkHashAndTransferExecutorFee(txHash, signature, from, maxExecutorFeeInToken, requestedExecutorFeeInToken);\n\n        _transfer(from, to, amount, narrative);\n    }\n\n    function approve(address _spender, uint256 amount) external returns (bool) {\n        require(_spender != 0x0, \"spender must be set\");\n        allowed[msg.sender][_spender] = amount;\n        emit Approval(msg.sender, _spender, amount);\n        return true;\n    }\n\n    /**\n     ERC20 transferFrom attack protection: https://github.com/DecentLabs/dcm-poc/issues/57\n     approve should be called when allowed[_spender] == 0. To increment allowed value is better\n     to use this function to avoid 2 calls (and wait until the first transaction is mined)\n     Based on MonolithDAO Token.sol */\n    function increaseApproval(address _spender, uint _addedValue) external returns (bool) {\n        return _increaseApproval(msg.sender, _spender, _addedValue);\n    }\n\n    function decreaseApproval(address _spender, uint _subtractedValue) external returns (bool) {\n        uint oldValue = allowed[msg.sender][_spender];\n        if (_subtractedValue > oldValue) {\n            allowed[msg.sender][_spender] = 0;\n        } else {\n            allowed[msg.sender][_spender] = oldValue.sub(_subtractedValue);\n        }\n        emit Approval(msg.sender, _spender, allowed[msg.sender][_spender]);\n        return true;\n    }\n\n    function transferFrom(address from, address to, uint256 amount) external returns (bool) {\n        _transferFrom(from, to, amount, \"\");\n        return true;\n    }\n\n    // Issue tokens. See MonetarySupervisor but as a rule of thumb issueTo is only allowed:\n    //      - on new loan (by trusted Lender contracts)\n    //      - when converting old tokens using MonetarySupervisor\n    //      - strictly to reserve by MonetaryBoard (via MonetarySupervisor)\n    function issueTo(address to, uint amount) external restrict(\"MonetarySupervisorContract\") {\n        balances[to] = balances[to].add(amount);\n        totalSupply = totalSupply.add(amount);\n        emit Transfer(0x0, to, amount);\n        emit AugmintTransfer(0x0, to, amount, \"\", 0);\n    }\n\n    // Burn tokens. Anyone can burn from its own account. YOLO.\n    // Used by to burn from Augmint reserve or by Lender contract after loan repayment\n    function burn(uint amount) external {\n        require(balances[msg.sender] >= amount, \"balance must be >= amount\");\n        balances[msg.sender] = balances[msg.sender].sub(amount);\n        totalSupply = totalSupply.sub(amount);\n        emit Transfer(msg.sender, 0x0, amount);\n        emit AugmintTransfer(msg.sender, 0x0, amount, \"\", 0);\n    }\n\n    /* to upgrade feeAccount (eg. for fee calculation changes) */\n    function setFeeAccount(TransferFeeInterface newFeeAccount) external restrict(\"MonetaryBoard\") {\n        feeAccount = newFeeAccount;\n        emit FeeAccountChanged(newFeeAccount);\n    }\n\n    /*  transferAndNotify can be used by contracts which require tokens to have only 1 tx (instead of approve + call)\n        Eg. repay loan, lock funds, token sell order on exchange\n        Reverts on failue:\n            - transfer fails\n            - if transferNotification fails (callee must revert on failure)\n            - if targetContract is an account or targetContract doesn't have neither transferNotification or fallback fx\n        TODO: make data param generic bytes (see receiver code attempt in Locker.transferNotification)\n    */\n    function transferAndNotify(TokenReceiver target, uint amount, uint data) external {\n        _transfer(msg.sender, target, amount, \"\");\n\n        target.transferNotification(msg.sender, amount, data);\n    }\n\n    /* transferAndNotify based on an  instruction signed offline  */\n    function delegatedTransferAndNotify(address from, TokenReceiver target, uint amount, uint data,\n                                     uint maxExecutorFeeInToken, /* client provided max fee for executing the tx */\n                                     bytes32 nonce, /* random nonce generated by client */\n                                     /* ^^^^ end of signed data ^^^^ */\n                                     bytes signature,\n                                     uint requestedExecutorFeeInToken /* the executor can decide to request lower fee */\n                                     )\n    external {\n        bytes32 txHash = keccak256(this, from, target, amount, data, maxExecutorFeeInToken, nonce);\n\n        _checkHashAndTransferExecutorFee(txHash, signature, from, maxExecutorFeeInToken, requestedExecutorFeeInToken);\n\n        _transfer(from, target, amount, \"\");\n        target.transferNotification(from, amount, data);\n    }\n\n\n    function transferWithNarrative(address to, uint256 amount, string narrative) external {\n        _transfer(msg.sender, to, amount, narrative);\n    }\n\n    function transferFromWithNarrative(address from, address to, uint256 amount, string narrative) external {\n        _transferFrom(from, to, amount, narrative);\n    }\n\n    function balanceOf(address _owner) external view returns (uint256 balance) {\n        return balances[_owner];\n    }\n\n    function allowance(address _owner, address _spender) external view returns (uint256 remaining) {\n        return allowed[_owner][_spender];\n    }\n\n    function _checkHashAndTransferExecutorFee(bytes32 txHash, bytes signature, address signer,\n                                                uint maxExecutorFeeInToken, uint requestedExecutorFeeInToken) private {\n        require(requestedExecutorFeeInToken <= maxExecutorFeeInToken, \"requestedExecutorFee must be <= maxExecutorFee\");\n        require(!delegatedTxHashesUsed[txHash], \"txHash already used\");\n        delegatedTxHashesUsed[txHash] = true;\n\n        address recovered = ECRecovery.recover(ECRecovery.toEthSignedMessageHash(txHash), signature);\n        require(recovered == signer, \"invalid signature\");\n\n        _transfer(signer, msg.sender, requestedExecutorFeeInToken, \"Delegated transfer fee\", 0);\n    }\n\n    function _increaseApproval(address _approver, address _spender, uint _addedValue) private returns (bool) {\n        allowed[_approver][_spender] = allowed[_approver][_spender].add(_addedValue);\n        emit Approval(_approver, _spender, allowed[_approver][_spender]);\n    }\n\n    function _transferFrom(address from, address to, uint256 amount, string narrative) private {\n        require(balances[from] >= amount, \"balance must >= amount\");\n        require(allowed[from][msg.sender] >= amount, \"allowance must be >= amount\");\n        // don't allow 0 transferFrom if no approval:\n        require(allowed[from][msg.sender] > 0, \"allowance must be >= 0 even with 0 amount\");\n\n        /* NB: fee is deducted from owner. It can result that transferFrom of amount x to fail\n                when x + fee is not availale on owner balance */\n        _transfer(from, to, amount, narrative);\n\n        allowed[from][msg.sender] = allowed[from][msg.sender].sub(amount);\n    }\n\n    function _transfer(address from, address to, uint transferAmount, string narrative) private {\n        uint fee = feeAccount.calculateTransferFee(from, to, transferAmount);\n\n        _transfer(from, to, transferAmount, narrative, fee);\n    }\n\n    function _transfer(address from, address to, uint transferAmount, string narrative, uint fee) private {\n        require(to != 0x0, \"to must be set\");\n        uint amountWithFee = transferAmount.add(fee);\n        // to emit proper reason instead of failing on from.sub()\n        require(balances[from] >= amountWithFee, \"balance must be >= amount + transfer fee\");\n\n        if (fee > 0) {\n            balances[feeAccount] = balances[feeAccount].add(fee);\n            emit Transfer(from, feeAccount, fee);\n        }\n\n        balances[from] = balances[from].sub(amountWithFee);\n        balances[to] = balances[to].add(transferAmount);\n\n        emit Transfer(from, to, transferAmount);\n        emit AugmintTransfer(from, to, transferAmount, narrative, fee);\n    }\n\n}\n",
  "sourcePath": "/Users/petro/ether/augmint-ratesfeeder/augmint-contracts/contracts/generic/AugmintToken.sol",
  "compiler": {
    "name": "solc",
    "version": "0.4.23+commit.124ca40d.Emscripten.clang"
  },
  "schemaVersion": "2.0.0",
  "updatedAt": "2018-05-21T09:24:19.703Z"
}