{
  "contractName": "Exchange",
  "abi": [
    {
      "constant": true,
      "inputs": [
        {
          "name": "",
          "type": "uint64"
        }
      ],
      "name": "buyTokenOrders",
      "outputs": [
        {
          "name": "index",
          "type": "uint64"
        },
        {
          "name": "maker",
          "type": "address"
        },
        {
          "name": "price",
          "type": "uint32"
        },
        {
          "name": "amount",
          "type": "uint256"
        }
      ],
      "payable": false,
      "stateMutability": "view",
      "type": "function"
    },
    {
      "constant": true,
      "inputs": [],
      "name": "orderCount",
      "outputs": [
        {
          "name": "",
          "type": "uint64"
        }
      ],
      "payable": false,
      "stateMutability": "view",
      "type": "function"
    },
    {
      "constant": true,
      "inputs": [],
      "name": "rates",
      "outputs": [
        {
          "name": "",
          "type": "address"
        }
      ],
      "payable": false,
      "stateMutability": "view",
      "type": "function"
    },
    {
      "constant": true,
      "inputs": [
        {
          "name": "",
          "type": "address"
        },
        {
          "name": "",
          "type": "bytes32"
        }
      ],
      "name": "permissions",
      "outputs": [
        {
          "name": "",
          "type": "bool"
        }
      ],
      "payable": false,
      "stateMutability": "view",
      "type": "function"
    },
    {
      "constant": false,
      "inputs": [
        {
          "name": "agent",
          "type": "address"
        },
        {
          "name": "requiredPermission",
          "type": "bytes32"
        }
      ],
      "name": "revokePermission",
      "outputs": [],
      "payable": false,
      "stateMutability": "nonpayable",
      "type": "function"
    },
    {
      "constant": true,
      "inputs": [],
      "name": "augmintToken",
      "outputs": [
        {
          "name": "",
          "type": "address"
        }
      ],
      "payable": false,
      "stateMutability": "view",
      "type": "function"
    },
    {
      "constant": false,
      "inputs": [
        {
          "name": "agent",
          "type": "address"
        },
        {
          "name": "requiredPermissions",
          "type": "bytes32[]"
        }
      ],
      "name": "revokeMultiplePermissions",
      "outputs": [],
      "payable": false,
      "stateMutability": "nonpayable",
      "type": "function"
    },
    {
      "constant": false,
      "inputs": [
        {
          "name": "agent",
          "type": "address"
        },
        {
          "name": "requiredPermissions",
          "type": "bytes32[]"
        }
      ],
      "name": "grantMultiplePermissions",
      "outputs": [],
      "payable": false,
      "stateMutability": "nonpayable",
      "type": "function"
    },
    {
      "constant": true,
      "inputs": [
        {
          "name": "",
          "type": "uint64"
        }
      ],
      "name": "sellTokenOrders",
      "outputs": [
        {
          "name": "index",
          "type": "uint64"
        },
        {
          "name": "maker",
          "type": "address"
        },
        {
          "name": "price",
          "type": "uint32"
        },
        {
          "name": "amount",
          "type": "uint256"
        }
      ],
      "payable": false,
      "stateMutability": "view",
      "type": "function"
    },
    {
      "constant": true,
      "inputs": [],
      "name": "CHUNK_SIZE",
      "outputs": [
        {
          "name": "",
          "type": "uint256"
        }
      ],
      "payable": false,
      "stateMutability": "view",
      "type": "function"
    },
    {
      "constant": false,
      "inputs": [
        {
          "name": "agent",
          "type": "address"
        },
        {
          "name": "requiredPermission",
          "type": "bytes32"
        }
      ],
      "name": "grantPermission",
      "outputs": [],
      "payable": false,
      "stateMutability": "nonpayable",
      "type": "function"
    },
    {
      "inputs": [
        {
          "name": "_augmintToken",
          "type": "address"
        },
        {
          "name": "_rates",
          "type": "address"
        }
      ],
      "payable": false,
      "stateMutability": "nonpayable",
      "type": "constructor"
    },
    {
      "anonymous": false,
      "inputs": [
        {
          "indexed": true,
          "name": "orderId",
          "type": "uint64"
        },
        {
          "indexed": true,
          "name": "maker",
          "type": "address"
        },
        {
          "indexed": false,
          "name": "price",
          "type": "uint32"
        },
        {
          "indexed": false,
          "name": "tokenAmount",
          "type": "uint256"
        },
        {
          "indexed": false,
          "name": "weiAmount",
          "type": "uint256"
        }
      ],
      "name": "NewOrder",
      "type": "event"
    },
    {
      "anonymous": false,
      "inputs": [
        {
          "indexed": true,
          "name": "tokenBuyer",
          "type": "address"
        },
        {
          "indexed": true,
          "name": "tokenSeller",
          "type": "address"
        },
        {
          "indexed": false,
          "name": "buyTokenOrderId",
          "type": "uint64"
        },
        {
          "indexed": false,
          "name": "sellTokenOrderId",
          "type": "uint64"
        },
        {
          "indexed": false,
          "name": "publishedRate",
          "type": "uint256"
        },
        {
          "indexed": false,
          "name": "price",
          "type": "uint32"
        },
        {
          "indexed": false,
          "name": "fillRate",
          "type": "uint256"
        },
        {
          "indexed": false,
          "name": "weiAmount",
          "type": "uint256"
        },
        {
          "indexed": false,
          "name": "tokenAmount",
          "type": "uint256"
        }
      ],
      "name": "OrderFill",
      "type": "event"
    },
    {
      "anonymous": false,
      "inputs": [
        {
          "indexed": true,
          "name": "orderId",
          "type": "uint64"
        },
        {
          "indexed": true,
          "name": "maker",
          "type": "address"
        },
        {
          "indexed": false,
          "name": "tokenAmount",
          "type": "uint256"
        },
        {
          "indexed": false,
          "name": "weiAmount",
          "type": "uint256"
        }
      ],
      "name": "CancelledOrder",
      "type": "event"
    },
    {
      "anonymous": false,
      "inputs": [
        {
          "indexed": false,
          "name": "newRatesContract",
          "type": "address"
        }
      ],
      "name": "RatesContractChanged",
      "type": "event"
    },
    {
      "anonymous": false,
      "inputs": [
        {
          "indexed": true,
          "name": "agent",
          "type": "address"
        },
        {
          "indexed": false,
          "name": "grantedPermission",
          "type": "bytes32"
        }
      ],
      "name": "PermissionGranted",
      "type": "event"
    },
    {
      "anonymous": false,
      "inputs": [
        {
          "indexed": true,
          "name": "agent",
          "type": "address"
        },
        {
          "indexed": false,
          "name": "revokedPermission",
          "type": "bytes32"
        }
      ],
      "name": "PermissionRevoked",
      "type": "event"
    },
    {
      "constant": false,
      "inputs": [
        {
          "name": "newRatesContract",
          "type": "address"
        }
      ],
      "name": "setRatesContract",
      "outputs": [],
      "payable": false,
      "stateMutability": "nonpayable",
      "type": "function"
    },
    {
      "constant": false,
      "inputs": [
        {
          "name": "price",
          "type": "uint32"
        }
      ],
      "name": "placeBuyTokenOrder",
      "outputs": [
        {
          "name": "orderId",
          "type": "uint64"
        }
      ],
      "payable": true,
      "stateMutability": "payable",
      "type": "function"
    },
    {
      "constant": false,
      "inputs": [
        {
          "name": "price",
          "type": "uint32"
        },
        {
          "name": "tokenAmount",
          "type": "uint256"
        }
      ],
      "name": "placeSellTokenOrder",
      "outputs": [
        {
          "name": "orderId",
          "type": "uint256"
        }
      ],
      "payable": false,
      "stateMutability": "nonpayable",
      "type": "function"
    },
    {
      "constant": false,
      "inputs": [
        {
          "name": "maker",
          "type": "address"
        },
        {
          "name": "tokenAmount",
          "type": "uint256"
        },
        {
          "name": "price",
          "type": "uint256"
        }
      ],
      "name": "transferNotification",
      "outputs": [],
      "payable": false,
      "stateMutability": "nonpayable",
      "type": "function"
    },
    {
      "constant": false,
      "inputs": [
        {
          "name": "buyTokenId",
          "type": "uint64"
        }
      ],
      "name": "cancelBuyTokenOrder",
      "outputs": [],
      "payable": false,
      "stateMutability": "nonpayable",
      "type": "function"
    },
    {
      "constant": false,
      "inputs": [
        {
          "name": "sellTokenId",
          "type": "uint64"
        }
      ],
      "name": "cancelSellTokenOrder",
      "outputs": [],
      "payable": false,
      "stateMutability": "nonpayable",
      "type": "function"
    },
    {
      "constant": false,
      "inputs": [
        {
          "name": "buyTokenId",
          "type": "uint64"
        },
        {
          "name": "sellTokenId",
          "type": "uint64"
        }
      ],
      "name": "matchOrders",
      "outputs": [],
      "payable": false,
      "stateMutability": "nonpayable",
      "type": "function"
    },
    {
      "constant": false,
      "inputs": [
        {
          "name": "buyTokenIds",
          "type": "uint64[]"
        },
        {
          "name": "sellTokenIds",
          "type": "uint64[]"
        }
      ],
      "name": "matchMultipleOrders",
      "outputs": [
        {
          "name": "matchCount",
          "type": "uint256"
        }
      ],
      "payable": false,
      "stateMutability": "nonpayable",
      "type": "function"
    },
    {
      "constant": true,
      "inputs": [],
      "name": "getActiveOrderCounts",
      "outputs": [
        {
          "name": "buyTokenOrderCount",
          "type": "uint256"
        },
        {
          "name": "sellTokenOrderCount",
          "type": "uint256"
        }
      ],
      "payable": false,
      "stateMutability": "view",
      "type": "function"
    },
    {
      "constant": true,
      "inputs": [
        {
          "name": "offset",
          "type": "uint256"
        }
      ],
      "name": "getActiveBuyOrders",
      "outputs": [
        {
          "name": "response",
          "type": "uint256[4][100]"
        }
      ],
      "payable": false,
      "stateMutability": "view",
      "type": "function"
    },
    {
      "constant": true,
      "inputs": [
        {
          "name": "offset",
          "type": "uint256"
        }
      ],
      "name": "getActiveSellOrders",
      "outputs": [
        {
          "name": "response",
          "type": "uint256[4][100]"
        }
      ],
      "payable": false,
      "stateMutability": "view",
      "type": "function"
    }
  ],
  "bytecode": "0x608060405234801561001057600080fd5b50604051604080612f22833981018060405281019080805190602001909291908051906020019092919050505060016000803373ffffffffffffffffffffffffffffffffffffffff1673ffffffffffffffffffffffffffffffffffffffff16815260200190815260200160002060007f4d6f6e6574617279426f6172640000000000000000000000000000000000000060001916815260200190815260200160002060006101000a81548160ff0219169083151502179055503373ffffffffffffffffffffffffffffffffffffffff167fc65937e3dbcb9fb30f646815dd67a3dbd09ba17718cbcb54efbe3635f8e0a6fe60405180807f4d6f6e6574617279426f61726400000000000000000000000000000000000000815250602001905060405180910390a281600160006101000a81548173ffffffffffffffffffffffffffffffffffffffff021916908373ffffffffffffffffffffffffffffffffffffffff16021790555080600260006101000a81548173ffffffffffffffffffffffffffffffffffffffff021916908373ffffffffffffffffffffffffffffffffffffffff1602179055505050612d58806101ca6000396000f300608060405260043610610128576000357c0100000000000000000000000000000000000000000000000000000000900463ffffffff1680630c85feea1461012d5780630d53272e146101785780632453ffa8146102245780632bd0ce0f146102635780632dc9d3e51461029a57806343f48fbd146102eb5780635b225526146103425780635fe07013146103ab57806364e7e4a4146103fc5780636e593210146104535780637b9b9c89146104df5780637e6503bb146105365780637ea46993146105685780639ac3317b146105ee578063ae654d3114610674578063ae94ec05146106b7578063bcaeed2014610705578063c3c51aca146107b1578063c7e83451146107e8578063c93e8b151461084f578063e91e13a9146108db578063f38a826214610906575b600080fd5b34801561013957600080fd5b50610176600480360381019080803567ffffffffffffffff169060200190929190803567ffffffffffffffff169060200190929190505050610957565b005b34801561018457600080fd5b506101ad600480360381019080803567ffffffffffffffff169060200190929190505050610965565b604051808567ffffffffffffffff1667ffffffffffffffff1681526020018473ffffffffffffffffffffffffffffffffffffffff1673ffffffffffffffffffffffffffffffffffffffff1681526020018363ffffffff1663ffffffff16815260200182815260200194505050505060405180910390f35b34801561023057600080fd5b506102396109d9565b604051808267ffffffffffffffff1667ffffffffffffffff16815260200191505060405180910390f35b34801561026f57600080fd5b50610298600480360381019080803567ffffffffffffffff1690602001909291905050506109f3565b005b3480156102a657600080fd5b506102d5600480360381019080803563ffffffff16906020019092919080359060200190929190505050610bae565b6040518082815260200191505060405180910390f35b3480156102f757600080fd5b50610300610d02565b604051808273ffffffffffffffffffffffffffffffffffffffff1673ffffffffffffffffffffffffffffffffffffffff16815260200191505060405180910390f35b34801561034e57600080fd5b50610391600480360381019080803573ffffffffffffffffffffffffffffffffffffffff1690602001909291908035600019169060200190929190505050610d28565b604051808215151515815260200191505060405180910390f35b3480156103b757600080fd5b506103fa600480360381019080803573ffffffffffffffffffffffffffffffffffffffff1690602001909291908035600019169060200190929190505050610d57565b005b34801561040857600080fd5b50610451600480360381019080803573ffffffffffffffffffffffffffffffffffffffff1690602001909291908035906020019092919080359060200190929190505050610f3c565b005b34801561045f57600080fd5b5061047e60048036038101908080359060200190929190505050611012565b604051808260646000925b818410156104cf5782846020020151600460200280838360005b838110156104be5780820151818401526020810190506104a3565b505050509050019260010192610489565b9250505091505060405180910390f35b3480156104eb57600080fd5b506104f461115f565b604051808273ffffffffffffffffffffffffffffffffffffffff1673ffffffffffffffffffffffffffffffffffffffff16815260200191505060405180910390f35b34801561054257600080fd5b5061054b611185565b604051808381526020018281526020019250505060405180910390f35b34801561057457600080fd5b506105ec600480360381019080803573ffffffffffffffffffffffffffffffffffffffff1690602001909291908035906020019082018035906020019080806020026020016040519081016040528093929190818152602001838360200280828437820191505050505050919291929050505061119c565b005b3480156105fa57600080fd5b50610672600480360381019080803573ffffffffffffffffffffffffffffffffffffffff169060200190929190803590602001908201803590602001908080602002602001604051908101604052809392919081815260200183836020028082843782019150505050505091929192905050506111e4565b005b34801561068057600080fd5b506106b5600480360381019080803573ffffffffffffffffffffffffffffffffffffffff169060200190929190505050611347565b005b6106db600480360381019080803563ffffffff1690602001909291905050506114e9565b604051808267ffffffffffffffff1667ffffffffffffffff16815260200191505060405180910390f35b34801561071157600080fd5b5061073a600480360381019080803567ffffffffffffffff169060200190929190505050611815565b604051808567ffffffffffffffff1667ffffffffffffffff1681526020018473ffffffffffffffffffffffffffffffffffffffff1673ffffffffffffffffffffffffffffffffffffffff1681526020018363ffffffff1663ffffffff16815260200182815260200194505050505060405180910390f35b3480156107bd57600080fd5b506107e6600480360381019080803567ffffffffffffffff169060200190929190505050611889565b005b3480156107f457600080fd5b50610839600480360381019080803590602001908201803590602001919091929391929390803590602001908201803590602001919091929391929390505050611b13565b6040518082815260200191505060405180910390f35b34801561085b57600080fd5b5061087a60048036038101908080359060200190929190505050611c44565b604051808260646000925b818410156108cb5782846020020151600460200280838360005b838110156108ba57808201518184015260208101905061089f565b505050509050019260010192610885565b9250505091505060405180910390f35b3480156108e757600080fd5b506108f0611d91565b6040518082815260200191505060405180910390f35b34801561091257600080fd5b50610955600480360381019080803573ffffffffffffffffffffffffffffffffffffffff1690602001909291908035600019169060200190929190505050611d96565b005b6109618282611f7b565b5050565b60036020528060005260406000206000915090508060000160009054906101000a900467ffffffffffffffff16908060000160089054906101000a900473ffffffffffffffffffffffffffffffffffffffff169080600001601c9054906101000a900463ffffffff16908060010154905084565b600260149054906101000a900467ffffffffffffffff1681565b600080600360008467ffffffffffffffff1667ffffffffffffffff16815260200190815260200160002091503373ffffffffffffffffffffffffffffffffffffffff168260000160089054906101000a900473ffffffffffffffffffffffffffffffffffffffff1673ffffffffffffffffffffffffffffffffffffffff16141515610ae6576040517f08c379a000000000000000000000000000000000000000000000000000000000815260040180806020018281038252601e8152602001807f6d73672e73656e646572206d757374206265206f726465722e6d616b6572000081525060200191505060405180910390fd5b8160010154905060008260010181905550610b008261265c565b3373ffffffffffffffffffffffffffffffffffffffff166108fc829081150290604051600060405180830381858888f19350505050158015610b46573d6000803e3d6000fd5b503373ffffffffffffffffffffffffffffffffffffffff168367ffffffffffffffff167f46576cf7860a96ee935d6c6cb19aed137c56b1338f49b73225afe99cb923e761600084604051808381526020018281526020019250505060405180910390a3505050565b6000600160009054906101000a900473ffffffffffffffffffffffffffffffffffffffff1673ffffffffffffffffffffffffffffffffffffffff166323b872dd3330856040518463ffffffff167c0100000000000000000000000000000000000000000000000000000000028152600401808473ffffffffffffffffffffffffffffffffffffffff1673ffffffffffffffffffffffffffffffffffffffff1681526020018373ffffffffffffffffffffffffffffffffffffffff1673ffffffffffffffffffffffffffffffffffffffff1681526020018281526020019350505050602060405180830381600087803b158015610ca957600080fd5b505af1158015610cbd573d6000803e3d6000fd5b505050506040513d6020811015610cd357600080fd5b810190808051906020019092919050505050610cf0338484612682565b67ffffffffffffffff16905092915050565b600260009054906101000a900473ffffffffffffffffffffffffffffffffffffffff1681565b60006020528160005260406000206020528060005260406000206000915091509054906101000a900460ff1681565b6000803373ffffffffffffffffffffffffffffffffffffffff1673ffffffffffffffffffffffffffffffffffffffff16815260200190815260200160002060007f4d6f6e6574617279426f6172640000000000000000000000000000000000000060001916815260200190815260200160002060009054906101000a900460ff161515610e72576040517f08c379a000000000000000000000000000000000000000000000000000000000815260040180806020018281038252602d8152602001807f6d73672e73656e646572206d7573742068617665204d6f6e6574617279426f6181526020017f7264207065726d697373696f6e0000000000000000000000000000000000000081525060400191505060405180910390fd5b60008060008473ffffffffffffffffffffffffffffffffffffffff1673ffffffffffffffffffffffffffffffffffffffff1681526020019081526020016000206000836000191660001916815260200190815260200160002060006101000a81548160ff0219169083151502179055508173ffffffffffffffffffffffffffffffffffffffff167f789770131846de4d1f28418f0f957cdf4fcabe5eccf70067083e20ecece69a348260405180826000191660001916815260200191505060405180910390a25050565b600160009054906101000a900473ffffffffffffffffffffffffffffffffffffffff1673ffffffffffffffffffffffffffffffffffffffff163373ffffffffffffffffffffffffffffffffffffffff16141515611001576040517f08c379a000000000000000000000000000000000000000000000000000000000815260040180806020018281038252601f8152602001807f6d73672e73656e646572206d757374206265206175676d696e74546f6b656e0081525060200191505060405180910390fd5b61100c838284612682565b50505050565b61101a612c7b565b60008060008092505b60648360ff1610801561103f5750600680549050858460ff1601105b156111575760068360ff16860181548110151561105857fe5b90600052602060002090600491828204019190066008029054906101000a900467ffffffffffffffff169150600460008367ffffffffffffffff1667ffffffffffffffff16815260200190815260200160002090506080604051908101604052808367ffffffffffffffff1681526020018260000160089054906101000a900473ffffffffffffffffffffffffffffffffffffffff1673ffffffffffffffffffffffffffffffffffffffff16815260200182600001601c9054906101000a900463ffffffff1663ffffffff1681526020018260010154815250848460ff1660648110151561114257fe5b60200201819052508280600101935050611023565b505050919050565b600160009054906101000a900473ffffffffffffffffffffffffffffffffffffffff1681565b600080600580549050600680549050915091509091565b60008082519150600090505b818110156111de576111d18484838151811015156111c257fe5b90602001906020020151610d57565b80806001019150506111a8565b50505050565b6000806000803373ffffffffffffffffffffffffffffffffffffffff1673ffffffffffffffffffffffffffffffffffffffff16815260200190815260200160002060007f4d6f6e6574617279426f6172640000000000000000000000000000000000000060001916815260200190815260200160002060009054906101000a900460ff161515611302576040517f08c379a000000000000000000000000000000000000000000000000000000000815260040180806020018281038252602d8152602001807f6d73672e73656e646572206d7573742068617665204d6f6e6574617279426f6181526020017f7264207065726d697373696f6e0000000000000000000000000000000000000081525060400191505060405180910390fd5b82519150600090505b818110156113415761133484848381518110151561132557fe5b90602001906020020151611d96565b808060010191505061130b565b50505050565b7f4d6f6e6574617279426f617264000000000000000000000000000000000000006000803373ffffffffffffffffffffffffffffffffffffffff1673ffffffffffffffffffffffffffffffffffffffff1681526020019081526020016000206000826000191660001916815260200190815260200160002060009054906101000a900460ff161515611441576040517f08c379a000000000000000000000000000000000000000000000000000000000815260040180806020018281038252601f8152602001807f6d73672e73656e646572206d7573742068617665207065726d697373696f6e0081525060200191505060405180910390fd5b81600260006101000a81548173ffffffffffffffffffffffffffffffffffffffff021916908373ffffffffffffffffffffffffffffffffffffffff1602179055507f25f1c01ba20b2c8c2800a53b03fcaf2967976566b4851cc1ef43b7ba334c2eac82604051808273ffffffffffffffffffffffffffffffffffffffff1673ffffffffffffffffffffffffffffffffffffffff16815260200191505060405180910390a15050565b6000808263ffffffff16111515611568576040517f08c379a00000000000000000000000000000000000000000000000000000000081526004018080602001828103825260118152602001807f7072696365206d757374206265203e203000000000000000000000000000000081525060200191505060405180910390fd5b6000341115156115e0576040517f08c379a00000000000000000000000000000000000000000000000000000000081526004018080602001828103825260158152602001807f6d73672e76616c7565206d757374206265203e2030000000000000000000000081525060200191505060405180910390fd5b6002601481819054906101000a900467ffffffffffffffff1660010191906101000a81548167ffffffffffffffff021916908367ffffffffffffffff1602179055905060806040519081016040528060058054905067ffffffffffffffff1681526020013373ffffffffffffffffffffffffffffffffffffffff1681526020018363ffffffff16815260200134815250600360008367ffffffffffffffff1667ffffffffffffffff16815260200190815260200160002060008201518160000160006101000a81548167ffffffffffffffff021916908367ffffffffffffffff16021790555060208201518160000160086101000a81548173ffffffffffffffffffffffffffffffffffffffff021916908373ffffffffffffffffffffffffffffffffffffffff160217905550604082015181600001601c6101000a81548163ffffffff021916908363ffffffff16021790555060608201518160010155905050600581908060018154018082558091505090600182039060005260206000209060049182820401919006600802909192909190916101000a81548167ffffffffffffffff021916908367ffffffffffffffff160217905550503373ffffffffffffffffffffffffffffffffffffffff168167ffffffffffffffff167f19e48c9ddede2f434b2a662a6e331ff29b3701f08ad88722e4fecf058b3fd75984600034604051808463ffffffff1663ffffffff168152602001838152602001828152602001935050505060405180910390a3919050565b60046020528060005260406000206000915090508060000160009054906101000a900467ffffffffffffffff16908060000160089054906101000a900473ffffffffffffffffffffffffffffffffffffffff169080600001601c9054906101000a900463ffffffff16908060010154905084565b600080600460008467ffffffffffffffff1667ffffffffffffffff16815260200190815260200160002091503373ffffffffffffffffffffffffffffffffffffffff168260000160089054906101000a900473ffffffffffffffffffffffffffffffffffffffff1673ffffffffffffffffffffffffffffffffffffffff1614151561197c576040517f08c379a000000000000000000000000000000000000000000000000000000000815260040180806020018281038252601e8152602001807f6d73672e73656e646572206d757374206265206f726465722e6d616b6572000081525060200191505060405180910390fd5b8160010154905060008260010181905550611996826129b0565b600160009054906101000a900473ffffffffffffffffffffffffffffffffffffffff1673ffffffffffffffffffffffffffffffffffffffff1663ffdcf09533836040518363ffffffff167c0100000000000000000000000000000000000000000000000000000000028152600401808373ffffffffffffffffffffffffffffffffffffffff1673ffffffffffffffffffffffffffffffffffffffff168152602001828152602001806020018281038252601a8152602001807f53656c6c20746f6b656e206f726465722063616e63656c6c65640000000000008152506020019350505050600060405180830381600087803b158015611a9457600080fd5b505af1158015611aa8573d6000803e3d6000fd5b505050503373ffffffffffffffffffffffffffffffffffffffff168367ffffffffffffffff167f46576cf7860a96ee935d6c6cb19aed137c56b1338f49b73225afe99cb923e761836000604051808381526020018281526020019250505060405180910390a3505050565b60008060008686905091508484905082141515611bbe576040517f08c379a00000000000000000000000000000000000000000000000000000000081526004018080602001828103825260328152602001807f627579546f6b656e49647320616e642073656c6c546f6b656e496473206c656e81526020017f67746873206d75737420626520657175616c000000000000000000000000000081525060400191505060405180910390fd5b600090505b8181108015611bda5750620186a063ffffffff165a115b15611c3a57611c258787838181101515611bf057fe5b9050602002013567ffffffffffffffff168686848181101515611c0f57fe5b9050602002013567ffffffffffffffff16611f7b565b82806001019350508080600101915050611bc3565b5050949350505050565b611c4c612c7b565b60008060008092505b60648360ff16108015611c715750600580549050858460ff1601105b15611d895760058360ff168601815481101515611c8a57fe5b90600052602060002090600491828204019190066008029054906101000a900467ffffffffffffffff169150600360008367ffffffffffffffff1667ffffffffffffffff16815260200190815260200160002090506080604051908101604052808367ffffffffffffffff1681526020018260000160089054906101000a900473ffffffffffffffffffffffffffffffffffffffff1673ffffffffffffffffffffffffffffffffffffffff16815260200182600001601c9054906101000a900463ffffffff1663ffffffff1681526020018260010154815250848460ff16606481101515611d7457fe5b60200201819052508280600101935050611c55565b505050919050565b606481565b6000803373ffffffffffffffffffffffffffffffffffffffff1673ffffffffffffffffffffffffffffffffffffffff16815260200190815260200160002060007f4d6f6e6574617279426f6172640000000000000000000000000000000000000060001916815260200190815260200160002060009054906101000a900460ff161515611eb1576040517f08c379a000000000000000000000000000000000000000000000000000000000815260040180806020018281038252602d8152602001807f6d73672e73656e646572206d7573742068617665204d6f6e6574617279426f6181526020017f7264207065726d697373696f6e0000000000000000000000000000000000000081525060400191505060405180910390fd5b60016000808473ffffffffffffffffffffffffffffffffffffffff1673ffffffffffffffffffffffffffffffffffffffff1681526020019081526020016000206000836000191660001916815260200190815260200160002060006101000a81548160ff0219169083151502179055508173ffffffffffffffffffffffffffffffffffffffff167fc65937e3dbcb9fb30f646815dd67a3dbd09ba17718cbcb54efbe3635f8e0a6fe8260405180826000191660001916815260200191505060405180910390a25050565b600080600080600080600080600360008b67ffffffffffffffff1667ffffffffffffffff1681526020019081526020016000209750600460008a67ffffffffffffffff1667ffffffffffffffff168152602001908152602001600020965086600001601c9054906101000a900463ffffffff1663ffffffff1688600001601c9054906101000a900463ffffffff1663ffffffff1610151515612085576040517f08c379a000000000000000000000000000000000000000000000000000000000815260040180806020018281038252601f8152602001807f627579207072696365206d757374206265203e3d2073656c6c2070726963650081525060200191505060405180910390fd5b8867ffffffffffffffff168a67ffffffffffffffff16116120ba5787600001601c9054906101000a900463ffffffff166120d0565b86600001601c9054906101000a900463ffffffff165b9550600260009054906101000a900473ffffffffffffffffffffffffffffffffffffffff1673ffffffffffffffffffffffffffffffffffffffff1663dc726205600160009054906101000a900473ffffffffffffffffffffffffffffffffffffffff1673ffffffffffffffffffffffffffffffffffffffff166333a263e66040518163ffffffff167c0100000000000000000000000000000000000000000000000000000000028152600401602060405180830381600087803b15801561219657600080fd5b505af11580156121aa573d6000803e3d6000fd5b505050506040513d60208110156121c057600080fd5b81019080805190602001909291905050506040518263ffffffff167c01000000000000000000000000000000000000000000000000000000000281526004018082600019166000191681526020019150506040805180830381600087803b15801561222a57600080fd5b505af115801561223e573d6000803e3d6000fd5b505050506040513d604081101561225457600080fd5b81019080805190602001909291908051906020019092919050505050809550506122a2620f42406122948863ffffffff16886129d690919063ffffffff16565b612a7590919063ffffffff16565b93506122d5846122c7670de0b6b3a76400008a600101546129d690919063ffffffff16565b612a7590919063ffffffff16565b92508760010154831115156122f3578291508660010154905061232e565b8760010154915061232b670de0b6b3a764000061231d868b600101546129d690919063ffffffff16565b612a7590919063ffffffff16565b90505b612345828960010154612b3190919063ffffffff16565b8860010181905550600088600101541415612364576123638861265c565b5b61237b818860010154612b3190919063ffffffff16565b876001018190555060008760010154141561239a57612399876129b0565b5b600160009054906101000a900473ffffffffffffffffffffffffffffffffffffffff1673ffffffffffffffffffffffffffffffffffffffff1663ffdcf0958960000160089054906101000a900473ffffffffffffffffffffffffffffffffffffffff16836040518363ffffffff167c0100000000000000000000000000000000000000000000000000000000028152600401808373ffffffffffffffffffffffffffffffffffffffff1673ffffffffffffffffffffffffffffffffffffffff16815260200182815260200180602001828103825260148152602001807f42757920746f6b656e206f726465722066696c6c0000000000000000000000008152506020019350505050600060405180830381600087803b1580156124bc57600080fd5b505af11580156124d0573d6000803e3d6000fd5b505050508660000160089054906101000a900473ffffffffffffffffffffffffffffffffffffffff1673ffffffffffffffffffffffffffffffffffffffff166108fc839081150290604051600060405180830381858888f1935050505015801561253e573d6000803e3d6000fd5b508660000160089054906101000a900473ffffffffffffffffffffffffffffffffffffffff1673ffffffffffffffffffffffffffffffffffffffff168860000160089054906101000a900473ffffffffffffffffffffffffffffffffffffffff1673ffffffffffffffffffffffffffffffffffffffff167f0a12a6ac2a94cfb31b52c51380c5df1d51d357e8fdc0d5d49a3eaf07c543eceb8c8c898b8a8989604051808867ffffffffffffffff1667ffffffffffffffff1681526020018767ffffffffffffffff1667ffffffffffffffff1681526020018681526020018563ffffffff1663ffffffff16815260200184815260200183815260200182815260200197505050505050505060405180910390a350505050505050505050565b61267f60058260000160009054906101000a900467ffffffffffffffff16612bb6565b50565b6000808363ffffffff16111515612701576040517f08c379a00000000000000000000000000000000000000000000000000000000081526004018080602001828103825260118152602001807f7072696365206d757374206265203e203000000000000000000000000000000081525060200191505060405180910390fd5b600082111515612779576040517f08c379a00000000000000000000000000000000000000000000000000000000081526004018080602001828103825260178152602001807f746f6b656e416d6f756e74206d757374206265203e203000000000000000000081525060200191505060405180910390fd5b6002601481819054906101000a900467ffffffffffffffff1660010191906101000a81548167ffffffffffffffff021916908367ffffffffffffffff1602179055905060806040519081016040528060068054905067ffffffffffffffff1681526020018573ffffffffffffffffffffffffffffffffffffffff1681526020018463ffffffff16815260200183815250600460008367ffffffffffffffff1667ffffffffffffffff16815260200190815260200160002060008201518160000160006101000a81548167ffffffffffffffff021916908367ffffffffffffffff16021790555060208201518160000160086101000a81548173ffffffffffffffffffffffffffffffffffffffff021916908373ffffffffffffffffffffffffffffffffffffffff160217905550604082015181600001601c6101000a81548163ffffffff021916908363ffffffff16021790555060608201518160010155905050600681908060018154018082558091505090600182039060005260206000209060049182820401919006600802909192909190916101000a81548167ffffffffffffffff021916908367ffffffffffffffff160217905550508373ffffffffffffffffffffffffffffffffffffffff168167ffffffffffffffff167f19e48c9ddede2f434b2a662a6e331ff29b3701f08ad88722e4fecf058b3fd75985856000604051808463ffffffff1663ffffffff168152602001838152602001828152602001935050505060405180910390a39392505050565b6129d360068260000160009054906101000a900467ffffffffffffffff16612bb6565b50565b600080828402905060008414806129f757508284828115156129f457fe5b04145b1515612a6b576040517f08c379a000000000000000000000000000000000000000000000000000000000815260040180806020018281038252600c8152602001807f6d756c206f766572666c6f77000000000000000000000000000000000000000081525060200191505060405180910390fd5b8091505092915050565b600080600083111515612af0576040517f08c379a00000000000000000000000000000000000000000000000000000000081526004018080602001828103825260088152602001807f646976206279203000000000000000000000000000000000000000000000000081525060200191505060405180910390fd5b8284811515612afb57fe5b049050600283811515612b0a57fe5b048385811515612b1657fe5b06101515612b275780806001019150505b8091505092915050565b6000828211151515612bab576040517f08c379a000000000000000000000000000000000000000000000000000000000815260040180806020018281038252600d8152602001807f73756220756e646572666c6f770000000000000000000000000000000000000081525060200191505060405180910390fd5b818303905092915050565b60018280549050038167ffffffffffffffff161015612c6257816001838054905003815481101515612be457fe5b90600052602060002090600491828204019190066008029054906101000a900467ffffffffffffffff16828267ffffffffffffffff16815481101515612c2657fe5b90600052602060002090600491828204019190066008026101000a81548167ffffffffffffffff021916908367ffffffffffffffff1602179055505b81805480919060019003612c769190612caa565b505050565b613200604051908101604052806064905b612c94612ce4565b815260200190600190039081612c8c5790505090565b815481835581811115612cdf576003016004900481600301600490048360005260206000209182019101612cde9190612d07565b5b505050565b608060405190810160405280600490602082028038833980820191505090505090565b612d2991905b80821115612d25576000816000905550600101612d0d565b5090565b905600a165627a7a72305820afe28e22dd4123eb9af602d2396fdb6ac9ff6abaccc76d5a6159c3d3cd8319930029",
  "source": "/* Augmint's Internal Exchange\n\n  For flows see: https://github.com/Augmint/augmint-contracts/blob/master/docs/exchangeFlow.png\n\n    TODO:\n        - change to wihtdrawal pattern, see: https://github.com/Augmint/augmint-contracts/issues/17\n        - deduct fee\n        - consider take funcs (frequent rate changes with takeBuyToken? send more and send back remainder?)\n        - use Rates interface?\n*/\npragma solidity ^0.4.23;\n\nimport \"./generic/SafeMath.sol\";\nimport \"./generic/Restricted.sol\";\nimport \"./interfaces/AugmintTokenInterface.sol\";\nimport \"./Rates.sol\";\n\n\ncontract Exchange is Restricted {\n    using SafeMath for uint256;\n\n    AugmintTokenInterface public augmintToken;\n    Rates public rates;\n\n    uint public constant CHUNK_SIZE = 100;\n\n    struct Order {\n        uint64 index;\n        address maker;\n\n        // % of published current peggedSymbol/ETH rates published by Rates contract. Stored as parts per million\n        // I.e. 1,000,000 = 100% (parity), 990,000 = 1% below parity\n        uint32 price;\n\n        // buy order: amount in wei\n        // sell order: token amount\n        uint amount;\n    }\n\n    uint64 public orderCount;\n    mapping(uint64 => Order) public buyTokenOrders;\n    mapping(uint64 => Order) public sellTokenOrders;\n\n    uint64[] private activeBuyOrders;\n    uint64[] private activeSellOrders;\n\n    /* used to stop executing matchMultiple when running out of gas.\n        actual is much less, just leaving enough matchMultipleOrders() to finish TODO: fine tune & test it*/\n    uint32 private constant ORDER_MATCH_WORST_GAS = 100000;\n\n    event NewOrder(uint64 indexed orderId, address indexed maker, uint32 price, uint tokenAmount, uint weiAmount);\n\n    event OrderFill(address indexed tokenBuyer, address indexed tokenSeller, uint64 buyTokenOrderId,\n        uint64 sellTokenOrderId, uint publishedRate, uint32 price, uint fillRate, uint weiAmount, uint tokenAmount);\n\n    event CancelledOrder(uint64 indexed orderId, address indexed maker, uint tokenAmount, uint weiAmount);\n\n    event RatesContractChanged(Rates newRatesContract);\n\n    constructor(AugmintTokenInterface _augmintToken, Rates _rates) public {\n        augmintToken = _augmintToken;\n        rates = _rates;\n    }\n\n    /* to allow upgrade of Rates  contract */\n    function setRatesContract(Rates newRatesContract)\n    external restrict(\"MonetaryBoard\") {\n        rates = newRatesContract;\n        emit RatesContractChanged(newRatesContract);\n    }\n\n    function placeBuyTokenOrder(uint32 price) external payable returns (uint64 orderId) {\n        require(price > 0, \"price must be > 0\");\n        require(msg.value > 0, \"msg.value must be > 0\");\n\n        orderId = ++orderCount;\n        buyTokenOrders[orderId] = Order(uint64(activeBuyOrders.length), msg.sender, price, msg.value);\n        activeBuyOrders.push(orderId);\n\n        emit NewOrder(orderId, msg.sender, price, 0, msg.value);\n    }\n\n    /* this function requires previous approval to transfer tokens */\n    function placeSellTokenOrder(uint32 price, uint tokenAmount) external returns (uint orderId) {\n        augmintToken.transferFrom(msg.sender, this, tokenAmount);\n        return _placeSellTokenOrder(msg.sender, price, tokenAmount);\n    }\n\n    /* place sell token order called from AugmintToken's transferAndNotify\n     Flow:\n        1) user calls token contract's transferAndNotify price passed in data arg\n        2) transferAndNotify transfers tokens to the Exchange contract\n        3) transferAndNotify calls Exchange.transferNotification with lockProductId\n    */\n    function transferNotification(address maker, uint tokenAmount, uint price) external {\n        require(msg.sender == address(augmintToken), \"msg.sender must be augmintToken\");\n        _placeSellTokenOrder(maker, uint32(price), tokenAmount);\n    }\n\n    function cancelBuyTokenOrder(uint64 buyTokenId) external {\n        Order storage order = buyTokenOrders[buyTokenId];\n        require(order.maker == msg.sender, \"msg.sender must be order.maker\");\n\n        uint amount = order.amount;\n        order.amount = 0;\n        _removeBuyOrder(order);\n\n        msg.sender.transfer(amount);\n\n        emit CancelledOrder(buyTokenId, msg.sender, 0, amount);\n    }\n\n    function cancelSellTokenOrder(uint64 sellTokenId) external {\n        Order storage order = sellTokenOrders[sellTokenId];\n        require(order.maker == msg.sender, \"msg.sender must be order.maker\");\n\n        uint amount = order.amount;\n        order.amount = 0;\n        _removeSellOrder(order);\n\n        augmintToken.transferWithNarrative(msg.sender, amount, \"Sell token order cancelled\");\n\n        emit CancelledOrder(sellTokenId, msg.sender, amount, 0);\n    }\n\n    /* matches any two orders if the sell price >= buy price\n        trade price meets in the middle\n        reverts if any of the orders have been removed\n    */\n    function matchOrders(uint64 buyTokenId, uint64 sellTokenId) external {\n        _fillOrder(buyTokenId, sellTokenId);\n    }\n\n    /*  matches as many orders as possible from the passed orders\n        Runs as long as gas is available for the call.\n        Stops if any match is invalid (case when any of the orders removed after client generated the match list sent)\n    */\n    function matchMultipleOrders(uint64[] buyTokenIds, uint64[] sellTokenIds) external returns(uint matchCount) {\n        uint len = buyTokenIds.length;\n        require(len == sellTokenIds.length, \"buyTokenIds and sellTokenIds lengths must be equal\");\n\n        for (uint i = 0; i < len && gasleft() > ORDER_MATCH_WORST_GAS; i++) {\n            _fillOrder(buyTokenIds[i], sellTokenIds[i]);\n            matchCount++;\n        }\n    }\n\n    function getActiveOrderCounts() external view returns(uint buyTokenOrderCount, uint sellTokenOrderCount) {\n        return(activeBuyOrders.length, activeSellOrders.length);\n    }\n\n    // returns CHUNK_SIZE orders starting from offset\n    // orders are encoded as [id, maker, price, amount]\n    function getActiveBuyOrders(uint offset) external view returns (uint[4][CHUNK_SIZE] response) {\n        for (uint8 i = 0; i < CHUNK_SIZE && i + offset < activeBuyOrders.length; i++) {\n            uint64 orderId = activeBuyOrders[offset + i];\n            Order storage order = buyTokenOrders[orderId];\n            response[i] = [orderId, uint(order.maker), order.price, order.amount];\n        }\n    }\n\n    function getActiveSellOrders(uint offset) external view returns (uint[4][CHUNK_SIZE] response) {\n        for (uint8 i = 0; i < CHUNK_SIZE && i + offset < activeSellOrders.length; i++) {\n            uint64 orderId = activeSellOrders[offset + i];\n            Order storage order = sellTokenOrders[orderId];\n            response[i] = [orderId, uint(order.maker), order.price, order.amount];\n        }\n    }\n\n    function _fillOrder(uint64 buyTokenId, uint64 sellTokenId) private {\n        Order storage buy = buyTokenOrders[buyTokenId];\n        Order storage sell = sellTokenOrders[sellTokenId];\n\n        require(buy.price >= sell.price, \"buy price must be >= sell price\");\n\n        // pick maker's price (whoever placed order sooner considered as maker)\n        uint32 price = buyTokenId > sellTokenId ? sell.price : buy.price;\n\n        uint publishedRate;\n        (publishedRate, ) = rates.rates(augmintToken.peggedSymbol());\n        uint fillRate = publishedRate.mul(price).roundedDiv(1000000);\n\n        uint sellWei = sell.amount.mul(1 ether).roundedDiv(fillRate);\n\n        uint tradedWei;\n        uint tradedTokens;\n        if (sellWei <= buy.amount) {\n            tradedWei = sellWei;\n            tradedTokens = sell.amount;\n        } else {\n            tradedWei = buy.amount;\n            tradedTokens = buy.amount.mul(fillRate).roundedDiv(1 ether);\n        }\n\n        buy.amount = buy.amount.sub(tradedWei);\n        if (buy.amount == 0) {\n            _removeBuyOrder(buy);\n        }\n\n        sell.amount = sell.amount.sub(tradedTokens);\n        if (sell.amount == 0) {\n            _removeSellOrder(sell);\n        }\n\n        augmintToken.transferWithNarrative(buy.maker, tradedTokens, \"Buy token order fill\");\n        sell.maker.transfer(tradedWei);\n\n        emit OrderFill(buy.maker, sell.maker, buyTokenId,\n            sellTokenId, publishedRate, price, fillRate, tradedWei, tradedTokens);\n    }\n\n    function _placeSellTokenOrder(address maker, uint32 price, uint tokenAmount)\n    private returns (uint64 orderId) {\n        require(price > 0, \"price must be > 0\");\n        require(tokenAmount > 0, \"tokenAmount must be > 0\");\n\n        orderId = ++orderCount;\n        sellTokenOrders[orderId] = Order(uint64(activeSellOrders.length), maker, price, tokenAmount);\n        activeSellOrders.push(orderId);\n\n        emit NewOrder(orderId, maker, price, tokenAmount, 0);\n    }\n\n    function _removeBuyOrder(Order storage order) private {\n        _removeOrder(activeBuyOrders, order.index);\n    }\n\n    function _removeSellOrder(Order storage order) private {\n        _removeOrder(activeSellOrders, order.index);\n    }\n\n    function _removeOrder(uint64[] storage orders, uint64 index) private {\n        if (index < orders.length - 1) {\n            orders[index] = orders[orders.length - 1];\n        }\n        orders.length--;\n    }\n\n}\n",
  "sourcePath": "/Users/petro/ether/augmint-ratesfeeder/augmint-contracts/contracts/Exchange.sol",
  "compiler": {
    "name": "solc",
    "version": "0.4.23+commit.124ca40d.Emscripten.clang"
  },
  "schemaVersion": "2.0.0",
  "updatedAt": "2018-05-21T09:24:42.374Z"
}