{
  "contractName": "Locker",
  "abi": [
    {
      "constant": true,
      "inputs": [
        {
          "name": "",
          "type": "uint256"
        }
      ],
      "name": "lockProducts",
      "outputs": [
        {
          "name": "perTermInterest",
          "type": "uint32"
        },
        {
          "name": "durationInSecs",
          "type": "uint32"
        },
        {
          "name": "minimumLockAmount",
          "type": "uint32"
        },
        {
          "name": "isActive",
          "type": "bool"
        }
      ],
      "payable": false,
      "stateMutability": "view",
      "type": "function"
    },
    {
      "constant": true,
      "inputs": [],
      "name": "monetarySupervisor",
      "outputs": [
        {
          "name": "",
          "type": "address"
        }
      ],
      "payable": false,
      "stateMutability": "view",
      "type": "function"
    },
    {
      "constant": true,
      "inputs": [
        {
          "name": "",
          "type": "address"
        },
        {
          "name": "",
          "type": "bytes32"
        }
      ],
      "name": "permissions",
      "outputs": [
        {
          "name": "",
          "type": "bool"
        }
      ],
      "payable": false,
      "stateMutability": "view",
      "type": "function"
    },
    {
      "constant": false,
      "inputs": [
        {
          "name": "agent",
          "type": "address"
        },
        {
          "name": "requiredPermission",
          "type": "bytes32"
        }
      ],
      "name": "revokePermission",
      "outputs": [],
      "payable": false,
      "stateMutability": "nonpayable",
      "type": "function"
    },
    {
      "constant": true,
      "inputs": [],
      "name": "augmintToken",
      "outputs": [
        {
          "name": "",
          "type": "address"
        }
      ],
      "payable": false,
      "stateMutability": "view",
      "type": "function"
    },
    {
      "constant": false,
      "inputs": [
        {
          "name": "agent",
          "type": "address"
        },
        {
          "name": "requiredPermissions",
          "type": "bytes32[]"
        }
      ],
      "name": "revokeMultiplePermissions",
      "outputs": [],
      "payable": false,
      "stateMutability": "nonpayable",
      "type": "function"
    },
    {
      "constant": false,
      "inputs": [
        {
          "name": "agent",
          "type": "address"
        },
        {
          "name": "requiredPermissions",
          "type": "bytes32[]"
        }
      ],
      "name": "grantMultiplePermissions",
      "outputs": [],
      "payable": false,
      "stateMutability": "nonpayable",
      "type": "function"
    },
    {
      "constant": true,
      "inputs": [
        {
          "name": "",
          "type": "address"
        },
        {
          "name": "",
          "type": "uint256"
        }
      ],
      "name": "accountLocks",
      "outputs": [
        {
          "name": "",
          "type": "uint256"
        }
      ],
      "payable": false,
      "stateMutability": "view",
      "type": "function"
    },
    {
      "constant": true,
      "inputs": [],
      "name": "CHUNK_SIZE",
      "outputs": [
        {
          "name": "",
          "type": "uint256"
        }
      ],
      "payable": false,
      "stateMutability": "view",
      "type": "function"
    },
    {
      "constant": false,
      "inputs": [
        {
          "name": "agent",
          "type": "address"
        },
        {
          "name": "requiredPermission",
          "type": "bytes32"
        }
      ],
      "name": "grantPermission",
      "outputs": [],
      "payable": false,
      "stateMutability": "nonpayable",
      "type": "function"
    },
    {
      "constant": true,
      "inputs": [
        {
          "name": "",
          "type": "uint256"
        }
      ],
      "name": "locks",
      "outputs": [
        {
          "name": "amountLocked",
          "type": "uint256"
        },
        {
          "name": "owner",
          "type": "address"
        },
        {
          "name": "productId",
          "type": "uint32"
        },
        {
          "name": "lockedUntil",
          "type": "uint40"
        },
        {
          "name": "isActive",
          "type": "bool"
        }
      ],
      "payable": false,
      "stateMutability": "view",
      "type": "function"
    },
    {
      "inputs": [
        {
          "name": "_augmintToken",
          "type": "address"
        },
        {
          "name": "_monetarySupervisor",
          "type": "address"
        }
      ],
      "payable": false,
      "stateMutability": "nonpayable",
      "type": "constructor"
    },
    {
      "anonymous": false,
      "inputs": [
        {
          "indexed": true,
          "name": "lockProductId",
          "type": "uint32"
        },
        {
          "indexed": false,
          "name": "perTermInterest",
          "type": "uint32"
        },
        {
          "indexed": false,
          "name": "durationInSecs",
          "type": "uint32"
        },
        {
          "indexed": false,
          "name": "minimumLockAmount",
          "type": "uint32"
        },
        {
          "indexed": false,
          "name": "isActive",
          "type": "bool"
        }
      ],
      "name": "NewLockProduct",
      "type": "event"
    },
    {
      "anonymous": false,
      "inputs": [
        {
          "indexed": true,
          "name": "lockProductId",
          "type": "uint32"
        },
        {
          "indexed": false,
          "name": "newActiveState",
          "type": "bool"
        }
      ],
      "name": "LockProductActiveChange",
      "type": "event"
    },
    {
      "anonymous": false,
      "inputs": [
        {
          "indexed": true,
          "name": "lockOwner",
          "type": "address"
        },
        {
          "indexed": false,
          "name": "lockId",
          "type": "uint256"
        },
        {
          "indexed": false,
          "name": "amountLocked",
          "type": "uint256"
        },
        {
          "indexed": false,
          "name": "interestEarned",
          "type": "uint256"
        },
        {
          "indexed": false,
          "name": "lockedUntil",
          "type": "uint40"
        },
        {
          "indexed": false,
          "name": "perTermInterest",
          "type": "uint32"
        },
        {
          "indexed": false,
          "name": "durationInSecs",
          "type": "uint32"
        }
      ],
      "name": "NewLock",
      "type": "event"
    },
    {
      "anonymous": false,
      "inputs": [
        {
          "indexed": true,
          "name": "lockOwner",
          "type": "address"
        },
        {
          "indexed": false,
          "name": "lockId",
          "type": "uint256"
        }
      ],
      "name": "LockReleased",
      "type": "event"
    },
    {
      "anonymous": false,
      "inputs": [
        {
          "indexed": false,
          "name": "newMonetarySupervisor",
          "type": "address"
        }
      ],
      "name": "MonetarySupervisorChanged",
      "type": "event"
    },
    {
      "anonymous": false,
      "inputs": [
        {
          "indexed": true,
          "name": "agent",
          "type": "address"
        },
        {
          "indexed": false,
          "name": "grantedPermission",
          "type": "bytes32"
        }
      ],
      "name": "PermissionGranted",
      "type": "event"
    },
    {
      "anonymous": false,
      "inputs": [
        {
          "indexed": true,
          "name": "agent",
          "type": "address"
        },
        {
          "indexed": false,
          "name": "revokedPermission",
          "type": "bytes32"
        }
      ],
      "name": "PermissionRevoked",
      "type": "event"
    },
    {
      "constant": false,
      "inputs": [
        {
          "name": "perTermInterest",
          "type": "uint32"
        },
        {
          "name": "durationInSecs",
          "type": "uint32"
        },
        {
          "name": "minimumLockAmount",
          "type": "uint32"
        },
        {
          "name": "isActive",
          "type": "bool"
        }
      ],
      "name": "addLockProduct",
      "outputs": [],
      "payable": false,
      "stateMutability": "nonpayable",
      "type": "function"
    },
    {
      "constant": false,
      "inputs": [
        {
          "name": "lockProductId",
          "type": "uint32"
        },
        {
          "name": "isActive",
          "type": "bool"
        }
      ],
      "name": "setLockProductActiveState",
      "outputs": [],
      "payable": false,
      "stateMutability": "nonpayable",
      "type": "function"
    },
    {
      "constant": false,
      "inputs": [
        {
          "name": "from",
          "type": "address"
        },
        {
          "name": "amountToLock",
          "type": "uint256"
        },
        {
          "name": "_lockProductId",
          "type": "uint256"
        }
      ],
      "name": "transferNotification",
      "outputs": [],
      "payable": false,
      "stateMutability": "nonpayable",
      "type": "function"
    },
    {
      "constant": false,
      "inputs": [
        {
          "name": "lockId",
          "type": "uint256"
        }
      ],
      "name": "releaseFunds",
      "outputs": [],
      "payable": false,
      "stateMutability": "nonpayable",
      "type": "function"
    },
    {
      "constant": false,
      "inputs": [
        {
          "name": "newMonetarySupervisor",
          "type": "address"
        }
      ],
      "name": "setMonetarySupervisor",
      "outputs": [],
      "payable": false,
      "stateMutability": "nonpayable",
      "type": "function"
    },
    {
      "constant": true,
      "inputs": [],
      "name": "getLockProductCount",
      "outputs": [
        {
          "name": "",
          "type": "uint256"
        }
      ],
      "payable": false,
      "stateMutability": "view",
      "type": "function"
    },
    {
      "constant": true,
      "inputs": [
        {
          "name": "offset",
          "type": "uint256"
        }
      ],
      "name": "getLockProducts",
      "outputs": [
        {
          "name": "response",
          "type": "uint256[5][100]"
        }
      ],
      "payable": false,
      "stateMutability": "view",
      "type": "function"
    },
    {
      "constant": true,
      "inputs": [],
      "name": "getLockCount",
      "outputs": [
        {
          "name": "",
          "type": "uint256"
        }
      ],
      "payable": false,
      "stateMutability": "view",
      "type": "function"
    },
    {
      "constant": true,
      "inputs": [
        {
          "name": "lockOwner",
          "type": "address"
        }
      ],
      "name": "getLockCountForAddress",
      "outputs": [
        {
          "name": "",
          "type": "uint256"
        }
      ],
      "payable": false,
      "stateMutability": "view",
      "type": "function"
    },
    {
      "constant": true,
      "inputs": [
        {
          "name": "offset",
          "type": "uint256"
        }
      ],
      "name": "getLocks",
      "outputs": [
        {
          "name": "response",
          "type": "uint256[8][100]"
        }
      ],
      "payable": false,
      "stateMutability": "view",
      "type": "function"
    },
    {
      "constant": true,
      "inputs": [
        {
          "name": "lockOwner",
          "type": "address"
        },
        {
          "name": "offset",
          "type": "uint256"
        }
      ],
      "name": "getLocksForAddress",
      "outputs": [
        {
          "name": "response",
          "type": "uint256[7][100]"
        }
      ],
      "payable": false,
      "stateMutability": "view",
      "type": "function"
    },
    {
      "constant": true,
      "inputs": [
        {
          "name": "perTermInterest",
          "type": "uint32"
        },
        {
          "name": "amountToLock",
          "type": "uint256"
        }
      ],
      "name": "calculateInterest",
      "outputs": [
        {
          "name": "interestEarned",
          "type": "uint256"
        }
      ],
      "payable": false,
      "stateMutability": "pure",
      "type": "function"
    }
  ],
  "bytecode": "0x608060405234801561001057600080fd5b50604051604080612f1c833981018060405281019080805190602001909291908051906020019092919050505060016000803373ffffffffffffffffffffffffffffffffffffffff1673ffffffffffffffffffffffffffffffffffffffff16815260200190815260200160002060007f4d6f6e6574617279426f6172640000000000000000000000000000000000000060001916815260200190815260200160002060006101000a81548160ff0219169083151502179055503373ffffffffffffffffffffffffffffffffffffffff167fc65937e3dbcb9fb30f646815dd67a3dbd09ba17718cbcb54efbe3635f8e0a6fe60405180807f4d6f6e6574617279426f61726400000000000000000000000000000000000000815250602001905060405180910390a281600160006101000a81548173ffffffffffffffffffffffffffffffffffffffff021916908373ffffffffffffffffffffffffffffffffffffffff16021790555080600260006101000a81548173ffffffffffffffffffffffffffffffffffffffff021916908373ffffffffffffffffffffffffffffffffffffffff1602179055505050612d52806101ca6000396000f300608060405260043610610133576000357c0100000000000000000000000000000000000000000000000000000000900463ffffffff16806314f6c8da14610138578063169f66df146101b6578063277a68891461020d57806344fcbd791461025e5780634d68282f1461030a5780634de16053146103375780635b225526146103625780635fe07013146103cb57806364e7e4a41461041c5780637b9b9c89146104735780637ea46993146104ca57806389952c891461055057806390f549ba1461059357806394493c43146105ea5780639ac3317b14610615578063c29ab95b1461069b578063c3b75b8f146106fc578063c57c3bbd1461073b578063c6d8f0c41461079a578063e18a913414610826578063e91e13a9146108b2578063f38a8262146108dd578063f4dadc611461092e575b600080fd5b34801561014457600080fd5b50610163600480360381019080803590602001909291905050506109d5565b604051808563ffffffff1663ffffffff1681526020018463ffffffff1663ffffffff1681526020018363ffffffff1663ffffffff1681526020018215151515815260200194505050505060405180910390f35b3480156101c257600080fd5b506101cb610a4d565b604051808273ffffffffffffffffffffffffffffffffffffffff1673ffffffffffffffffffffffffffffffffffffffff16815260200191505060405180910390f35b34801561021957600080fd5b50610248600480360381019080803563ffffffff16906020019092919080359060200190929190505050610a73565b6040518082815260200191505060405180910390f35b34801561026a57600080fd5b506102a9600480360381019080803573ffffffffffffffffffffffffffffffffffffffff16906020019092919080359060200190929190505050610aab565b604051808260646000925b818410156102fa5782846020020151600760200280838360005b838110156102e95780820151818401526020810190506102ce565b5050505090500192600101926102b4565b9250505091505060405180910390f35b34801561031657600080fd5b5061033560048036038101908080359060200190929190505050610cb6565b005b34801561034357600080fd5b5061034c611181565b6040518082815260200191505060405180910390f35b34801561036e57600080fd5b506103b1600480360381019080803573ffffffffffffffffffffffffffffffffffffffff169060200190929190803560001916906020019092919050505061118e565b604051808215151515815260200191505060405180910390f35b3480156103d757600080fd5b5061041a600480360381019080803573ffffffffffffffffffffffffffffffffffffffff16906020019092919080356000191690602001909291905050506111bd565b005b34801561042857600080fd5b50610471600480360381019080803573ffffffffffffffffffffffffffffffffffffffff16906020019092919080359060200190929190803590602001909291905050506113a2565b005b34801561047f57600080fd5b5061048861157d565b604051808273ffffffffffffffffffffffffffffffffffffffff1673ffffffffffffffffffffffffffffffffffffffff16815260200191505060405180910390f35b3480156104d657600080fd5b5061054e600480360381019080803573ffffffffffffffffffffffffffffffffffffffff169060200190929190803590602001908201803590602001908080602002602001604051908101604052809392919081815260200183836020028082843782019150505050505091929192905050506115a3565b005b34801561055c57600080fd5b50610591600480360381019080803573ffffffffffffffffffffffffffffffffffffffff1690602001909291905050506115eb565b005b34801561059f57600080fd5b506105d4600480360381019080803573ffffffffffffffffffffffffffffffffffffffff16906020019092919050505061178d565b6040518082815260200191505060405180910390f35b3480156105f657600080fd5b506105ff6117d9565b6040518082815260200191505060405180910390f35b34801561062157600080fd5b50610699600480360381019080803573ffffffffffffffffffffffffffffffffffffffff169060200190929190803590602001908201803590602001908080602002602001604051908101604052809392919081815260200183836020028082843782019150505050505091929192905050506117e6565b005b3480156106a757600080fd5b506106e6600480360381019080803573ffffffffffffffffffffffffffffffffffffffff16906020019092919080359060200190929190505050611949565b6040518082815260200191505060405180910390f35b34801561070857600080fd5b50610739600480360381019080803563ffffffff169060200190929190803515159060200190929190505050611979565b005b34801561074757600080fd5b50610798600480360381019080803563ffffffff169060200190929190803563ffffffff169060200190929190803563ffffffff169060200190929190803515159060200190929190505050611b76565b005b3480156107a657600080fd5b506107c560048036038101908080359060200190929190505050611e75565b604051808260646000925b818410156108165782846020020151600860200280838360005b838110156108055780820151818401526020810190506107ea565b5050505090500192600101926107d0565b9250505091505060405180910390f35b34801561083257600080fd5b506108516004803603810190808035906020019092919050505061204d565b604051808260646000925b818410156108a25782846020020151600560200280838360005b83811015610891578082015181840152602081019050610876565b50505050905001926001019261085c565b9250505091505060405180910390f35b3480156108be57600080fd5b506108c761226d565b6040518082815260200191505060405180910390f35b3480156108e957600080fd5b5061092c600480360381019080803573ffffffffffffffffffffffffffffffffffffffff1690602001909291908035600019169060200190929190505050612272565b005b34801561093a57600080fd5b5061095960048036038101908080359060200190929190505050612457565b604051808681526020018573ffffffffffffffffffffffffffffffffffffffff1673ffffffffffffffffffffffffffffffffffffffff1681526020018463ffffffff1663ffffffff1681526020018364ffffffffff1664ffffffffff168152602001821515151581526020019550505050505060405180910390f35b6003818154811015156109e457fe5b906000526020600020016000915090508060000160009054906101000a900463ffffffff16908060000160049054906101000a900463ffffffff16908060000160089054906101000a900463ffffffff169080600001600c9054906101000a900460ff16905084565b600260009054906101000a900473ffffffffffffffffffffffffffffffffffffffff1681565b6000610aa3620f4240610a958563ffffffff16856124ea90919063ffffffff16565b61258990919063ffffffff16565b905092915050565b610ab3612c2f565b6000806000806000600560008973ffffffffffffffffffffffffffffffffffffffff1673ffffffffffffffffffffffffffffffffffffffff1681526020019081526020016000209450600093505b60648461ffff161015610cab5784805490508461ffff168801101515610b2657610cab565b6004858561ffff168901815481101515610b3c57fe5b9060005260206000200154815481101515610b5357fe5b9060005260206000209060020201925060038360010160149054906101000a900463ffffffff1663ffffffff16815481101515610b8c57fe5b906000526020600020019150610bba8260000160009054906101000a900463ffffffff168460000154610a73565b905060e060405190810160405280868661ffff168a01815481101515610bdc57fe5b90600052602060002001548152602001846000015481526020018281526020018460010160189054906101000a900464ffffffffff1664ffffffffff1681526020018360000160009054906101000a900463ffffffff1663ffffffff1681526020018360000160049054906101000a900463ffffffff1663ffffffff16815260200184600101601d9054906101000a900460ff16610c7b576000610c7e565b60015b60ff16815250868561ffff16606481101515610c9657fe5b60200201819052508380600101945050610b01565b505050505092915050565b600080600060048054905084101515610d37576040517f08c379a000000000000000000000000000000000000000000000000000000000815260040180806020018281038252600e8152602001807f696e76616c6964206c6f636b496400000000000000000000000000000000000081525060200191505060405180910390fd5b600484815481101515610d4657fe5b9060005260206000209060020201925060038360010160149054906101000a900463ffffffff1663ffffffff16815481101515610d7f57fe5b90600052602060002001915082600101601d9054906101000a900460ff161515610e11576040517f08c379a000000000000000000000000000000000000000000000000000000000815260040180806020018281038252601c8152602001807f6c6f636b206d75737420626520696e206163746976652073746174650000000081525060200191505060405180910390fd5b8260010160189054906101000a900464ffffffffff1664ffffffffff164210151515610ecb576040517f08c379a000000000000000000000000000000000000000000000000000000000815260040180806020018281038252602b8152602001807f63757272656e742074696d65206d757374206265206c61746572207468616e2081526020017f6c6f636b6564556e74696c00000000000000000000000000000000000000000081525060400191505060405180910390fd5b600083600101601d6101000a81548160ff021916908315150217905550610f0a8260000160009054906101000a900463ffffffff168460000154610a73565b9050600260009054906101000a900473ffffffffffffffffffffffffffffffffffffffff1673ffffffffffffffffffffffffffffffffffffffff1663295777be84600001546040518263ffffffff167c010000000000000000000000000000000000000000000000000000000002815260040180828152602001915050600060405180830381600087803b158015610fa157600080fd5b505af1158015610fb5573d6000803e3d6000fd5b50505050600160009054906101000a900473ffffffffffffffffffffffffffffffffffffffff1673ffffffffffffffffffffffffffffffffffffffff1663ffdcf0958460010160009054906101000a900473ffffffffffffffffffffffffffffffffffffffff1661103384876000015461261c90919063ffffffff16565b6040518363ffffffff167c0100000000000000000000000000000000000000000000000000000000028152600401808373ffffffffffffffffffffffffffffffffffffffff1673ffffffffffffffffffffffffffffffffffffffff16815260200182815260200180602001828103825260188152602001807f46756e64732072656c65617365642066726f6d206c6f636b00000000000000008152506020019350505050600060405180830381600087803b1580156110f157600080fd5b505af1158015611105573d6000803e3d6000fd5b505050508260010160009054906101000a900473ffffffffffffffffffffffffffffffffffffffff1673ffffffffffffffffffffffffffffffffffffffff167f622ca42598ab680a7def4a7346e1963a82207cf42a5ddb8056ad62cfbda19b88856040518082815260200191505060405180910390a250505050565b6000600380549050905090565b60006020528160005260406000206020528060005260406000206000915091509054906101000a900460ff1681565b6000803373ffffffffffffffffffffffffffffffffffffffff1673ffffffffffffffffffffffffffffffffffffffff16815260200190815260200160002060007f4d6f6e6574617279426f6172640000000000000000000000000000000000000060001916815260200190815260200160002060009054906101000a900460ff1615156112d8576040517f08c379a000000000000000000000000000000000000000000000000000000000815260040180806020018281038252602d8152602001807f6d73672e73656e646572206d7573742068617665204d6f6e6574617279426f6181526020017f7264207065726d697373696f6e0000000000000000000000000000000000000081525060400191505060405180910390fd5b60008060008473ffffffffffffffffffffffffffffffffffffffff1673ffffffffffffffffffffffffffffffffffffffff1681526020019081526020016000206000836000191660001916815260200190815260200160002060006101000a81548160ff0219169083151502179055508173ffffffffffffffffffffffffffffffffffffffff167f789770131846de4d1f28418f0f957cdf4fcabe5eccf70067083e20ecece69a348260405180826000191660001916815260200191505060405180910390a25050565b6000600160009054906101000a900473ffffffffffffffffffffffffffffffffffffffff1673ffffffffffffffffffffffffffffffffffffffff163373ffffffffffffffffffffffffffffffffffffffff16141515611469576040517f08c379a000000000000000000000000000000000000000000000000000000000815260040180806020018281038252601f8152602001807f6d73672e73656e646572206d757374206265206175676d696e74546f6b656e0081525060200191505060405180910390fd5b6003805490508163ffffffff161015156114eb576040517f08c379a00000000000000000000000000000000000000000000000000000000081526004018080602001828103825260158152602001807f696e76616c6964206c6f636b50726f647563744964000000000000000000000081525060200191505060405180910390fd5b819050818163ffffffff1614151561156b576040517f08c379a00000000000000000000000000000000000000000000000000000000081526004018080602001828103825260168152602001807f6c6f636b50726f647563744964206f766572666c6f770000000000000000000081525060200191505060405180910390fd5b6115768185856126a6565b5050505050565b600160009054906101000a900473ffffffffffffffffffffffffffffffffffffffff1681565b60008082519150600090505b818110156115e5576115d88484838151811015156115c957fe5b906020019060200201516111bd565b80806001019150506115af565b50505050565b7f4d6f6e6574617279426f617264000000000000000000000000000000000000006000803373ffffffffffffffffffffffffffffffffffffffff1673ffffffffffffffffffffffffffffffffffffffff1681526020019081526020016000206000826000191660001916815260200190815260200160002060009054906101000a900460ff1615156116e5576040517f08c379a000000000000000000000000000000000000000000000000000000000815260040180806020018281038252601f8152602001807f6d73672e73656e646572206d7573742068617665207065726d697373696f6e0081525060200191505060405180910390fd5b81600260006101000a81548173ffffffffffffffffffffffffffffffffffffffff021916908373ffffffffffffffffffffffffffffffffffffffff1602179055507f230749e2d30c004ff4cbe604d7814ccdf13042c157f2690d47e2585997e470c082604051808273ffffffffffffffffffffffffffffffffffffffff1673ffffffffffffffffffffffffffffffffffffffff16815260200191505060405180910390a15050565b6000600560008373ffffffffffffffffffffffffffffffffffffffff1673ffffffffffffffffffffffffffffffffffffffff168152602001908152602001600020805490509050919050565b6000600480549050905090565b6000806000803373ffffffffffffffffffffffffffffffffffffffff1673ffffffffffffffffffffffffffffffffffffffff16815260200190815260200160002060007f4d6f6e6574617279426f6172640000000000000000000000000000000000000060001916815260200190815260200160002060009054906101000a900460ff161515611904576040517f08c379a000000000000000000000000000000000000000000000000000000000815260040180806020018281038252602d8152602001807f6d73672e73656e646572206d7573742068617665204d6f6e6574617279426f6181526020017f7264207065726d697373696f6e0000000000000000000000000000000000000081525060400191505060405180910390fd5b82519150600090505b818110156119435761193684848381518110151561192757fe5b90602001906020020151612272565b808060010191505061190d565b50505050565b60056020528160005260406000208181548110151561196457fe5b90600052602060002001600091509150505481565b7f4d6f6e6574617279426f617264000000000000000000000000000000000000006000803373ffffffffffffffffffffffffffffffffffffffff1673ffffffffffffffffffffffffffffffffffffffff1681526020019081526020016000206000826000191660001916815260200190815260200160002060009054906101000a900460ff161515611a73576040517f08c379a000000000000000000000000000000000000000000000000000000000815260040180806020018281038252601f8152602001807f6d73672e73656e646572206d7573742068617665207065726d697373696f6e0081525060200191505060405180910390fd5b6003805490508363ffffffff16101515611af5576040517f08c379a00000000000000000000000000000000000000000000000000000000081526004018080602001828103825260158152602001807f696e76616c6964206c6f636b50726f647563744964000000000000000000000081525060200191505060405180910390fd5b8160038463ffffffff16815481101515611b0b57fe5b90600052602060002001600001600c6101000a81548160ff0219169083151502179055508263ffffffff167f8b86e3e2da15c800fc123a7c2555729cf7819f68bdf7d98a97a80c43d051bc9f83604051808215151515815260200191505060405180910390a2505050565b6000807f4d6f6e6574617279426f617264000000000000000000000000000000000000006000803373ffffffffffffffffffffffffffffffffffffffff1673ffffffffffffffffffffffffffffffffffffffff1681526020019081526020016000206000826000191660001916815260200190815260200160002060009054906101000a900460ff161515611c73576040517f08c379a000000000000000000000000000000000000000000000000000000000815260040180806020018281038252601f8152602001807f6d73672e73656e646572206d7573742068617665207065726d697373696f6e0081525060200191505060405180910390fd5b600160036080604051908101604052808a63ffffffff1681526020018963ffffffff1681526020018863ffffffff16815260200187151581525090806001815401808255809150509060018203906000526020600020016000909192909190915060008201518160000160006101000a81548163ffffffff021916908363ffffffff16021790555060208201518160000160046101000a81548163ffffffff021916908363ffffffff16021790555060408201518160000160086101000a81548163ffffffff021916908363ffffffff160217905550606082015181600001600c6101000a81548160ff0219169083151502179055505050039250829150828263ffffffff16141515611dee576040517f08c379a00000000000000000000000000000000000000000000000000000000081526004018080602001828103825260148152602001807f6c6f636b50726f64756374206f766572666c6f7700000000000000000000000081525060200191505060405180910390fd5b8163ffffffff167f1f8c90040d4429f522e53fbe964004b66d66b4fd7a31d87359d1813adc33568e88888888604051808563ffffffff1663ffffffff1681526020018463ffffffff1663ffffffff1681526020018363ffffffff1663ffffffff1681526020018215151515815260200194505050505060405180910390a250505050505050565b611e7d612c5e565b600080600080600093505b60648461ffff161015612044576004805490508461ffff168701101515611eae57612044565b60048461ffff168701815481101515611ec357fe5b9060005260206000209060020201925060038360010160149054906101000a900463ffffffff1663ffffffff16815481101515611efc57fe5b906000526020600020019150611f2a8260000160009054906101000a900463ffffffff168460000154610a73565b9050610100604051908101604052808561ffff16880181526020018460010160009054906101000a900473ffffffffffffffffffffffffffffffffffffffff1673ffffffffffffffffffffffffffffffffffffffff168152602001846000015481526020018281526020018460010160189054906101000a900464ffffffffff1664ffffffffff1681526020018360000160009054906101000a900463ffffffff1663ffffffff1681526020018360000160049054906101000a900463ffffffff1663ffffffff16815260200184600101601d9054906101000a900460ff16612014576000612017565b60015b60ff16815250858561ffff1660648110151561202f57fe5b60200201819052508380600101945050611e88565b50505050919050565b612055612c8d565b600080600091505b60648260ff161015612266576003805490508260ff16850110151561208157612266565b60038260ff16850181548110151561209557fe5b90600052602060002001905060a0604051908101604052808260000160009054906101000a900463ffffffff1663ffffffff1681526020018260000160049054906101000a900463ffffffff1663ffffffff1681526020018260000160089054906101000a900463ffffffff1663ffffffff168152602001600260009054906101000a900473ffffffffffffffffffffffffffffffffffffffff1673ffffffffffffffffffffffffffffffffffffffff1663265b5d938460000160089054906101000a900463ffffffff168560000160009054906101000a900463ffffffff166040518363ffffffff167c0100000000000000000000000000000000000000000000000000000000028152600401808363ffffffff1681526020018263ffffffff16815260200192505050602060405180830381600087803b1580156121da57600080fd5b505af11580156121ee573d6000803e3d6000fd5b505050506040513d602081101561220457600080fd5b8101908080519060200190929190505050815260200182600001600c9054906101000a900460ff1661223757600061223a565b60015b60ff16815250838360ff1660648110151561225157fe5b6020020181905250818060010192505061205d565b5050919050565b606481565b6000803373ffffffffffffffffffffffffffffffffffffffff1673ffffffffffffffffffffffffffffffffffffffff16815260200190815260200160002060007f4d6f6e6574617279426f6172640000000000000000000000000000000000000060001916815260200190815260200160002060009054906101000a900460ff16151561238d576040517f08c379a000000000000000000000000000000000000000000000000000000000815260040180806020018281038252602d8152602001807f6d73672e73656e646572206d7573742068617665204d6f6e6574617279426f6181526020017f7264207065726d697373696f6e0000000000000000000000000000000000000081525060400191505060405180910390fd5b60016000808473ffffffffffffffffffffffffffffffffffffffff1673ffffffffffffffffffffffffffffffffffffffff1681526020019081526020016000206000836000191660001916815260200190815260200160002060006101000a81548160ff0219169083151502179055508173ffffffffffffffffffffffffffffffffffffffff167fc65937e3dbcb9fb30f646815dd67a3dbd09ba17718cbcb54efbe3635f8e0a6fe8260405180826000191660001916815260200191505060405180910390a25050565b60048181548110151561246657fe5b90600052602060002090600202016000915090508060000154908060010160009054906101000a900473ffffffffffffffffffffffffffffffffffffffff16908060010160149054906101000a900463ffffffff16908060010160189054906101000a900464ffffffffff169080600101601d9054906101000a900460ff16905085565b6000808284029050600084148061250b575082848281151561250857fe5b04145b151561257f576040517f08c379a000000000000000000000000000000000000000000000000000000000815260040180806020018281038252600c8152602001807f6d756c206f766572666c6f77000000000000000000000000000000000000000081525060200191505060405180910390fd5b8091505092915050565b600080600083111515612604576040517f08c379a00000000000000000000000000000000000000000000000000000000081526004018080602001828103825260088152602001807f646976206279203000000000000000000000000000000000000000000000000081525060200191505060405180910390fd5b828481151561260f57fe5b0490508091505092915050565b600080828401905083811015151561269c576040517f08c379a000000000000000000000000000000000000000000000000000000000815260040180806020018281038252600c8152602001807f616464206f766572666c6f77000000000000000000000000000000000000000081525060200191505060405180910390fd5b8091505092915050565b600080600080600060038863ffffffff168154811015156126c357fe5b90600052602060002001935083600001600c9054906101000a900460ff16151561277b576040517f08c379a00000000000000000000000000000000000000000000000000000000081526004018080602001828103825260238152602001807f6c6f636b50726f64756374206d75737420626520696e2061637469766520737481526020017f617465000000000000000000000000000000000000000000000000000000000081525060400191505060405180910390fd5b8360000160089054906101000a900463ffffffff1663ffffffff168610151515612833576040517f08c379a00000000000000000000000000000000000000000000000000000000081526004018080602001828103825260298152602001807f616d6f756e74546f4c6f636b206d757374206265203e3d206d696e696d756d4c81526020017f6f636b416d6f756e74000000000000000000000000000000000000000000000081525060400191505060405180910390fd5b6128518460000160009054906101000a900463ffffffff1687610a73565b92506128808460000160049054906101000a900463ffffffff1663ffffffff164261261c90919063ffffffff16565b9150819050818164ffffffffff16141515612903576040517f08c379a00000000000000000000000000000000000000000000000000000000081526004018080602001828103825260148152602001807f6c6f636b6564556e74696c206f766572666c6f7700000000000000000000000081525060200191505060405180910390fd5b6001600460a0604051908101604052808981526020018a73ffffffffffffffffffffffffffffffffffffffff1681526020018b63ffffffff1681526020018464ffffffffff16815260200160011515815250908060018154018082558091505090600182039060005260206000209060020201600090919290919091506000820151816000015560208201518160010160006101000a81548173ffffffffffffffffffffffffffffffffffffffff021916908373ffffffffffffffffffffffffffffffffffffffff16021790555060408201518160010160146101000a81548163ffffffff021916908363ffffffff16021790555060608201518160010160186101000a81548164ffffffffff021916908364ffffffffff160217905550608082015181600101601d6101000a81548160ff0219169083151502179055505050039450600560008873ffffffffffffffffffffffffffffffffffffffff1673ffffffffffffffffffffffffffffffffffffffff168152602001908152602001600020859080600181540180825580915050906001820390600052602060002001600090919290919091505550600260009054906101000a900473ffffffffffffffffffffffffffffffffffffffff1673ffffffffffffffffffffffffffffffffffffffff166364217bdf87856040518363ffffffff167c01000000000000000000000000000000000000000000000000000000000281526004018083815260200182815260200192505050600060405180830381600087803b158015612b4857600080fd5b505af1158015612b5c573d6000803e3d6000fd5b505050508673ffffffffffffffffffffffffffffffffffffffff167fa69aa1880e9e76a4474a64a1bc8d02f6eb94abe59641a4d8e858b2c66c768dcf868886858960000160009054906101000a900463ffffffff168a60000160049054906101000a900463ffffffff16604051808781526020018681526020018581526020018464ffffffffff1664ffffffffff1681526020018363ffffffff1663ffffffff1681526020018263ffffffff1663ffffffff168152602001965050505050505060405180910390a2505050509392505050565b615780604051908101604052806064905b612c48612cbc565b815260200190600190039081612c405790505090565b616400604051908101604052806064905b612c77612cdf565b815260200190600190039081612c6f5790505090565b613e80604051908101604052806064905b612ca6612d03565b815260200190600190039081612c9e5790505090565b60e060405190810160405280600790602082028038833980820191505090505090565b61010060405190810160405280600890602082028038833980820191505090505090565b60a0604051908101604052806005906020820280388339808201915050905050905600a165627a7a72305820a9bdfb6f5b380ba3a4c74cb8cc26510f283511788030206adef2e0c604f54a460029",
  "source": "/* contract for tracking locked funds\n\n requirements\n  -> lock funds\n  -> unlock funds\n  -> index locks by address\n\n For flows see: https://github.com/Augmint/augmint-contracts/blob/master/docs/lockFlow.png\n\n TODO / think about:\n  -> self-destruct function?\n\n*/\n\npragma solidity ^0.4.23;\n\nimport \"./generic/Restricted.sol\";\nimport \"./generic/SafeMath.sol\";\nimport \"./interfaces/AugmintTokenInterface.sol\";\nimport \"./MonetarySupervisor.sol\";\nimport \"./interfaces/TokenReceiver.sol\";\n\n\ncontract Locker is Restricted, TokenReceiver {\n\n    using SafeMath for uint256;\n\n    uint public constant CHUNK_SIZE = 100;\n\n    event NewLockProduct(uint32 indexed lockProductId, uint32 perTermInterest, uint32 durationInSecs,\n                            uint32 minimumLockAmount, bool isActive);\n\n    event LockProductActiveChange(uint32 indexed lockProductId, bool newActiveState);\n\n    // NB: amountLocked includes the original amount, plus interest\n    event NewLock(address indexed lockOwner, uint lockId, uint amountLocked, uint interestEarned,\n                    uint40 lockedUntil, uint32 perTermInterest, uint32 durationInSecs);\n\n    event LockReleased(address indexed lockOwner, uint lockId);\n\n    event MonetarySupervisorChanged(MonetarySupervisor newMonetarySupervisor);\n\n    struct LockProduct {\n        // perTermInterest is in millionths (i.e. 1,000,000 = 100%):\n        uint32 perTermInterest;\n        uint32 durationInSecs;\n        uint32 minimumLockAmount;\n        bool isActive;\n    }\n\n    /* NB: we don't need to store lock parameters because lockProducts can't be altered (only disabled/enabled) */\n    struct Lock {\n        uint amountLocked;\n        address owner;\n        uint32 productId;\n        uint40 lockedUntil;\n        bool isActive;\n    }\n\n    AugmintTokenInterface public augmintToken;\n    MonetarySupervisor public monetarySupervisor;\n\n    LockProduct[] public lockProducts;\n\n    Lock[] public locks;\n\n    // lock ids for an account\n    mapping(address => uint[]) public accountLocks;\n\n    constructor(AugmintTokenInterface _augmintToken, MonetarySupervisor _monetarySupervisor) public {\n\n        augmintToken = _augmintToken;\n        monetarySupervisor = _monetarySupervisor;\n\n    }\n\n    function addLockProduct(uint32 perTermInterest, uint32 durationInSecs, uint32 minimumLockAmount, bool isActive)\n    external restrict(\"MonetaryBoard\") {\n\n        uint _newLockProductId = lockProducts.push(\n                                    LockProduct(perTermInterest, durationInSecs, minimumLockAmount, isActive)) - 1;\n        uint32 newLockProductId = uint32(_newLockProductId);\n        require(newLockProductId == _newLockProductId, \"lockProduct overflow\");\n        emit NewLockProduct(newLockProductId, perTermInterest, durationInSecs, minimumLockAmount, isActive);\n\n    }\n\n    function setLockProductActiveState(uint32 lockProductId, bool isActive) external restrict(\"MonetaryBoard\") {\n        // next line would revert but require to emit reason:\n        require(lockProductId < lockProducts.length, \"invalid lockProductId\");\n\n        lockProducts[lockProductId].isActive = isActive;\n        emit LockProductActiveChange(lockProductId, isActive);\n\n    }\n\n    /* lock funds, called from AugmintToken's transferAndNotify\n     Flow for locking tokens:\n        1) user calls token contract's transferAndNotify lockProductId passed in data arg\n        2) transferAndNotify transfers tokens to the Lock contract\n        3) transferAndNotify calls Lock.transferNotification with lockProductId\n    */\n    function transferNotification(address from, uint256 amountToLock, uint _lockProductId) external {\n        require(msg.sender == address(augmintToken), \"msg.sender must be augmintToken\");\n        // next line would revert but require to emit reason:\n        require(lockProductId < lockProducts.length, \"invalid lockProductId\");\n        uint32 lockProductId = uint32(_lockProductId);\n        require(lockProductId == _lockProductId, \"lockProductId overflow\");\n        /* TODO: make data arg generic bytes\n            uint productId;\n            assembly { // solhint-disable-line no-inline-assembly\n                productId := mload(data)\n        } */\n        _createLock(lockProductId, from, amountToLock);\n    }\n\n    function releaseFunds(uint lockId) external {\n        // next line would revert but require to emit reason:\n        require(lockId < locks.length, \"invalid lockId\");\n        Lock storage lock = locks[lockId];\n        LockProduct storage lockProduct = lockProducts[lock.productId];\n\n        require(lock.isActive, \"lock must be in active state\");\n        require(now >= lock.lockedUntil, \"current time must be later than lockedUntil\");\n\n        lock.isActive = false;\n\n        uint interestEarned = calculateInterest(lockProduct.perTermInterest, lock.amountLocked);\n\n        monetarySupervisor.releaseFundsNotification(lock.amountLocked); // to maintain totalLockAmount\n        augmintToken.transferWithNarrative(lock.owner, lock.amountLocked.add(interestEarned),\n                                                                                \"Funds released from lock\");\n\n        emit LockReleased(lock.owner, lockId);\n    }\n\n    function setMonetarySupervisor(MonetarySupervisor newMonetarySupervisor) external restrict(\"MonetaryBoard\") {\n        monetarySupervisor = newMonetarySupervisor;\n        emit MonetarySupervisorChanged(newMonetarySupervisor);\n    }\n\n    function getLockProductCount() external view returns (uint) {\n\n        return lockProducts.length;\n\n    }\n\n    // returns 20 lock products starting from some offset\n    // lock products are encoded as [ perTermInterest, durationInSecs, minimumLockAmount, maxLockAmount, isActive ]\n    function getLockProducts(uint offset) external view returns (uint[5][CHUNK_SIZE] response) {\n        for (uint8 i = 0; i < CHUNK_SIZE; i++) {\n\n            if (offset + i >= lockProducts.length) { break; }\n\n            LockProduct storage lockProduct = lockProducts[offset + i];\n\n            response[i] = [ lockProduct.perTermInterest, lockProduct.durationInSecs, lockProduct.minimumLockAmount,\n                        monetarySupervisor.getMaxLockAmount(lockProduct.minimumLockAmount, lockProduct.perTermInterest),\n                        lockProduct.isActive ? 1 : 0 ];\n        }\n    }\n\n    function getLockCount() external view returns (uint) {\n        return locks.length;\n    }\n\n    function getLockCountForAddress(address lockOwner) external view returns (uint) {\n        return accountLocks[lockOwner].length;\n    }\n\n    // returns CHUNK_SIZE locks starting from some offset\n    // lock products are encoded as\n    //       [lockId, owner, amountLocked, interestEarned, lockedUntil, perTermInterest, durationInSecs, isActive ]\n    // NB: perTermInterest is in millionths (i.e. 1,000,000 = 100%):\n    function getLocks(uint offset) external view returns (uint[8][CHUNK_SIZE] response) {\n\n        for (uint16 i = 0; i < CHUNK_SIZE; i++) {\n\n            if (offset + i >= locks.length) { break; }\n\n            Lock storage lock = locks[offset + i];\n            LockProduct storage lockProduct = lockProducts[lock.productId];\n\n            uint interestEarned = calculateInterest(lockProduct.perTermInterest, lock.amountLocked);\n\n            response[i] = [uint(offset + i), uint(lock.owner), lock.amountLocked, interestEarned, lock.lockedUntil,\n                                lockProduct.perTermInterest, lockProduct.durationInSecs, lock.isActive ? 1 : 0];\n        }\n    }\n\n    // returns CHUNK_SIZE locks of a given account, starting from some offset\n    // lock products are encoded as\n    //             [lockId, amountLocked, interestEarned, lockedUntil, perTermInterest, durationInSecs, isActive ]\n    function getLocksForAddress(address lockOwner, uint offset) external view returns (uint[7][CHUNK_SIZE] response) {\n\n        uint[] storage locksForAddress = accountLocks[lockOwner];\n\n        for (uint16 i = 0; i < CHUNK_SIZE; i++) {\n\n            if (offset + i >= locksForAddress.length) { break; }\n\n            Lock storage lock = locks[locksForAddress[offset + i]];\n            LockProduct storage lockProduct = lockProducts[lock.productId];\n\n            uint interestEarned = calculateInterest(lockProduct.perTermInterest, lock.amountLocked);\n\n            response[i] = [ locksForAddress[offset + i], lock.amountLocked, interestEarned, lock.lockedUntil,\n                                lockProduct.perTermInterest, lockProduct.durationInSecs, lock.isActive ? 1 : 0 ];\n        }\n    }\n\n    function calculateInterest(uint32 perTermInterest, uint amountToLock) public pure returns (uint interestEarned) {\n        interestEarned = amountToLock.mul(perTermInterest).div(1000000);\n    }\n\n    // Internal function. assumes amountToLock is already transferred to this Lock contract\n    function _createLock(uint32 lockProductId, address lockOwner, uint amountToLock) internal returns(uint lockId) {\n        LockProduct storage lockProduct = lockProducts[lockProductId];\n        require(lockProduct.isActive, \"lockProduct must be in active state\");\n        require(amountToLock >= lockProduct.minimumLockAmount, \"amountToLock must be >= minimumLockAmount\");\n\n        uint interestEarned = calculateInterest(lockProduct.perTermInterest, amountToLock);\n        uint expiration = now.add(lockProduct.durationInSecs);\n        uint40 lockedUntil = uint40(expiration);\n        require(lockedUntil == expiration, \"lockedUntil overflow\");\n\n        lockId = locks.push(Lock(amountToLock, lockOwner, lockProductId, lockedUntil, true)) - 1;\n        accountLocks[lockOwner].push(lockId);\n\n        monetarySupervisor.requestInterest(amountToLock, interestEarned); // update KPIs & transfer interest here\n\n        emit NewLock(lockOwner, lockId, amountToLock, interestEarned, lockedUntil, lockProduct.perTermInterest,\n                    lockProduct.durationInSecs);\n    }\n\n}\n",
  "sourcePath": "/Users/petro/ether/augmint-ratesfeeder/augmint-contracts/contracts/Locker.sol",
  "compiler": {
    "name": "solc",
    "version": "0.4.23+commit.124ca40d.Emscripten.clang"
  },
  "schemaVersion": "2.0.0",
  "updatedAt": "2018-05-21T09:24:42.360Z"
}