{
  "contractName": "MonetarySupervisor",
  "abi": [
    {
      "constant": true,
      "inputs": [],
      "name": "totalLockedAmount",
      "outputs": [
        {
          "name": "",
          "type": "uint256"
        }
      ],
      "payable": false,
      "stateMutability": "view",
      "type": "function"
    },
    {
      "constant": true,
      "inputs": [],
      "name": "ltdParams",
      "outputs": [
        {
          "name": "lockDifferenceLimit",
          "type": "uint256"
        },
        {
          "name": "loanDifferenceLimit",
          "type": "uint256"
        },
        {
          "name": "allowedDifferenceAmount",
          "type": "uint256"
        }
      ],
      "payable": false,
      "stateMutability": "view",
      "type": "function"
    },
    {
      "constant": true,
      "inputs": [],
      "name": "totalLoanAmount",
      "outputs": [
        {
          "name": "",
          "type": "uint256"
        }
      ],
      "payable": false,
      "stateMutability": "view",
      "type": "function"
    },
    {
      "constant": true,
      "inputs": [],
      "name": "issuedByMonetaryBoard",
      "outputs": [
        {
          "name": "",
          "type": "uint256"
        }
      ],
      "payable": false,
      "stateMutability": "view",
      "type": "function"
    },
    {
      "constant": true,
      "inputs": [
        {
          "name": "",
          "type": "address"
        },
        {
          "name": "",
          "type": "bytes32"
        }
      ],
      "name": "permissions",
      "outputs": [
        {
          "name": "",
          "type": "bool"
        }
      ],
      "payable": false,
      "stateMutability": "view",
      "type": "function"
    },
    {
      "constant": true,
      "inputs": [],
      "name": "interestEarnedAccount",
      "outputs": [
        {
          "name": "",
          "type": "address"
        }
      ],
      "payable": false,
      "stateMutability": "view",
      "type": "function"
    },
    {
      "constant": false,
      "inputs": [
        {
          "name": "agent",
          "type": "address"
        },
        {
          "name": "requiredPermission",
          "type": "bytes32"
        }
      ],
      "name": "revokePermission",
      "outputs": [],
      "payable": false,
      "stateMutability": "nonpayable",
      "type": "function"
    },
    {
      "constant": true,
      "inputs": [],
      "name": "augmintToken",
      "outputs": [
        {
          "name": "",
          "type": "address"
        }
      ],
      "payable": false,
      "stateMutability": "view",
      "type": "function"
    },
    {
      "constant": true,
      "inputs": [],
      "name": "PERCENT_100",
      "outputs": [
        {
          "name": "",
          "type": "uint256"
        }
      ],
      "payable": false,
      "stateMutability": "view",
      "type": "function"
    },
    {
      "constant": false,
      "inputs": [
        {
          "name": "agent",
          "type": "address"
        },
        {
          "name": "requiredPermissions",
          "type": "bytes32[]"
        }
      ],
      "name": "revokeMultiplePermissions",
      "outputs": [],
      "payable": false,
      "stateMutability": "nonpayable",
      "type": "function"
    },
    {
      "constant": true,
      "inputs": [
        {
          "name": "",
          "type": "address"
        }
      ],
      "name": "acceptedLegacyAugmintTokens",
      "outputs": [
        {
          "name": "",
          "type": "bool"
        }
      ],
      "payable": false,
      "stateMutability": "view",
      "type": "function"
    },
    {
      "constant": false,
      "inputs": [
        {
          "name": "agent",
          "type": "address"
        },
        {
          "name": "requiredPermissions",
          "type": "bytes32[]"
        }
      ],
      "name": "grantMultiplePermissions",
      "outputs": [],
      "payable": false,
      "stateMutability": "nonpayable",
      "type": "function"
    },
    {
      "constant": false,
      "inputs": [
        {
          "name": "agent",
          "type": "address"
        },
        {
          "name": "requiredPermission",
          "type": "bytes32"
        }
      ],
      "name": "grantPermission",
      "outputs": [],
      "payable": false,
      "stateMutability": "nonpayable",
      "type": "function"
    },
    {
      "constant": true,
      "inputs": [],
      "name": "augmintReserves",
      "outputs": [
        {
          "name": "",
          "type": "address"
        }
      ],
      "payable": false,
      "stateMutability": "view",
      "type": "function"
    },
    {
      "inputs": [
        {
          "name": "_augmintToken",
          "type": "address"
        },
        {
          "name": "_augmintReserves",
          "type": "address"
        },
        {
          "name": "_interestEarnedAccount",
          "type": "address"
        },
        {
          "name": "lockDifferenceLimit",
          "type": "uint256"
        },
        {
          "name": "loanDifferenceLimit",
          "type": "uint256"
        },
        {
          "name": "allowedDifferenceAmount",
          "type": "uint256"
        }
      ],
      "payable": false,
      "stateMutability": "nonpayable",
      "type": "constructor"
    },
    {
      "anonymous": false,
      "inputs": [
        {
          "indexed": false,
          "name": "lockDifferenceLimit",
          "type": "uint256"
        },
        {
          "indexed": false,
          "name": "loanDifferenceLimit",
          "type": "uint256"
        },
        {
          "indexed": false,
          "name": "allowedDifferenceAmount",
          "type": "uint256"
        }
      ],
      "name": "LtdParamsChanged",
      "type": "event"
    },
    {
      "anonymous": false,
      "inputs": [
        {
          "indexed": false,
          "name": "augmintTokenAddress",
          "type": "address"
        },
        {
          "indexed": false,
          "name": "newAcceptedState",
          "type": "bool"
        }
      ],
      "name": "AcceptedLegacyAugmintTokenChanged",
      "type": "event"
    },
    {
      "anonymous": false,
      "inputs": [
        {
          "indexed": false,
          "name": "oldTokenAddress",
          "type": "address"
        },
        {
          "indexed": false,
          "name": "account",
          "type": "address"
        },
        {
          "indexed": false,
          "name": "amount",
          "type": "uint256"
        }
      ],
      "name": "LegacyTokenConverted",
      "type": "event"
    },
    {
      "anonymous": false,
      "inputs": [
        {
          "indexed": false,
          "name": "totalLoanAmountAdjustment",
          "type": "uint256"
        },
        {
          "indexed": false,
          "name": "totalLockedAmountAdjustment",
          "type": "uint256"
        }
      ],
      "name": "KPIsAdjusted",
      "type": "event"
    },
    {
      "anonymous": false,
      "inputs": [
        {
          "indexed": false,
          "name": "newInterestEarnedAccount",
          "type": "address"
        },
        {
          "indexed": false,
          "name": "newAugmintReserves",
          "type": "address"
        }
      ],
      "name": "SystemContractsChanged",
      "type": "event"
    },
    {
      "anonymous": false,
      "inputs": [
        {
          "indexed": true,
          "name": "agent",
          "type": "address"
        },
        {
          "indexed": false,
          "name": "grantedPermission",
          "type": "bytes32"
        }
      ],
      "name": "PermissionGranted",
      "type": "event"
    },
    {
      "anonymous": false,
      "inputs": [
        {
          "indexed": true,
          "name": "agent",
          "type": "address"
        },
        {
          "indexed": false,
          "name": "revokedPermission",
          "type": "bytes32"
        }
      ],
      "name": "PermissionRevoked",
      "type": "event"
    },
    {
      "constant": false,
      "inputs": [
        {
          "name": "amount",
          "type": "uint256"
        }
      ],
      "name": "issueToReserve",
      "outputs": [],
      "payable": false,
      "stateMutability": "nonpayable",
      "type": "function"
    },
    {
      "constant": false,
      "inputs": [
        {
          "name": "amount",
          "type": "uint256"
        }
      ],
      "name": "burnFromReserve",
      "outputs": [],
      "payable": false,
      "stateMutability": "nonpayable",
      "type": "function"
    },
    {
      "constant": false,
      "inputs": [
        {
          "name": "amountToLock",
          "type": "uint256"
        },
        {
          "name": "interestAmount",
          "type": "uint256"
        }
      ],
      "name": "requestInterest",
      "outputs": [],
      "payable": false,
      "stateMutability": "nonpayable",
      "type": "function"
    },
    {
      "constant": false,
      "inputs": [
        {
          "name": "lockedAmount",
          "type": "uint256"
        }
      ],
      "name": "releaseFundsNotification",
      "outputs": [],
      "payable": false,
      "stateMutability": "nonpayable",
      "type": "function"
    },
    {
      "constant": false,
      "inputs": [
        {
          "name": "borrower",
          "type": "address"
        },
        {
          "name": "loanAmount",
          "type": "uint256"
        }
      ],
      "name": "issueLoan",
      "outputs": [],
      "payable": false,
      "stateMutability": "nonpayable",
      "type": "function"
    },
    {
      "constant": false,
      "inputs": [
        {
          "name": "loanAmount",
          "type": "uint256"
        }
      ],
      "name": "loanRepaymentNotification",
      "outputs": [],
      "payable": false,
      "stateMutability": "nonpayable",
      "type": "function"
    },
    {
      "constant": false,
      "inputs": [
        {
          "name": "totalLoanAmountCollected",
          "type": "uint256"
        }
      ],
      "name": "loanCollectionNotification",
      "outputs": [],
      "payable": false,
      "stateMutability": "nonpayable",
      "type": "function"
    },
    {
      "constant": false,
      "inputs": [
        {
          "name": "legacyAugmintTokenAddress",
          "type": "address"
        },
        {
          "name": "newAcceptedState",
          "type": "bool"
        }
      ],
      "name": "setAcceptedLegacyAugmintToken",
      "outputs": [],
      "payable": false,
      "stateMutability": "nonpayable",
      "type": "function"
    },
    {
      "constant": false,
      "inputs": [
        {
          "name": "lockDifferenceLimit",
          "type": "uint256"
        },
        {
          "name": "loanDifferenceLimit",
          "type": "uint256"
        },
        {
          "name": "allowedDifferenceAmount",
          "type": "uint256"
        }
      ],
      "name": "setLtdParams",
      "outputs": [],
      "payable": false,
      "stateMutability": "nonpayable",
      "type": "function"
    },
    {
      "constant": false,
      "inputs": [
        {
          "name": "totalLoanAmountAdjustment",
          "type": "uint256"
        },
        {
          "name": "totalLockedAmountAdjustment",
          "type": "uint256"
        }
      ],
      "name": "adjustKPIs",
      "outputs": [],
      "payable": false,
      "stateMutability": "nonpayable",
      "type": "function"
    },
    {
      "constant": false,
      "inputs": [
        {
          "name": "newInterestEarnedAccount",
          "type": "address"
        },
        {
          "name": "newAugmintReserves",
          "type": "address"
        }
      ],
      "name": "setSystemContracts",
      "outputs": [],
      "payable": false,
      "stateMutability": "nonpayable",
      "type": "function"
    },
    {
      "constant": false,
      "inputs": [
        {
          "name": "from",
          "type": "address"
        },
        {
          "name": "amount",
          "type": "uint256"
        },
        {
          "name": "",
          "type": "uint256"
        }
      ],
      "name": "transferNotification",
      "outputs": [],
      "payable": false,
      "stateMutability": "nonpayable",
      "type": "function"
    },
    {
      "constant": true,
      "inputs": [],
      "name": "getLoanToDepositRatio",
      "outputs": [
        {
          "name": "loanToDepositRatio",
          "type": "uint256"
        }
      ],
      "payable": false,
      "stateMutability": "view",
      "type": "function"
    },
    {
      "constant": true,
      "inputs": [
        {
          "name": "minLockAmount",
          "type": "uint256"
        },
        {
          "name": "interestPt",
          "type": "uint256"
        }
      ],
      "name": "getMaxLockAmount",
      "outputs": [
        {
          "name": "maxLock",
          "type": "uint256"
        }
      ],
      "payable": false,
      "stateMutability": "view",
      "type": "function"
    },
    {
      "constant": true,
      "inputs": [
        {
          "name": "minLoanAmount",
          "type": "uint256"
        }
      ],
      "name": "getMaxLoanAmount",
      "outputs": [
        {
          "name": "maxLoan",
          "type": "uint256"
        }
      ],
      "payable": false,
      "stateMutability": "view",
      "type": "function"
    },
    {
      "constant": true,
      "inputs": [],
      "name": "getMaxLockAmountAllowedByLtd",
      "outputs": [
        {
          "name": "maxLockByLtd",
          "type": "uint256"
        }
      ],
      "payable": false,
      "stateMutability": "view",
      "type": "function"
    },
    {
      "constant": true,
      "inputs": [],
      "name": "getMaxLoanAmountAllowedByLtd",
      "outputs": [
        {
          "name": "maxLoanByLtd",
          "type": "uint256"
        }
      ],
      "payable": false,
      "stateMutability": "view",
      "type": "function"
    }
  ],
  "bytecode": "0x608060405234801561001057600080fd5b5060405160c08061320583398101806040528101908080519060200190929190805190602001909291908051906020019092919080519060200190929190805190602001909291908051906020019092919050505060016000803373ffffffffffffffffffffffffffffffffffffffff1673ffffffffffffffffffffffffffffffffffffffff16815260200190815260200160002060007f4d6f6e6574617279426f6172640000000000000000000000000000000000000060001916815260200190815260200160002060006101000a81548160ff0219169083151502179055503373ffffffffffffffffffffffffffffffffffffffff167fc65937e3dbcb9fb30f646815dd67a3dbd09ba17718cbcb54efbe3635f8e0a6fe60405180807f4d6f6e6574617279426f61726400000000000000000000000000000000000000815250602001905060405180910390a285600160006101000a81548173ffffffffffffffffffffffffffffffffffffffff021916908373ffffffffffffffffffffffffffffffffffffffff16021790555084600360006101000a81548173ffffffffffffffffffffffffffffffffffffffff021916908373ffffffffffffffffffffffffffffffffffffffff16021790555083600260006101000a81548173ffffffffffffffffffffffffffffffffffffffff021916908373ffffffffffffffffffffffffffffffffffffffff160217905550606060405190810160405280848152602001838152602001828152506007600082015181600001556020820151816001015560408201518160020155905050505050505050612f8f806102766000396000f30060806040526004361061018b576000357c0100000000000000000000000000000000000000000000000000000000900463ffffffff168063023f4a661461019057806305a9f274146101bd57806312ef900b146101e85780631768fd6f146102135780631895687d1461023e5780631ed0e01c1461028b578063265b5d93146102c4578063295777be1461030f5780634c9e502e1461033c5780634cae5f99146103675780634d8e64ee1461039457806358c31603146103f7578063596368e0146104245780635b2255261461044f5780635fcf0455146104b85780635fe070131461050f57806364217bdf1461056057806364e7e4a41461059757806373396ff4146105ee5780637b9b9c89146106195780637e780157146106705780637ea469931461069b57806392413ddc1461072157806392969b301461077c5780639ac3317b146107cb578063c65ccc0714610851578063d0d968c014610892578063e95f2c7d146108bf578063f38a826214610900578063f66cce0e14610951578063fe1ebb0414610988575b600080fd5b34801561019c57600080fd5b506101bb600480360381019080803590602001909291905050506109df565b005b3480156101c957600080fd5b506101d2610bf7565b6040518082815260200191505060405180910390f35b3480156101f457600080fd5b506101fd610bfd565b6040518082815260200191505060405180910390f35b34801561021f57600080fd5b50610228610ce2565b6040518082815260200191505060405180910390f35b34801561024a57600080fd5b50610289600480360381019080803573ffffffffffffffffffffffffffffffffffffffff16906020019092919080359060200190929190505050610dc7565b005b34801561029757600080fd5b506102a0611083565b60405180848152602001838152602001828152602001935050505060405180910390f35b3480156102d057600080fd5b506102f9600480360381019080803590602001909291908035906020019092919050505061109b565b6040518082815260200191505060405180910390f35b34801561031b57600080fd5b5061033a60048036038101908080359060200190929190505050611218565b005b34801561034857600080fd5b50610351611351565b6040518082815260200191505060405180910390f35b34801561037357600080fd5b5061039260048036038101908080359060200190929190505050611357565b005b3480156103a057600080fd5b506103f5600480360381019080803573ffffffffffffffffffffffffffffffffffffffff169060200190929190803573ffffffffffffffffffffffffffffffffffffffff169060200190929190505050611490565b005b34801561040357600080fd5b50610422600480360381019080803590602001909291905050506116a8565b005b34801561043057600080fd5b506104396117e1565b6040518082815260200191505060405180910390f35b34801561045b57600080fd5b5061049e600480360381019080803573ffffffffffffffffffffffffffffffffffffffff16906020019092919080356000191690602001909291905050506117e7565b604051808215151515815260200191505060405180910390f35b3480156104c457600080fd5b506104cd611816565b604051808273ffffffffffffffffffffffffffffffffffffffff1673ffffffffffffffffffffffffffffffffffffffff16815260200191505060405180910390f35b34801561051b57600080fd5b5061055e600480360381019080803573ffffffffffffffffffffffffffffffffffffffff169060200190929190803560001916906020019092919050505061183c565b005b34801561056c57600080fd5b506105956004803603810190808035906020019092919080359060200190929190505050611a21565b005b3480156105a357600080fd5b506105ec600480360381019080803573ffffffffffffffffffffffffffffffffffffffff1690602001909291908035906020019092919080359060200190929190505050611eea565b005b3480156105fa57600080fd5b506106036121df565b6040518082815260200191505060405180910390f35b34801561062557600080fd5b5061062e612223565b604051808273ffffffffffffffffffffffffffffffffffffffff1673ffffffffffffffffffffffffffffffffffffffff16815260200191505060405180910390f35b34801561067c57600080fd5b50610685612249565b6040518082815260200191505060405180910390f35b3480156106a757600080fd5b5061071f600480360381019080803573ffffffffffffffffffffffffffffffffffffffff16906020019092919080359060200190820180359060200190808060200260200160405190810160405280939291908181526020018383602002808284378201915050505050509192919290505050612250565b005b34801561072d57600080fd5b50610762600480360381019080803573ffffffffffffffffffffffffffffffffffffffff169060200190929190505050612298565b604051808215151515815260200191505060405180910390f35b34801561078857600080fd5b506107c9600480360381019080803573ffffffffffffffffffffffffffffffffffffffff1690602001909291908035151590602001909291905050506122b8565b005b3480156107d757600080fd5b5061084f600480360381019080803573ffffffffffffffffffffffffffffffffffffffff1690602001909291908035906020019082018035906020019080806020026020016040519081016040528093929190818152602001838360200280828437820191505050505050919291929050505061247d565b005b34801561085d57600080fd5b506108906004803603810190808035906020019092919080359060200190929190803590602001909291905050506125e0565b005b34801561089e57600080fd5b506108bd60048036038101908080359060200190929190505050612766565b005b3480156108cb57600080fd5b506108ea6004803603810190808035906020019092919050505061297e565b6040518082815260200191505060405180910390f35b34801561090c57600080fd5b5061094f600480360381019080803573ffffffffffffffffffffffffffffffffffffffff16906020019092919080356000191690602001909291905050506129a3565b005b34801561095d57600080fd5b506109866004803603810190808035906020019092919080359060200190929190505050612b88565b005b34801561099457600080fd5b5061099d612cfc565b604051808273ffffffffffffffffffffffffffffffffffffffff1673ffffffffffffffffffffffffffffffffffffffff16815260200191505060405180910390f35b7f4d6f6e6574617279426f617264000000000000000000000000000000000000006000803373ffffffffffffffffffffffffffffffffffffffff1673ffffffffffffffffffffffffffffffffffffffff1681526020019081526020016000206000826000191660001916815260200190815260200160002060009054906101000a900460ff161515610ad9576040517f08c379a000000000000000000000000000000000000000000000000000000000815260040180806020018281038252601f8152602001807f6d73672e73656e646572206d7573742068617665207065726d697373696f6e0081525060200191505060405180910390fd5b610aee82600454612d2290919063ffffffff16565b600481905550600160009054906101000a900473ffffffffffffffffffffffffffffffffffffffff1673ffffffffffffffffffffffffffffffffffffffff16631207f0c1600360009054906101000a900473ffffffffffffffffffffffffffffffffffffffff16846040518363ffffffff167c0100000000000000000000000000000000000000000000000000000000028152600401808373ffffffffffffffffffffffffffffffffffffffff1673ffffffffffffffffffffffffffffffffffffffff16815260200182815260200192505050600060405180830381600087803b158015610bdb57600080fd5b505af1158015610bef573d6000803e3d6000fd5b505050505050565b60065481565b6000806000610c46620f4240610c38610c27620f4240600760010154612d2290919063ffffffff16565b600654612dac90919063ffffffff16565b612e4b90919063ffffffff16565b9150816005541015610c6c57610c6760055483612ede90919063ffffffff16565b610c6f565b60005b9150610c8b600760020154600654612d2290919063ffffffff16565b6005541015610cc757610cc2600554610cb4600760020154600654612d2290919063ffffffff16565b612ede90919063ffffffff16565b610cca565b60005b9050808211610cd95780610cdb565b815b9250505090565b6000806000610d2b610d05600760000154620f4240612ede90919063ffffffff16565b610d1d620f4240600554612dac90919063ffffffff16565b612e4b90919063ffffffff16565b9150816006541015610d5157610d4c60065483612ede90919063ffffffff16565b610d54565b60005b9150610d70600760020154600554612d2290919063ffffffff16565b6006541015610dac57610da7600654610d99600760020154600554612d2290919063ffffffff16565b612ede90919063ffffffff16565b610daf565b60005b9050808211610dbe5780610dc0565b815b9250505090565b6000803373ffffffffffffffffffffffffffffffffffffffff1673ffffffffffffffffffffffffffffffffffffffff16815260200190815260200160002060007f4c6f616e4d616e61676572436f6e74726163747300000000000000000000000060001916815260200190815260200160002060009054906101000a900460ff161515610ee2576040517f08c379a00000000000000000000000000000000000000000000000000000000081526004018080602001828103825260348152602001807f6d73672e73656e646572206d7573742068617665204c6f616e4d616e6167657281526020017f436f6e747261637473207065726d697373696f6e00000000000000000000000081525060400191505060405180910390fd5b610eea610bfd565b8111151515610f87576040517f08c379a000000000000000000000000000000000000000000000000000000000815260040180806020018281038252602f8152602001807f6c6f616e416d6f756e74206d757374206265203c3d206d61784c6f616e416d6f81526020017f756e74416c6c6f77656442794c7464000000000000000000000000000000000081525060400191505060405180910390fd5b610f9c81600554612d2290919063ffffffff16565b600581905550600160009054906101000a900473ffffffffffffffffffffffffffffffffffffffff1673ffffffffffffffffffffffffffffffffffffffff16631207f0c183836040518363ffffffff167c0100000000000000000000000000000000000000000000000000000000028152600401808373ffffffffffffffffffffffffffffffffffffffff1673ffffffffffffffffffffffffffffffffffffffff16815260200182815260200192505050600060405180830381600087803b15801561106757600080fd5b505af115801561107b573d6000803e3d6000fd5b505050505050565b60078060000154908060010154908060020154905083565b60008060006111e1846111d3620f4240600160009054906101000a900473ffffffffffffffffffffffffffffffffffffffff1673ffffffffffffffffffffffffffffffffffffffff166370a08231600260009054906101000a900473ffffffffffffffffffffffffffffffffffffffff166040518263ffffffff167c0100000000000000000000000000000000000000000000000000000000028152600401808273ffffffffffffffffffffffffffffffffffffffff1673ffffffffffffffffffffffffffffffffffffffff168152602001915050602060405180830381600087803b15801561118a57600080fd5b505af115801561119e573d6000803e3d6000fd5b505050506040513d60208110156111b457600080fd5b8101908080519060200190929190505050612dac90919063ffffffff16565b612e4b90919063ffffffff16565b91506111eb610ce2565b90508082106111fa57806111fc565b815b925084831061120b578261120e565b60005b9250505092915050565b6000803373ffffffffffffffffffffffffffffffffffffffff1673ffffffffffffffffffffffffffffffffffffffff16815260200190815260200160002060007f4c6f636b6572436f6e747261637473000000000000000000000000000000000060001916815260200190815260200160002060009054906101000a900460ff161515611333576040517f08c379a000000000000000000000000000000000000000000000000000000000815260040180806020018281038252602f8152602001807f6d73672e73656e646572206d7573742068617665204c6f636b6572436f6e747281526020017f61637473207065726d697373696f6e000000000000000000000000000000000081525060400191505060405180910390fd5b61134881600654612ede90919063ffffffff16565b60068190555050565b60055481565b6000803373ffffffffffffffffffffffffffffffffffffffff1673ffffffffffffffffffffffffffffffffffffffff16815260200190815260200160002060007f4c6f616e4d616e61676572436f6e74726163747300000000000000000000000060001916815260200190815260200160002060009054906101000a900460ff161515611472576040517f08c379a00000000000000000000000000000000000000000000000000000000081526004018080602001828103825260348152602001807f6d73672e73656e646572206d7573742068617665204c6f616e4d616e6167657281526020017f436f6e747261637473207065726d697373696f6e00000000000000000000000081525060400191505060405180910390fd5b61148781600554612ede90919063ffffffff16565b60058190555050565b7f4d6f6e6574617279426f617264000000000000000000000000000000000000006000803373ffffffffffffffffffffffffffffffffffffffff1673ffffffffffffffffffffffffffffffffffffffff1681526020019081526020016000206000826000191660001916815260200190815260200160002060009054906101000a900460ff16151561158a576040517f08c379a000000000000000000000000000000000000000000000000000000000815260040180806020018281038252601f8152602001807f6d73672e73656e646572206d7573742068617665207065726d697373696f6e0081525060200191505060405180910390fd5b82600260006101000a81548173ffffffffffffffffffffffffffffffffffffffff021916908373ffffffffffffffffffffffffffffffffffffffff16021790555081600360006101000a81548173ffffffffffffffffffffffffffffffffffffffff021916908373ffffffffffffffffffffffffffffffffffffffff1602179055507f68700d71686a6c45f4e450fa2f38d15fcddf5956d2bd054075f77d4636ff0f1a8383604051808373ffffffffffffffffffffffffffffffffffffffff1673ffffffffffffffffffffffffffffffffffffffff1681526020018273ffffffffffffffffffffffffffffffffffffffff1673ffffffffffffffffffffffffffffffffffffffff1681526020019250505060405180910390a1505050565b6000803373ffffffffffffffffffffffffffffffffffffffff1673ffffffffffffffffffffffffffffffffffffffff16815260200190815260200160002060007f4c6f616e4d616e61676572436f6e74726163747300000000000000000000000060001916815260200190815260200160002060009054906101000a900460ff1615156117c3576040517f08c379a00000000000000000000000000000000000000000000000000000000081526004018080602001828103825260348152602001807f6d73672e73656e646572206d7573742068617665204c6f616e4d616e6167657281526020017f436f6e747261637473207065726d697373696f6e00000000000000000000000081525060400191505060405180910390fd5b6117d881600554612ede90919063ffffffff16565b60058190555050565b60045481565b60006020528160005260406000206020528060005260406000206000915091509054906101000a900460ff1681565b600260009054906101000a900473ffffffffffffffffffffffffffffffffffffffff1681565b6000803373ffffffffffffffffffffffffffffffffffffffff1673ffffffffffffffffffffffffffffffffffffffff16815260200190815260200160002060007f4d6f6e6574617279426f6172640000000000000000000000000000000000000060001916815260200190815260200160002060009054906101000a900460ff161515611957576040517f08c379a000000000000000000000000000000000000000000000000000000000815260040180806020018281038252602d8152602001807f6d73672e73656e646572206d7573742068617665204d6f6e6574617279426f6181526020017f7264207065726d697373696f6e0000000000000000000000000000000000000081525060400191505060405180910390fd5b60008060008473ffffffffffffffffffffffffffffffffffffffff1673ffffffffffffffffffffffffffffffffffffffff1681526020019081526020016000206000836000191660001916815260200190815260200160002060006101000a81548160ff0219169083151502179055508173ffffffffffffffffffffffffffffffffffffffff167f789770131846de4d1f28418f0f957cdf4fcabe5eccf70067083e20ecece69a348260405180826000191660001916815260200191505060405180910390a25050565b6000803373ffffffffffffffffffffffffffffffffffffffff1673ffffffffffffffffffffffffffffffffffffffff16815260200190815260200160002060007f4c6f636b6572436f6e747261637473000000000000000000000000000000000060001916815260200190815260200160002060009054906101000a900460ff161515611b3c576040517f08c379a000000000000000000000000000000000000000000000000000000000815260040180806020018281038252602f8152602001807f6d73672e73656e646572206d7573742068617665204c6f636b6572436f6e747281526020017f61637473207065726d697373696f6e000000000000000000000000000000000081525060400191505060405180910390fd5b611b44610ce2565b8211151515611be1576040517f08c379a00000000000000000000000000000000000000000000000000000000081526004018080602001828103825260318152602001807f616d6f756e74546f4c6f636b206d757374206265203c3d206d61784c6f636b4181526020017f6d6f756e74416c6c6f77656442794c746400000000000000000000000000000081525060400191505060405180910390fd5b611bf682600654612d2290919063ffffffff16565b60068190555080600160009054906101000a900473ffffffffffffffffffffffffffffffffffffffff1673ffffffffffffffffffffffffffffffffffffffff166370a08231600260009054906101000a900473ffffffffffffffffffffffffffffffffffffffff166040518263ffffffff167c0100000000000000000000000000000000000000000000000000000000028152600401808273ffffffffffffffffffffffffffffffffffffffff1673ffffffffffffffffffffffffffffffffffffffff168152602001915050602060405180830381600087803b158015611cdc57600080fd5b505af1158015611cf0573d6000803e3d6000fd5b505050506040513d6020811015611d0657600080fd5b810190808051906020019092919050505010151515611db3576040517f08c379a00000000000000000000000000000000000000000000000000000000081526004018080602001828103825260378152602001807f696e7465726573744561726e65644163636f756e742062616c616e6365206d7581526020017f7374206265203e3d20696e746572657374416d6f756e7400000000000000000081525060400191505060405180910390fd5b600260009054906101000a900473ffffffffffffffffffffffffffffffffffffffff1673ffffffffffffffffffffffffffffffffffffffff1663726254d2600160009054906101000a900473ffffffffffffffffffffffffffffffffffffffff1633846040518463ffffffff167c0100000000000000000000000000000000000000000000000000000000028152600401808473ffffffffffffffffffffffffffffffffffffffff1673ffffffffffffffffffffffffffffffffffffffff1681526020018373ffffffffffffffffffffffffffffffffffffffff1673ffffffffffffffffffffffffffffffffffffffff1681526020018281526020019350505050600060405180830381600087803b158015611ece57600080fd5b505af1158015611ee2573d6000803e3d6000fd5b505050505050565b6000339050600a60008273ffffffffffffffffffffffffffffffffffffffff1673ffffffffffffffffffffffffffffffffffffffff16815260200190815260200160002060009054906101000a900460ff161515611fd6576040517f08c379a00000000000000000000000000000000000000000000000000000000081526004018080602001828103825260398152602001807f6d73672e73656e646572206d75737420626520616c6c6f77656420696e20616381526020017f6365707465644c65676163794175676d696e74546f6b656e730000000000000081525060400191505060405180910390fd5b8073ffffffffffffffffffffffffffffffffffffffff166342966c68846040518263ffffffff167c010000000000000000000000000000000000000000000000000000000002815260040180828152602001915050600060405180830381600087803b15801561204557600080fd5b505af1158015612059573d6000803e3d6000fd5b50505050600160009054906101000a900473ffffffffffffffffffffffffffffffffffffffff1673ffffffffffffffffffffffffffffffffffffffff16631207f0c185856040518363ffffffff167c0100000000000000000000000000000000000000000000000000000000028152600401808373ffffffffffffffffffffffffffffffffffffffff1673ffffffffffffffffffffffffffffffffffffffff16815260200182815260200192505050600060405180830381600087803b15801561212257600080fd5b505af1158015612136573d6000803e3d6000fd5b505050507fed3be8b083d065309356e7da4e9c3ea55ca16ce92d8c239b0bae2aa6fcf32432338585604051808473ffffffffffffffffffffffffffffffffffffffff1673ffffffffffffffffffffffffffffffffffffffff1681526020018373ffffffffffffffffffffffffffffffffffffffff1673ffffffffffffffffffffffffffffffffffffffff168152602001828152602001935050505060405180910390a150505050565b6000806006541461221b57612216600554612208620f4240600654612dac90919063ffffffff16565b612e4b90919063ffffffff16565b61221e565b60005b905090565b600160009054906101000a900473ffffffffffffffffffffffffffffffffffffffff1681565b620f424081565b60008082519150600090505b818110156122925761228584848381518110151561227657fe5b9060200190602002015161183c565b808060010191505061225c565b50505050565b600a6020528060005260406000206000915054906101000a900460ff1681565b7f4d6f6e6574617279426f617264000000000000000000000000000000000000006000803373ffffffffffffffffffffffffffffffffffffffff1673ffffffffffffffffffffffffffffffffffffffff1681526020019081526020016000206000826000191660001916815260200190815260200160002060009054906101000a900460ff1615156123b2576040517f08c379a000000000000000000000000000000000000000000000000000000000815260040180806020018281038252601f8152602001807f6d73672e73656e646572206d7573742068617665207065726d697373696f6e0081525060200191505060405180910390fd5b81600a60008573ffffffffffffffffffffffffffffffffffffffff1673ffffffffffffffffffffffffffffffffffffffff16815260200190815260200160002060006101000a81548160ff0219169083151502179055507fae884efbcf119c5626909ea781d57194bdb5943d13bb537cdec2fbd8294febbf8383604051808373ffffffffffffffffffffffffffffffffffffffff1673ffffffffffffffffffffffffffffffffffffffff168152602001821515151581526020019250505060405180910390a1505050565b6000806000803373ffffffffffffffffffffffffffffffffffffffff1673ffffffffffffffffffffffffffffffffffffffff16815260200190815260200160002060007f4d6f6e6574617279426f6172640000000000000000000000000000000000000060001916815260200190815260200160002060009054906101000a900460ff16151561259b576040517f08c379a000000000000000000000000000000000000000000000000000000000815260040180806020018281038252602d8152602001807f6d73672e73656e646572206d7573742068617665204d6f6e6574617279426f6181526020017f7264207065726d697373696f6e0000000000000000000000000000000000000081525060400191505060405180910390fd5b82519150600090505b818110156125da576125cd8484838151811015156125be57fe5b906020019060200201516129a3565b80806001019150506125a4565b50505050565b7f4d6f6e6574617279426f617264000000000000000000000000000000000000006000803373ffffffffffffffffffffffffffffffffffffffff1673ffffffffffffffffffffffffffffffffffffffff1681526020019081526020016000206000826000191660001916815260200190815260200160002060009054906101000a900460ff1615156126da576040517f08c379a000000000000000000000000000000000000000000000000000000000815260040180806020018281038252601f8152602001807f6d73672e73656e646572206d7573742068617665207065726d697373696f6e0081525060200191505060405180910390fd5b6060604051908101604052808581526020018481526020018381525060076000820151816000015560208201518160010155604082015181600201559050507f57bcef22bef47e139d52bd665ddcace99aa283776b169a8f7939d5ee7a46ea1d84848460405180848152602001838152602001828152602001935050505060405180910390a150505050565b7f4d6f6e6574617279426f617264000000000000000000000000000000000000006000803373ffffffffffffffffffffffffffffffffffffffff1673ffffffffffffffffffffffffffffffffffffffff1681526020019081526020016000206000826000191660001916815260200190815260200160002060009054906101000a900460ff161515612860576040517f08c379a000000000000000000000000000000000000000000000000000000000815260040180806020018281038252601f8152602001807f6d73672e73656e646572206d7573742068617665207065726d697373696f6e0081525060200191505060405180910390fd5b61287582600454612ede90919063ffffffff16565b600481905550600360009054906101000a900473ffffffffffffffffffffffffffffffffffffffff1673ffffffffffffffffffffffffffffffffffffffff16639dc29fac600160009054906101000a900473ffffffffffffffffffffffffffffffffffffffff16846040518363ffffffff167c0100000000000000000000000000000000000000000000000000000000028152600401808373ffffffffffffffffffffffffffffffffffffffff1673ffffffffffffffffffffffffffffffffffffffff16815260200182815260200192505050600060405180830381600087803b15801561296257600080fd5b505af1158015612976573d6000803e3d6000fd5b505050505050565b600080612989610bfd565b9050828110612998578061299b565b60005b915050919050565b6000803373ffffffffffffffffffffffffffffffffffffffff1673ffffffffffffffffffffffffffffffffffffffff16815260200190815260200160002060007f4d6f6e6574617279426f6172640000000000000000000000000000000000000060001916815260200190815260200160002060009054906101000a900460ff161515612abe576040517f08c379a000000000000000000000000000000000000000000000000000000000815260040180806020018281038252602d8152602001807f6d73672e73656e646572206d7573742068617665204d6f6e6574617279426f6181526020017f7264207065726d697373696f6e0000000000000000000000000000000000000081525060400191505060405180910390fd5b60016000808473ffffffffffffffffffffffffffffffffffffffff1673ffffffffffffffffffffffffffffffffffffffff1681526020019081526020016000206000836000191660001916815260200190815260200160002060006101000a81548160ff0219169083151502179055508173ffffffffffffffffffffffffffffffffffffffff167fc65937e3dbcb9fb30f646815dd67a3dbd09ba17718cbcb54efbe3635f8e0a6fe8260405180826000191660001916815260200191505060405180910390a25050565b7f4d6f6e6574617279426f617264000000000000000000000000000000000000006000803373ffffffffffffffffffffffffffffffffffffffff1673ffffffffffffffffffffffffffffffffffffffff1681526020019081526020016000206000826000191660001916815260200190815260200160002060009054906101000a900460ff161515612c82576040517f08c379a000000000000000000000000000000000000000000000000000000000815260040180806020018281038252601f8152602001807f6d73672e73656e646572206d7573742068617665207065726d697373696f6e0081525060200191505060405180910390fd5b612c9783600554612d2290919063ffffffff16565b600581905550612cb282600654612d2290919063ffffffff16565b6006819055507f4b963bf442220b4dc37d74344ec57eec2f1766f9a16979d7401e1e0c1a149f808383604051808381526020018281526020019250505060405180910390a1505050565b600360009054906101000a900473ffffffffffffffffffffffffffffffffffffffff1681565b6000808284019050838110151515612da2576040517f08c379a000000000000000000000000000000000000000000000000000000000815260040180806020018281038252600c8152602001807f616464206f766572666c6f77000000000000000000000000000000000000000081525060200191505060405180910390fd5b8091505092915050565b60008082840290506000841480612dcd5750828482811515612dca57fe5b04145b1515612e41576040517f08c379a000000000000000000000000000000000000000000000000000000000815260040180806020018281038252600c8152602001807f6d756c206f766572666c6f77000000000000000000000000000000000000000081525060200191505060405180910390fd5b8091505092915050565b600080600083111515612ec6576040517f08c379a00000000000000000000000000000000000000000000000000000000081526004018080602001828103825260088152602001807f646976206279203000000000000000000000000000000000000000000000000081525060200191505060405180910390fd5b8284811515612ed157fe5b0490508091505092915050565b6000828211151515612f58576040517f08c379a000000000000000000000000000000000000000000000000000000000815260040180806020018281038252600d8152602001807f73756220756e646572666c6f770000000000000000000000000000000000000081525060200191505060405180910390fd5b8183039050929150505600a165627a7a72305820b869fdd87d7bd58dc8d6a6b698905b0ad85222373f9fe1cb673a952f860658600029",
  "source": "/* MonetarySupervisor\n    - maintains system wide KPIs (eg totalLockAmount, totalLoanAmount)\n    - holds system wide parameters/limits\n    - enforces system wide limits\n    - burns and issues to AugmintReserves\n    - Send funds from reserve to exchange when intervening (not implemented yet)\n    - Converts older versions of AugmintTokens in 1:1 to new\n\n    TODO:\n        - Mcreate and use MonetarySupervisorInterface?\n        - create and use InterestEarnedAccount interface ?\n\n*/\n\npragma solidity ^0.4.23;\nimport \"./generic/SafeMath.sol\";\nimport \"./generic/Restricted.sol\";\nimport \"./interfaces/AugmintTokenInterface.sol\";\nimport \"./interfaces/TokenReceiver.sol\";\nimport \"./InterestEarnedAccount.sol\";\nimport \"./AugmintReserves.sol\";\n\n\ncontract MonetarySupervisor is Restricted, TokenReceiver { // solhint-disable-line no-empty-blocks\n    using SafeMath for uint256;\n\n    uint public constant PERCENT_100 = 1000000;\n\n    AugmintTokenInterface public augmintToken;\n    InterestEarnedAccount public interestEarnedAccount;\n    AugmintReserves public augmintReserves;\n\n    uint public issuedByMonetaryBoard; // supply issued manually by monetary board\n\n    uint public totalLoanAmount; // total amount of all loans without interest, in token\n    uint public totalLockedAmount; // total amount of all locks without premium, in token\n\n    /**********\n        Parameters to ensure totalLoanAmount or totalLockedAmount difference is within limits and system also works\n        when total loan or lock amounts are low.\n            for test calculations: https://docs.google.com/spreadsheets/d/1MeWYPYZRIm1n9lzpvbq8kLfQg1hhvk5oJY6NrR401S0\n    **********/\n    struct LtdParams {\n        uint  lockDifferenceLimit; /* only allow a new lock if Loan To Deposit ratio would stay above\n                                            (1 - lockDifferenceLimit) with new lock. Stored as parts per million */\n        uint  loanDifferenceLimit; /* only allow a new loan if Loan To Deposit ratio would stay above\n                                            (1 + loanDifferenceLimit) with new loan. Stored as parts per million */\n        /* allowedDifferenceAmount param is to ensure the system is not \"freezing\" when totalLoanAmount or\n            totalLockAmount is low.\n        It allows a new loan or lock (up to an amount to reach this difference) even if LTD will go below / above\n            lockDifferenceLimit / loanDifferenceLimit with the new lock/loan */\n        uint  allowedDifferenceAmount;\n    }\n\n    LtdParams public ltdParams;\n\n    /* Previously deployed AugmintTokens which are accepted for conversion (see transferNotification() )\n        NB: it's not iterable so old version addresses needs to be added for UI manually after each deploy */\n    mapping(address => bool) public acceptedLegacyAugmintTokens;\n\n    event LtdParamsChanged(uint lockDifferenceLimit, uint loanDifferenceLimit, uint allowedDifferenceAmount);\n\n    event AcceptedLegacyAugmintTokenChanged(address augmintTokenAddress, bool newAcceptedState);\n\n    event LegacyTokenConverted(address oldTokenAddress, address account, uint amount);\n\n    event KPIsAdjusted(uint totalLoanAmountAdjustment, uint totalLockedAmountAdjustment);\n\n    event SystemContractsChanged(InterestEarnedAccount newInterestEarnedAccount, AugmintReserves newAugmintReserves);\n\n    constructor(AugmintTokenInterface _augmintToken, AugmintReserves _augmintReserves,\n        InterestEarnedAccount _interestEarnedAccount,\n        uint lockDifferenceLimit, uint loanDifferenceLimit, uint allowedDifferenceAmount) public {\n        augmintToken = _augmintToken;\n        augmintReserves = _augmintReserves;\n        interestEarnedAccount = _interestEarnedAccount;\n\n        ltdParams = LtdParams(lockDifferenceLimit, loanDifferenceLimit, allowedDifferenceAmount);\n    }\n\n    function issueToReserve(uint amount) external restrict(\"MonetaryBoard\") {\n        issuedByMonetaryBoard = issuedByMonetaryBoard.add(amount);\n        augmintToken.issueTo(augmintReserves, amount);\n    }\n\n    function burnFromReserve(uint amount) external restrict(\"MonetaryBoard\") {\n        issuedByMonetaryBoard = issuedByMonetaryBoard.sub(amount);\n        augmintReserves.burn(augmintToken, amount);\n    }\n\n    /* Locker requesting interest when locking funds. Enforcing LTD to stay within range allowed by LTD params\n        NB: it does not know about min loan amount, it's the loan contract's responsibility to enforce it  */\n    function requestInterest(uint amountToLock, uint interestAmount) external {\n        // only whitelisted LockerContracts\n        require(permissions[msg.sender][\"LockerContracts\"], \"msg.sender must have LockerContracts permission\");\n        require(amountToLock <= getMaxLockAmountAllowedByLtd(), \"amountToLock must be <= maxLockAmountAllowedByLtd\");\n\n        totalLockedAmount = totalLockedAmount.add(amountToLock);\n        // next line would revert but require to emit reason:\n        require(augmintToken.balanceOf(address(interestEarnedAccount)) >= interestAmount,\n            \"interestEarnedAccount balance must be >= interestAmount\");\n        interestEarnedAccount.transferInterest(augmintToken, msg.sender, interestAmount); // transfer interest to Locker\n    }\n\n    // Locker notifying when releasing funds to update KPIs\n    function releaseFundsNotification(uint lockedAmount) external {\n        // only whitelisted LockerContracts\n        require(permissions[msg.sender][\"LockerContracts\"], \"msg.sender must have LockerContracts permission\");\n        totalLockedAmount = totalLockedAmount.sub(lockedAmount);\n    }\n\n    /* Issue loan if LTD stays within range allowed by LTD params\n        NB: it does not know about min loan amount, it's the loan contract's responsibility to enforce it */\n    function issueLoan(address borrower, uint loanAmount) external {\n         // only whitelisted LoanManager contracts\n        require(permissions[msg.sender][\"LoanManagerContracts\"],\n            \"msg.sender must have LoanManagerContracts permission\");\n        require(loanAmount <= getMaxLoanAmountAllowedByLtd(), \"loanAmount must be <= maxLoanAmountAllowedByLtd\");\n        totalLoanAmount = totalLoanAmount.add(loanAmount);\n        augmintToken.issueTo(borrower, loanAmount);\n    }\n\n    function loanRepaymentNotification(uint loanAmount) external {\n        // only whitelisted LoanManager contracts\n       require(permissions[msg.sender][\"LoanManagerContracts\"],\n           \"msg.sender must have LoanManagerContracts permission\");\n        totalLoanAmount = totalLoanAmount.sub(loanAmount);\n    }\n\n    // NB: this is called by Lender contract with the sum of all loans collected in batch\n    function loanCollectionNotification(uint totalLoanAmountCollected) external {\n        // only whitelisted LoanManager contracts\n       require(permissions[msg.sender][\"LoanManagerContracts\"],\n           \"msg.sender must have LoanManagerContracts permission\");\n        totalLoanAmount = totalLoanAmount.sub(totalLoanAmountCollected);\n    }\n\n    function setAcceptedLegacyAugmintToken(address legacyAugmintTokenAddress, bool newAcceptedState)\n    external restrict(\"MonetaryBoard\") {\n        acceptedLegacyAugmintTokens[legacyAugmintTokenAddress] = newAcceptedState;\n        emit AcceptedLegacyAugmintTokenChanged(legacyAugmintTokenAddress, newAcceptedState);\n    }\n\n    function setLtdParams(uint lockDifferenceLimit, uint loanDifferenceLimit, uint allowedDifferenceAmount)\n    external restrict(\"MonetaryBoard\") {\n        ltdParams = LtdParams(lockDifferenceLimit, loanDifferenceLimit, allowedDifferenceAmount);\n\n        emit LtdParamsChanged(lockDifferenceLimit, loanDifferenceLimit, allowedDifferenceAmount);\n    }\n\n    /* function to migrate old totalLoanAmount and totalLockedAmount from old monetarySupervisor contract\n        when it's upgraded.\n        Set new monetarySupervisor contract in all locker and loanManager contracts before executing this */\n    function adjustKPIs(uint totalLoanAmountAdjustment, uint totalLockedAmountAdjustment)\n    external restrict(\"MonetaryBoard\") {\n        totalLoanAmount = totalLoanAmount.add(totalLoanAmountAdjustment);\n        totalLockedAmount = totalLockedAmount.add(totalLockedAmountAdjustment);\n\n        emit KPIsAdjusted(totalLoanAmountAdjustment, totalLockedAmountAdjustment);\n    }\n\n    /* to allow upgrades of InterestEarnedAccount and AugmintReserves contracts. */\n    function setSystemContracts(InterestEarnedAccount newInterestEarnedAccount, AugmintReserves newAugmintReserves)\n    external restrict(\"MonetaryBoard\") {\n        interestEarnedAccount = newInterestEarnedAccount;\n        augmintReserves = newAugmintReserves;\n        emit SystemContractsChanged(newInterestEarnedAccount, newAugmintReserves);\n    }\n\n    /* User can request to convert their tokens from older AugmintToken versions in 1:1\n      transferNotification is called from AugmintToken's transferAndNotify\n     Flow for converting old tokens:\n        1) user calls old token contract's transferAndNotify with the amount to convert,\n                addressing the new MonetarySupervisor Contract\n        2) transferAndNotify transfers user's old tokens to the current MonetarySupervisor contract's address\n        3) transferAndNotify calls MonetarySupervisor.transferNotification\n        4) MonetarySupervisor checks if old AugmintToken is permitted\n        5) MonetarySupervisor issues new tokens to user's account in current AugmintToken\n        6) MonetarySupervisor burns old tokens from own balance\n    */\n    function transferNotification(address from, uint amount, uint /* data, not used */ ) external {\n        AugmintTokenInterface legacyToken = AugmintTokenInterface(msg.sender);\n        require(acceptedLegacyAugmintTokens[legacyToken], \"msg.sender must be allowed in acceptedLegacyAugmintTokens\");\n\n        legacyToken.burn(amount);\n        augmintToken.issueTo(from, amount);\n        emit LegacyTokenConverted(msg.sender, from, amount);\n    }\n\n    function getLoanToDepositRatio() external view returns (uint loanToDepositRatio) {\n        loanToDepositRatio = totalLockedAmount == 0 ? 0 : totalLockedAmount.mul(PERCENT_100).div(totalLoanAmount);\n    }\n\n    /* Helper function for UI.\n        Returns max lock amount based on minLockAmount, interestPt, using LTD params & interestEarnedAccount balance */\n    function getMaxLockAmount(uint minLockAmount, uint interestPt) external view returns (uint maxLock) {\n        uint allowedByEarning = augmintToken.balanceOf(address(interestEarnedAccount)).mul(PERCENT_100).div(interestPt);\n        uint allowedByLtd = getMaxLockAmountAllowedByLtd();\n        maxLock = allowedByEarning < allowedByLtd ? allowedByEarning : allowedByLtd;\n        maxLock = maxLock < minLockAmount ? 0 : maxLock;\n    }\n\n    /* Helper function for UI.\n        Returns max loan amount based on minLoanAmont using LTD params */\n    function getMaxLoanAmount(uint minLoanAmount) external view returns (uint maxLoan) {\n        uint allowedByLtd = getMaxLoanAmountAllowedByLtd();\n        maxLoan = allowedByLtd < minLoanAmount ? 0 : allowedByLtd;\n    }\n\n    /* returns maximum lockable token amount allowed by LTD params. */\n    function getMaxLockAmountAllowedByLtd() public view returns(uint maxLockByLtd) {\n        uint allowedByLtdDifferencePt = totalLoanAmount.mul(PERCENT_100).div(PERCENT_100\n                                            .sub(ltdParams.lockDifferenceLimit));\n        allowedByLtdDifferencePt = totalLockedAmount >= allowedByLtdDifferencePt ?\n                                        0 : allowedByLtdDifferencePt.sub(totalLockedAmount);\n\n        uint allowedByLtdDifferenceAmount =\n            totalLockedAmount >= totalLoanAmount.add(ltdParams.allowedDifferenceAmount) ?\n                0 : totalLoanAmount.add(ltdParams.allowedDifferenceAmount).sub(totalLockedAmount);\n\n        maxLockByLtd = allowedByLtdDifferencePt > allowedByLtdDifferenceAmount ?\n                                        allowedByLtdDifferencePt : allowedByLtdDifferenceAmount;\n    }\n\n    /* returns maximum borrowable token amount allowed by LTD params */\n    function getMaxLoanAmountAllowedByLtd() public view returns(uint maxLoanByLtd) {\n        uint allowedByLtdDifferencePt = totalLockedAmount.mul(ltdParams.loanDifferenceLimit.add(PERCENT_100))\n                                            .div(PERCENT_100);\n        allowedByLtdDifferencePt = totalLoanAmount >= allowedByLtdDifferencePt ?\n                                        0 : allowedByLtdDifferencePt.sub(totalLoanAmount);\n\n        uint allowedByLtdDifferenceAmount =\n            totalLoanAmount >= totalLockedAmount.add(ltdParams.allowedDifferenceAmount) ?\n                0 : totalLockedAmount.add(ltdParams.allowedDifferenceAmount).sub(totalLoanAmount);\n\n        maxLoanByLtd = allowedByLtdDifferencePt > allowedByLtdDifferenceAmount ?\n                                        allowedByLtdDifferencePt : allowedByLtdDifferenceAmount;\n    }\n\n}\n",
  "sourcePath": "/Users/petro/ether/augmint-ratesfeeder/augmint-contracts/contracts/MonetarySupervisor.sol",
  "compiler": {
    "name": "solc",
    "version": "0.4.23+commit.124ca40d.Emscripten.clang"
  },
  "schemaVersion": "2.0.0",
  "updatedAt": "2018-05-21T09:24:42.308Z"
}