{
  "contractName": "Restricted",
  "abi": [
    {
      "constant": true,
      "inputs": [
        {
          "name": "",
          "type": "address"
        },
        {
          "name": "",
          "type": "bytes32"
        }
      ],
      "name": "permissions",
      "outputs": [
        {
          "name": "",
          "type": "bool"
        }
      ],
      "payable": false,
      "stateMutability": "view",
      "type": "function"
    },
    {
      "inputs": [],
      "payable": false,
      "stateMutability": "nonpayable",
      "type": "constructor"
    },
    {
      "anonymous": false,
      "inputs": [
        {
          "indexed": true,
          "name": "agent",
          "type": "address"
        },
        {
          "indexed": false,
          "name": "grantedPermission",
          "type": "bytes32"
        }
      ],
      "name": "PermissionGranted",
      "type": "event"
    },
    {
      "anonymous": false,
      "inputs": [
        {
          "indexed": true,
          "name": "agent",
          "type": "address"
        },
        {
          "indexed": false,
          "name": "revokedPermission",
          "type": "bytes32"
        }
      ],
      "name": "PermissionRevoked",
      "type": "event"
    },
    {
      "constant": false,
      "inputs": [
        {
          "name": "agent",
          "type": "address"
        },
        {
          "name": "requiredPermission",
          "type": "bytes32"
        }
      ],
      "name": "grantPermission",
      "outputs": [],
      "payable": false,
      "stateMutability": "nonpayable",
      "type": "function"
    },
    {
      "constant": false,
      "inputs": [
        {
          "name": "agent",
          "type": "address"
        },
        {
          "name": "requiredPermissions",
          "type": "bytes32[]"
        }
      ],
      "name": "grantMultiplePermissions",
      "outputs": [],
      "payable": false,
      "stateMutability": "nonpayable",
      "type": "function"
    },
    {
      "constant": false,
      "inputs": [
        {
          "name": "agent",
          "type": "address"
        },
        {
          "name": "requiredPermission",
          "type": "bytes32"
        }
      ],
      "name": "revokePermission",
      "outputs": [],
      "payable": false,
      "stateMutability": "nonpayable",
      "type": "function"
    },
    {
      "constant": false,
      "inputs": [
        {
          "name": "agent",
          "type": "address"
        },
        {
          "name": "requiredPermissions",
          "type": "bytes32[]"
        }
      ],
      "name": "revokeMultiplePermissions",
      "outputs": [],
      "payable": false,
      "stateMutability": "nonpayable",
      "type": "function"
    }
  ],
  "bytecode": "0x608060405234801561001057600080fd5b5060016000803373ffffffffffffffffffffffffffffffffffffffff1673ffffffffffffffffffffffffffffffffffffffff16815260200190815260200160002060007f4d6f6e6574617279426f6172640000000000000000000000000000000000000060001916815260200190815260200160002060006101000a81548160ff0219169083151502179055503373ffffffffffffffffffffffffffffffffffffffff167fc65937e3dbcb9fb30f646815dd67a3dbd09ba17718cbcb54efbe3635f8e0a6fe60405180807f4d6f6e6574617279426f61726400000000000000000000000000000000000000815250602001905060405180910390a26108598061011a6000396000f30060806040526004361061006d576000357c0100000000000000000000000000000000000000000000000000000000900463ffffffff1680635b225526146100725780635fe07013146100db5780637ea469931461012c5780639ac3317b146101b2578063f38a826214610238575b600080fd5b34801561007e57600080fd5b506100c1600480360381019080803573ffffffffffffffffffffffffffffffffffffffff1690602001909291908035600019169060200190929190505050610289565b604051808215151515815260200191505060405180910390f35b3480156100e757600080fd5b5061012a600480360381019080803573ffffffffffffffffffffffffffffffffffffffff16906020019092919080356000191690602001909291905050506102b8565b005b34801561013857600080fd5b506101b0600480360381019080803573ffffffffffffffffffffffffffffffffffffffff1690602001909291908035906020019082018035906020019080806020026020016040519081016040528093929190818152602001838360200280828437820191505050505050919291929050505061049d565b005b3480156101be57600080fd5b50610236600480360381019080803573ffffffffffffffffffffffffffffffffffffffff169060200190929190803590602001908201803590602001908080602002602001604051908101604052809392919081815260200183836020028082843782019150505050505091929192905050506104e5565b005b34801561024457600080fd5b50610287600480360381019080803573ffffffffffffffffffffffffffffffffffffffff1690602001909291908035600019169060200190929190505050610648565b005b60006020528160005260406000206020528060005260406000206000915091509054906101000a900460ff1681565b6000803373ffffffffffffffffffffffffffffffffffffffff1673ffffffffffffffffffffffffffffffffffffffff16815260200190815260200160002060007f4d6f6e6574617279426f6172640000000000000000000000000000000000000060001916815260200190815260200160002060009054906101000a900460ff1615156103d3576040517f08c379a000000000000000000000000000000000000000000000000000000000815260040180806020018281038252602d8152602001807f6d73672e73656e646572206d7573742068617665204d6f6e6574617279426f6181526020017f7264207065726d697373696f6e0000000000000000000000000000000000000081525060400191505060405180910390fd5b60008060008473ffffffffffffffffffffffffffffffffffffffff1673ffffffffffffffffffffffffffffffffffffffff1681526020019081526020016000206000836000191660001916815260200190815260200160002060006101000a81548160ff0219169083151502179055508173ffffffffffffffffffffffffffffffffffffffff167f789770131846de4d1f28418f0f957cdf4fcabe5eccf70067083e20ecece69a348260405180826000191660001916815260200191505060405180910390a25050565b60008082519150600090505b818110156104df576104d28484838151811015156104c357fe5b906020019060200201516102b8565b80806001019150506104a9565b50505050565b6000806000803373ffffffffffffffffffffffffffffffffffffffff1673ffffffffffffffffffffffffffffffffffffffff16815260200190815260200160002060007f4d6f6e6574617279426f6172640000000000000000000000000000000000000060001916815260200190815260200160002060009054906101000a900460ff161515610603576040517f08c379a000000000000000000000000000000000000000000000000000000000815260040180806020018281038252602d8152602001807f6d73672e73656e646572206d7573742068617665204d6f6e6574617279426f6181526020017f7264207065726d697373696f6e0000000000000000000000000000000000000081525060400191505060405180910390fd5b82519150600090505b818110156106425761063584848381518110151561062657fe5b90602001906020020151610648565b808060010191505061060c565b50505050565b6000803373ffffffffffffffffffffffffffffffffffffffff1673ffffffffffffffffffffffffffffffffffffffff16815260200190815260200160002060007f4d6f6e6574617279426f6172640000000000000000000000000000000000000060001916815260200190815260200160002060009054906101000a900460ff161515610763576040517f08c379a000000000000000000000000000000000000000000000000000000000815260040180806020018281038252602d8152602001807f6d73672e73656e646572206d7573742068617665204d6f6e6574617279426f6181526020017f7264207065726d697373696f6e0000000000000000000000000000000000000081525060400191505060405180910390fd5b60016000808473ffffffffffffffffffffffffffffffffffffffff1673ffffffffffffffffffffffffffffffffffffffff1681526020019081526020016000206000836000191660001916815260200190815260200160002060006101000a81548160ff0219169083151502179055508173ffffffffffffffffffffffffffffffffffffffff167fc65937e3dbcb9fb30f646815dd67a3dbd09ba17718cbcb54efbe3635f8e0a6fe8260405180826000191660001916815260200191505060405180910390a250505600a165627a7a723058201720a27d2831f1e951c901e77db56555e488776a781c71965b3efec0d2ae11a90029",
  "source": "/*\n    Generic contract to authorise calls to certain functions only from a given address.\n    This is just for single address authorisation which is sufficient security for limited pilot(s)\n\n    TODO: multisig permissions\n           once we have multisig deplyment should work as:\n           1. contract deployer account deploys contracts\n           2. constructor grants \"MonetaryBoard\" permission to deployer\n           3. deployer grants MonetaryBoard permission to the MonetaryBoard multisig managing contract\n           4. deployer immedately revokes its own MonetaryBoard right\n           ( TBD: if  Restricted contracts get MonetaryBoard as constructor param\n            but that would require each contract using Restricted to modified)\n*/\n\npragma solidity ^0.4.23;\n\n\ncontract Restricted {\n\n    // NB: using bytes32 rather than the string type because it's cheaper gas-wise:\n    mapping (address => mapping (bytes32 => bool)) public permissions;\n\n    event PermissionGranted(address indexed agent, bytes32 grantedPermission);\n    event PermissionRevoked(address indexed agent, bytes32 revokedPermission);\n\n    modifier restrict(bytes32 requiredPermission) {\n        require(permissions[msg.sender][requiredPermission], \"msg.sender must have permission\");\n        _;\n    }\n\n    constructor() public {\n        permissions[msg.sender][\"MonetaryBoard\"] = true;\n        emit PermissionGranted(msg.sender, \"MonetaryBoard\");\n    }\n\n    function grantPermission(address agent, bytes32 requiredPermission) public {\n        require(permissions[msg.sender][\"MonetaryBoard\"], \"msg.sender must have MonetaryBoard permission\");\n        permissions[agent][requiredPermission] = true;\n        emit PermissionGranted(agent, requiredPermission);\n    }\n\n    function grantMultiplePermissions(address agent, bytes32[] requiredPermissions) public {\n        require(permissions[msg.sender][\"MonetaryBoard\"], \"msg.sender must have MonetaryBoard permission\");\n        uint256 length = requiredPermissions.length;\n        for (uint256 i = 0; i < length; i++) {\n            grantPermission(agent, requiredPermissions[i]);\n        }\n    }\n\n    function revokePermission(address agent, bytes32 requiredPermission) public {\n        require(permissions[msg.sender][\"MonetaryBoard\"], \"msg.sender must have MonetaryBoard permission\");\n        permissions[agent][requiredPermission] = false;\n        emit PermissionRevoked(agent, requiredPermission);\n    }\n\n    function revokeMultiplePermissions(address agent, bytes32[] requiredPermissions) public {\n        uint256 length = requiredPermissions.length;\n        for (uint256 i = 0; i < length; i++) {\n            revokePermission(agent, requiredPermissions[i]);\n        }\n    }\n\n}\n",
  "sourcePath": "/Users/petro/ether/augmint-ratesfeeder/augmint-contracts/contracts/generic/Restricted.sol",
  "compiler": {
    "name": "solc",
    "version": "0.4.23+commit.124ca40d.Emscripten.clang"
  },
  "schemaVersion": "2.0.0",
  "updatedAt": "2018-05-21T09:24:19.710Z"
}